:020000041FFFDC
:10F00000C02E0020E52A00200FFFFF1F6700002010
:10F0100000000000000000000000000000000000F0
:10F020000000000000000000000000007B01002044
:10F0300000000000000000007F0200200B100020F4
:10F040004F160020FF1D0020AB2A0020B72A002009
:10F05000492B00204B2B00204D2B00204F2B002054
:10F06000512B0020532B0020552B0020572B002024
:10F07000592B00205B2B00205D2B00205F2B0020F4
:10F08000612B0020632B0020652B0020672B0020C4
:10F09000692B00206B2B0020032900206D2B002002
:10F0A0006F2B0020712B0020732B0020752B00206C
:10F0B000772B0020792B00207B2B00207D2B00203C
:10F0C000FFFFFFFFFFFFFFFFFFFFFFFFFEFFFFFF51
:10F0D00010B504000021462000F053FD7748406839
:10F0E000C0788006FAD575484068447101214620F1
:10F0F00000F047FD10BD10B504000121462000F0CE
:10F1000040FD6E484068C0788006FAD56B4840687C
:10F1100044710021462000F034FD10BD38B50024B4
:10F1200007E00020FFF7E7FF6D1CEDB2802DF8DB54
:10F13000641CE4B2082C0CDA20005038C0B2FFF78F
:10F14000C7FF0120FFF7C4FF1020FFF7C1FF002514
:10F15000EBE731BD10B5040008005038C0B2FFF72E
:10F16000B7FF2100C9B2090910200843C0B2FFF758
:10F17000AFFF2007000FFFF7ABFF10BD80B5504B6E
:10F1800000220121012000F049FD01220121462039
:10F1900000F05EFC01220121452000F059FC002115
:10F1A000452000F0EEFC322000F0EFFD012145206B
:10F1B00000F0E7FCAE20FFF78BFF0020FFF788FF91
:10F1C0001020FFF785FF4020FFF782FF8120FFF727
:10F1D0007FFFCF20FFF77CFFA120FFF779FFC8203A
:10F1E000FFF776FFA620FFF773FFA820FFF770FF59
:10F1F0003F20FFF76DFFD320FFF76AFF0020FFF7E6
:10F2000067FFD520FFF764FF8020FFF761FFD9205B
:10F21000FFF75EFFF120FFF75BFFDA20FFF758FFF3
:10F220001220FFF755FFDB20FFF752FF4020FFF7CA
:10F230004FFF2020FFF74CFF0220FFF749FF8D20F2
:10F24000FFF746FF1420FFF743FFA420FFF740FF1E
:10F25000A620FFF73DFFAF20FFF73AFFFFF75EFF65
:10F2600000210020FFF776FF01BDF7B5040000275D
:10F27000002600250EE08C48FFB206217943401895
:10F28000F6B2805DFFF737FF761CF6B2062EF2DB92
:10F29000A41D6D1C0298EDB2405D00280BD00298B1
:10F2A000EDB2475D203F684601792000C0B2FFF70C
:10F2B00051FF0026E9E72000C0B2FEBDDC2B002094
:10F2C000002D310138B5002400E0641CE4B20A2CA2
:10F2D00000DBE6E0E4B2002C10D0022C2CD01CD3D2
:10F2E000042C47D037D3062C65D052D3082C00D13C
:10F2F00087E073D3092C00D196E0E6E7002508E00B
:10F3000001212800C0B2FFF725FF8120FFF7F3FE9F
:10F310006D1CEDB2802DF3DBD7E7002508E0052159
:10F320002800C0B2FFF716FF8120FFF7E4FE6D1C36
:10F33000EDB2802DF3DBC8E7012508E02900C9B252
:10F340000020FFF707FFFF20FFF7D5FE6D1CEDB291
:10F35000082DF3DBB9E7012508E02900C9B24320F5
:10F36000FFF7F8FEFF20FFF7C6FE6D1CEDB2062D7D
:10F37000F3DBAAE7012508E02900C9B27F20FFF7E7
:10F38000E9FEFF20FFF7B7FE6D1CEDB2082DF3DBA1
:10F390009BE700250BE0012128001E30C0B2FFF7DB
:10F3A000D9FE4248EDB2405DFFF7A5FE6D1CEDB2FF
:10F3B000072DF0DB89E700250CE0012128005E30F5
:10F3C000C0B2FFF7C7FE3948EDB24019C079FFF768
:10F3D00092FE6D1CEDB2072DEFDB76E700250CE009
:10F3E000052128001E30C0B2FFF7B4FE2F48EDB251
:10F3F0004019807BFFF77FFE6D1CEDB2072DEFDB20
:10F4000063E700250CE0052128005E30C0B2FFF75D
:10F41000A1FE2648EDB24019407DFFF76CFE6D1C41
:10F42000EDB2072DEFDB50E7214A00210120FFF765
:10F430001CFF20A202210120FFF717FF1EA20321BB
:10F440000120FFF712FF1DA204210120FFF70DFF8D
:10F4500018A202214420FFF708FF17A2032144202D
:10F46000FFF703FF15A204214420FFF7FEFE14A2BC
:10F4700006210120FFF7F9FE12A207210120FFF764
:10F48000F4FE11A206214420FFF7EFFE0FA2072190
:10F490004420FFF7EAFE0EA208214420FFF7E5FE14
:10F4A00013E731BD00000000D82000202C2A0020E6
:10F4B000182B0020503A0000493A0000443A00005E
:10F4C000535A3A0053573A004B313A004B323A0004
:10F4D000414C3A0038B51F48007800281ED0022859
:10F4E0003ED03AD3042800D17EE05BD3062800D179
:10F4F000BEE000D29AE0082800D1FDE000D2D9E0B9
:10F500000A2800D13CE100D218E10C2800D17BE1AF
:10F5100000D257E10D2800D19AE1BBE1002513E0AC
:10F520002100C9B22800C0B2FFF714FEC048EDB2F6
:10F53000082169434018E4B2005DFFF7DCFD641C5C
:10F54000E4B2082CECDB6D1CEDB2802D04DA002453
:10F55000F6E700BF1C2C00209CE1FFF7B3FE99E109
:10F5600000250CE0012128001430C0B2FFF7F2FDA5
:10F57000C948EDB24019007FFFF7BDFD6D1CEDB22B
:10F58000042DEFDB002509E0052128007C30C0B206
:10F59000FFF7E0FD8120FFF7AEFD6D1CEDB2042DFD
:10F5A000F2DB77E100250CE0012128002830C0B211
:10F5B000FFF7D0FDB848EDB24019007FFFF79BFD83
:10F5C0006D1CEDB2042DEFDB002509E001212800C0
:10F5D0001430C0B2FFF7BEFD8120FFF78CFD6D1C1B
:10F5E000EDB2042DF2DB55E100250CE001212800ED
:10F5F0003C30C0B2FFF7AEFDA748EDB24019007F26
:10F60000FFF779FD6D1CEDB2042DEFDB002509E05D
:10F61000012128002830C0B2FFF79CFD8120FFF7B0
:10F620006AFD6D1CEDB2042DF2DB33E100250CE028
:10F63000012128005430C0B2FFF78CFD9648EDB28E
:10F640004019007FFFF757FD6D1CEDB2042DEFDB75
:10F65000002509E0012128003C30C0B2FFF77AFD07
:10F660008120FFF748FD6D1CEDB2042DF2DB11E1A6
:10F6700000250CE0012128006830C0B2FFF76AFDC8
:10F680008548EDB24019007FFFF735FD6D1CEDB2E6
:10F69000042DEFDB002509E0012128005430C0B221
:10F6A000FFF758FD8120FFF726FD6D1CEDB2042DFC
:10F6B000F2DBEFE000250CE0012128007C30C0B235
:10F6C000FFF748FD7448EDB24019007FFFF713FDC6
:10F6D0006D1CEDB2042DEFDB002509E001212800AF
:10F6E0006830C0B2FFF736FD8120FFF704FD6D1CC6
:10F6F000EDB2042DF2DBCDE000250CE00521280061
:10F700001430C0B2FFF726FD6348EDB24019007F08
:10F71000FFF7F1FC6D1CEDB2042DEFDB002509E0D5
:10F72000012128007C30C0B2FFF714FD8120FFF7D3
:10F73000E2FC6D1CEDB2042DF2DBABE000250CE029
:10F74000052128002830C0B2FFF704FD5248EDB271
:10F750004019007FFFF7CFFC6D1CEDB2042DEFDBED
:10F76000002509E0052128001430C0B2FFF7F2FCA3
:10F770008120FFF7C0FC6D1CEDB2042DF2DB89E0A7
:10F7800000250CE0052128003C30C0B2FFF7E2FC68
:10F790004148EDB24019007FFFF7ADFC6D1CEDB2A2
:10F7A000042DEFDB002509E0052128002830C0B238
:10F7B000FFF7D0FC8120FFF79EFC6D1CEDB2042DFD
:10F7C000F2DB67E000250CE0052128005430C0B2D0
:10F7D000FFF7C0FC3048EDB24019007FFFF78BFC0B
:10F7E0006D1CEDB2042DEFDB002509E0052128009A
:10F7F0003C30C0B2FFF7AEFC8120FFF77CFC6D1CF3
:10F80000EDB2042DF2DB45E000250CE005212800D7
:10F810006830C0B2FFF79EFC1F48EDB24019007F70
:10F82000FFF769FC6D1CEDB2042DEFDB00250BE04A
:10F83000E4060020052128005430C0B2FFF78AFCFE
:10F840008120FFF758FC6D1CEDB2042DF2DB21E0A6
:10F8500000250CE0052128007C30C0B2FFF77AFCBF
:10F860000D48EDB24019007FFFF745FC6D1CEDB26D
:10F87000042DEFDB002509E0052128006830C0B227
:10F88000FFF768FC8120FFF736FC6D1CEDB2042DFC
:10F89000F2DBFFE731BD00002C2A0020F0B50400A8
:10F8A0000D0006260020F6B2A8550FE0761EA4B281
:10F8B00020000A2100F096FA0F00A4B220000A21CD
:10F8C00000F090FA04003037F6B2AF55F6B2002ED1
:10F8D000ECD1F0BD30B585B004000D001000002162
:10F8E00080B2002806D130206946087000206946A1
:10F8F000487019E002A980B2FFF7D0FF02A8401CAF
:10F9000000E0401C01783029FBD0002105E002789E
:10F910006B46C9B25A54401C491C0278002AF6D1E1
:10F9200000206A46C9B250546A462900C9B2200074
:10F93000C0B2FFF79AFC04002000C0B205B030BD91
:10F94000FBB50400150000262800002100F0A4FAF1
:10F950000AD280200006454037A26846017920007F
:10F96000C0B2FFF782FCA41D280000F0BDFA06001B
:10F97000300000F0D9FA0100280000F01CFB07005D
:10F9800028002E4900F070FB0CD830002C4900F004
:10F990002CFA020092B2684601792000C0B2FFF74B
:10F9A00099FF04003000264900F01FFA0A0092B2C5
:10F9B000684601792000C0B2FFF78CFF040021A245
:10F9C000684601792000C0B2FFF74FFCA41D17E084
:10F9D0001D48EDB2062169434018F6B2805DFFF77D
:10F9E0008AFB761CF6B2062EF2DBA41DEDB2103DAA
:10F9F000280000F08DFA0100380000F0DCFA070062
:10FA00006846007A002816D068466946097A491E79
:10FA100001720E48390000F03BFB0700380000F08F
:10FA20008FFB05001035684601792000C0B2FFF752
:10FA300091FB0026D6E7F7BD2D000000013C1C46D7
:10FA4000102700002E000000D820002000002041D8
:10FA500018B50300DBB25B096C462370C006C00E0C
:10FA60006B465870D2B2002A00D00122C9B20029D8
:10FA700028D1684600786849C0B20422504308582B
:10FA8000806901216A4652789140884362496A46FA
:10FA9000127804235A4389588861684600785E4981
:10FAA000C0B2042250430858406901216A46527886
:10FAB0009140884358496A46127804235A4389582A
:10FAC000486143E0684600785349C0B20423584374
:10FAD0000858806903000120694649788840184326
:10FAE0004D496B461B7804246343C95888616846B6
:10FAF00000784949C0B204235843085840690300BC
:10FB00000120694649788840184343496B461B7871
:10FB100004246343C9584861684600783E49C0B22E
:10FB2000042358430858006801216B465B789940CC
:10FB30008843D2B2694649788A4002431000364968
:10FB40006A46127804235A438958086011BD81B06F
:10FB50000100C9B249096A465170C006C00E694623
:10FB60000870684640782C49C0B2042250430858B7
:10FB7000016968460078C1400800C007C00F01B0A5
:10FB8000704780B50200D2B252096B465A70C00667
:10FB9000C00E6A461070C9B2002900D00121684623
:10FBA00040781D4AC0B2042358431058006801220F
:10FBB0006B461B789A409043C9B26A4612789140CE
:10FBC0000143080014496A46527804235A4389586D
:10FBD000086001BD81B00100C9B249096A461170CF
:10FBE000C006C00E69464870684600780A49C0B22F
:10FBF000042250430858C068020001206946497831
:10FC00008840104304496A46127804235A438958AD
:10FC1000C86001B070470000002B0020FAB58DB01D
:10FC20000700140003A84849242200F0A7FA01A8FD
:10FC300046490CC90CC008390838FFB2002F0DD155
:10FC4000434800688021C90201434148016041489E
:10FC50000068402188433F4908600DE03C48006847
:10FC60008021090301433A4801603B480068802134
:10FC70000901014338480160E4B2002C4ED100254F
:10FC8000ED43002621E0641CE4B2082C1CDA334862
:10FC90000068FA218900484301A9E4B2095D03AA7A
:10FCA000F6B204237343D258514300F09EF80E99E4
:10FCB000401A00F07DFAA842E5D269464C706946C8
:10FCC0000E700500002DDED1761CF6B2092E01DA89
:10FCD0000024D9E70DA8007840005C2101432048AA
:10FCE000FFB204227A43805801700DA80078000109
:10FCF0001B49FFB204227A4389584870684600784D
:10FD00000007000F69464978090170220A40024342
:10FD10001348FFB204214F43C05982700F48006856
:10FD2000FA218900484301A96A465278895C00F0AB
:10FD30005CF803A96A46127804235A43895800F0F4
:10FD400054F80FB0F0BD0000502A0020202B0020F6
:10FD5000148004400C800440108004400C2D0020CE
:10FD6000E42B002000B500280ED000210E4A1160BF
:10FD70000E49086000200E49086005200A49086005
:10FD800009480068C003FBD500BD10B5040000F0B1
:10FD900013FA03E007480068FFF7E4FF2000441E61
:10FDA0000028F7D110BD000010E000E014E000E0F2
:10FDB00018E000E0082D0020F446002804D4494251
:10FDC00000F013F8404260474042002905D45FD05C
:10FDD00000F00BF8404249426047494200F005F804
:10FDE0004942604703460B43E6D40022030A8B4294
:10FDF0000BD203098B4219D243088B422ED2411AEF
:10FE000000D20146524110467047FF2209023FD0FE
:10FE100012068B4205D3121209028B4201D3121231
:10FE2000090203098B4219D300E0090AC3098B4276
:10FE300001D3CB01C01A524183098B4201D38B01FC
:10FE4000C01A524143098B4201D34B01C01A52419F
:10FE500003098B4201D30B01C01A5241C3088B42E4
:10FE600001D3CB00C01A524183088B4201D38B00CF
:10FE7000C01A524143088B4201D34B00C01A524171
:10FE8000884200D3401A5241CFD2014610467047F3
:10FE900008B500F0F3F908BD0CB4012212060318EE
:10FEA000DA4207D84B18DA4204D802000A43921803
:10FEB00002D288420CBC7047FCD08142FAE730B4D1
:10FEC000012100220368001D002B0BD00468001DD7
:10FED0000C4202D04D466D1E64192260241D1B1F6A
:10FEE000F0D0FAE730BC704700180ED2010E7F390F
:10FEF0000BD449421F3105D4C0010122D20710435F
:10FF0000C84070470020401E704700207047FEE741
:10FF10009D2102000AD5F446524200F007F8012262
:10FF2000D2071043604700009D2102000AD002D48E
:10FF3000491E9218FCD5C905100A1206524100D379
:10FF4000012A484170470122D20703004B402ED4BA
:10FF5000431A01D2C01AC91830B44B180418240E21
:10FF60001B0E22D0FF2C20D0E31A182B1DDC090217
:10FF70001143C40D641E0002104394461925ED1A66
:10FF80000A00AA40D940451801D36D08A41CE40515
:10FF9000D209280A2D062A436546AA416041031862
:10FFA0001B0EFF2B01D3C00DC00530BC7047514064
:10FFB00006E05140CCE70122D20703004B40F8D4C1
:10FFC000431A03D2C01AC9185040514030B44B18DC
:10FFD000090211430418240E1B0E40D0FF2C3AD006
:10FFE00025009D410BD31ED8C50D4002401A0BD3EE
:10FFF000ED050100400AC90591416841D5E7C50DED
:020000042000DA
:1000000040024918401AD0D001214008491C00186C
:10001000FCD58C4204D36D1A000AED054019C4E7E3
:10002000E8051040C1E7182DBFDCAC1C0D00E14015
:10003000E5414D40012D4941C40D00021043451AD0
:1000400001D46D199543641EE405280A2D069541D7
:10005000604130BC7047FF2BA7D1D843A5E72442AD
:10006000A3D10020A1E7FEE70CB401221206031879
:10007000DA4207D84B18DA4204D802000A43921831
:1000800002D281420CBC7047FCD088420CBC704745
:1000900030B405004D400122D20715404B1804181A
:1000A000240E2ED01B0E32D0FF2C34D0FF2B3AD092
:1000B000E4180002090210431143000A090A944699
:1000C000C2B24A43000AC3B24B43000A4843110A72
:1000D0005B181A43D2B2190A091801D44918641ED0
:1000E000080A7F3C23DBFE2C08DAE40509061143ED
:1000F000634699416041284330BC7047FF20C005EA
:10010000F9E728001B0EFF2BF6D1D043F4E72800B7
:10011000FF2CF1D1F9E74002F7D1FF2B01D14902C1
:10012000F3D1E005E7E7D8054902E4D0EDE7430263
:100130000020641CDFD15B129B1CDCD9D805DAE7F8
:100140000122D2070118090E7F3910D449421F310C
:100150000FD4001805D2C0011043C84000D5D043C9
:100160007047C0011043C84005D44042704700208A
:1001700070470042F3D510007047FEE770B4103AA4
:1001800003D378C9103A78C0FBD2530701D318C9FA
:1001900018C001D508C908C0D20704D30B88038052
:1001A000891C801C002A01D50B78037070BC704735
:1001B000002800D54042704700B587B06846264900
:1001C0001822FFF7DBFF254825490860244800680E
:1001D0006946244A1278D2B2D2085207520F02233B
:1001E0005A4389184989FFF700FE1D4908601C48D9
:1001F000006869461C4A1278D2B2520902235A4357
:10020000895AFFF7F2FD164908601548006817493A
:100210000968090F8907890F491CFFF7E6FD144992
:1002200008601348006811490A681100C901C90F24
:10023000491CFFF7DAFD0F490860094800680B49BF
:100240000A681100C902C90F491CFFF7CEFD0A490F
:10025000086007B000BD0000CC2A002000803801F3
:10026000002D00200040064001400640248004404C
:10027000082D00200C2D0020042D00207047FEE7E3
:1002800000B5C0B2002803D0022838D01BD387E0C5
:10029000AC48006820220243AA480260C9B2002983
:1002A00002D0012907D00DE0A7480068A749014006
:1002B000A548016006E0A4480068A5490140A2489D
:1002C0000160FFE76CE09F480068402202439D48C0
:1002D0000260C9B2002902D0012908D00EE09A4874
:1002E00000688021C90001439748016006E09648F4
:1002F00000689849014094480160FFE750E0914848
:100300000068802202438F480260C9B2002908D0E9
:10031000022920D012D3042933D027D3052937D07E
:100320003DE0D048006803218843CE490860CD48AD
:10033000006802210143CB48016030E0C9480068F1
:100340000C218843C7490860C6480068082101435A
:10035000C448016023E0C348006830218843C14994
:100360000860C0480068BF49086018E0BD480068E0
:10037000C0218843BB490860BA480068B949086091
:100380000DE0B848006871490140B648016006E0D8
:10039000B44800686E490140B2480160FFE7FFE7DA
:1003A00000BDF4B505000F001C003900C9B22800DB
:1003B000C0B2FFF765FFAC480068FA2189004843E6
:1003C0000121FFF712FD69460978FA229200514394
:1003D000FFF70BFDA5490880A4480088401EA349EB
:1003E0000880EDB2002D03D0022D17D00BD320E0F2
:1003F0009E480088401C44432000FA214901FFF731
:10040000F4FC060015E099480088401C4443200095
:10041000FA214901FFF7E9FC06000AE09348008849
:10042000401C44432000FA214901FFF7DEFC06008E
:10043000FFE78E4800888E49EDB204226A4389584E
:1004400088608B48EDB2042169434058FFB208210F
:10045000794340188649EDB204226A438958FFB2B5
:1004600008227A438918C96804229143C1608048F0
:10047000EDB2042169434058FFB208217943401886
:100480007B49EDB204226A438958FFB208227A43BD
:100490008918C96828220A43C26008207449EDB24D
:1004A00004226A438958086000207149EDB2042291
:1004B0006A438958C8646E48EDB2042169434058C4
:1004C000FFB208214F43C019B6B206610020684947
:1004D000EDB20422554349594860F1BD30B50400DE
:1004E0000D00E4B2002C03D0022C15D00AD31DE07D
:1004F0005E480088401C42431000FA214901FFF782
:1005000074FC13E059480088401C42431000FA2153
:100510004901FFF76AFC09E054480088401C424347
:100520001000FA214901FFF760FCFFE75049E4B2EF
:10053000042254430959EDB208225543491980B2A7
:10054000086130BD148004400C800440FFFEFFFFB2
:10055000FFFDFFFFFFF7FFFF80B5C0B2002803D00B
:1005600002282FD017D343E04248006820210143DE
:100570004048016040480068404901403E480160F1
:10058000272000F083F83C4800688021890401435B
:10059000394801602CE03748006840210143354864
:1005A0000160354800683649014033480160202029
:1005B00000F06CF8304800688021C90401432E48DF
:1005C000016015E02B480068802101432948016043
:1005D000294800682B4901402748016000202A492A
:1005E0000860052000F052F823480068224908609E
:1005F00001BD10B504002000C0B2FFF7ADFF1C48DC
:10060000E4B204216143405800681949E4B204226D
:100610006243895808601648E4B204216143405897
:100620000068182101431248E4B204226243805852
:10063000016000200E49E4B2042254430959486085
:1006400010BD0B49C0B2042250430858406880B224
:1006500070470021064AC0B2042358431058416035
:100660007047000010800440042D0020B82D0020A9
:10067000F42A0020148004400C800440FFFFFFFC9B
:10068000FFFFFFF3FFFFFFCF4CA0034000B50100C9
:10069000C9B24909C006C00EC9B2002903D0022957
:1006A00011D008D316E00C490968012282400A43A0
:1006B000094802600EE009490968012282400A43A4
:1006C0000648026006E006490968012282400A43A2
:1006D0000348026000BD00BF089004400C90044035
:1006E0001090044000000000000000000000000026
:1006F0000000000000000000000C010000000000ED
:100700000027010000000000F021010000000000AF
:10071000002101000000000000E1FF0700000000D0
:10072000002101060000000000210103000000007C
:1007300000218101000004000001C100000204004A
:1007400000004000000304008000000100010400DC
:10075000800008018001040080008800C0000400BF
:1007600080FCC900E0FF070080271F000000040094
:10077000E025090000000400B02409000000040086
:100780009004080000000400800428000000040019
:1007900080FC6F00000000008000C8010000000025
:1007A0000000080000000000000000000000000041
:1007B0000000000000000000000000000000000039
:1007C0000000000000000000000000000000000029
:1007D0000000000000000000000000000000000019
:1007E000000000000000001E3C00000000000000AF
:1007F00000000000000000FE3F00000000000000BC
:1008000000000400000800FE3F0008000004000093
:1008100000001100002200F0070002000011000E8D
:10082000384004008088C001C08100004044380086
:1008300000070101202206000018000210910100AB
:1008400000604004884800000080810040240000CF
:100850000000120120120000000024000009000026
:1008600000004800800800000000100000041C0088
:100870000000200000043600000020000082C100BB
:100880000000400000420001000040000022000281
:100890000018400000110004F00F87000009000854
:1008A000008183000005201080C881009504361067
:1008B00080E800A995029320C0F800A99582DF2066
:1008C000C0BF01A955C17C40C01803AAC401EC43B4
:1008D000000C068AC400A4870006048AC400218094
:1008E0000006068A44100180000C038B443083000C
:1008F0000198818BD5E0FB0001F080AA95000F00E4
:10090000026040A995610200020040A91531020071
:10091000040020A9001104000400A000000204004B
:10092000080090000002040008009000000204008B
:1009300010004800000404002000440000040000EF
:1009400040004200000800008081210000080000F3
:100950000066200000120000001890000024000033
:1009600000004800804800000000240200810000D0
:100970000000020120020100008081084000020006
:100980000060400480800400001822020001390049
:10099000000711010022C201C08188000044000E3E
:1009A00038004400008800F007002200001000001A
:1009B00000001000002000FE3F00080000000000C2
:1009C000000000000000001E3C00000000000000CD
:1009D000000000000000001E3C00000000000000BD
:1009E00000000000000000000040000000000000C7
:1009F00000400000000000000040980000000000DF
:100A0000004097000000000000F0D100000000004E
:100A1000004F7000000000000040300000000000A7
:100A200000401E000000000000F81100C0071E007A
:100A3000004F1000600C3F00004010002098210083
:100A40000040100010F060000000D0001060600056
:100A500000404100103060000060610010706000D4
:100A60000020310010C8600000301900308C600098
:100A700000F80700E0863000000C070080031B0030
:100A800000060D0000000E000082180000000000AB
:100A90000080300000000000008020000000000006
:100AA00000804000000000000080C0000000000046
:100AB00000808000000000000080000000000000B6
:100AC0000000000000000000000000000000000026
:100AD0000000000000000000000000000000000016
:100AE00000000000F0B583B0494800684949096832
:100AF000FFF761FA484908604848006800F0AAF921
:100B00000090019146480168FE208005FFF71BFA1E
:100B100000F0A0F906000F00424801684248006852
:100B2000FFF7B6FA00F096F904000D00B24800682D
:100B300000F090F9B1A20CCA00F0A5F900F066FA35
:100B400022002B0000F09FF904000D00AD48016861
:100B50008020C005FFF79CFA00F07CF902000B0032
:100B60002000290000F0AEFB02000B00300039002D
:100B700000F06CFC009A019B00F085F900F0DDFCB0
:100B80009C4908602548006800F064F900900191D4
:100B900023480168FE208005FFF7D5F900F05AF9D7
:100BA00006000F001F4801681F480068FFF770FA31
:100BB00000F050F904000D008F48006800F04AF979
:100BC0008EA20CCA00F05FF900F020FA22002B0080
:100BD00000F059F904000D008A4801688020C00522
:100BE000FFF756FA00F036F902000B00200029004A
:100BF00000F068FB32003B0000F0C5FB009A019B4F
:100C000000F041F900F099FC80490860F7BD000050
:100C10003C2D0020402D0020382D0020082C0020E5
:100C2000102D0020F42B0020EC2B002010B5714873
:100C3000006875490968FFF7BEF97E490860734886
:100C4000006873490968FFF7B6F97E49086000201B
:100C500072490860002074490860002074490860E7
:100C600000206C490860002413E06B4804216143B4
:100C70004018406868490422624388506748006809
:100C80006549042262438958FFF75DF963490860AA
:100C9000641C022CE9DB674800685F4988605F4894
:100CA00001685D488068FFF74EF95C4908600024E0
:100CB00013E05B480421614340184068584904220E
:100CC0006243885058480068554904226243895855
:100CD000FFF739F954490860641C022CE9DB5948D4
:100CE00000684F498860504801684D488068FFF7A8
:100CF0002AF94D4908604B48016848480068FFF7E9
:100D0000C7F94B4908604748016847480068FFF742
:100D1000BFF9404908604648006844490968802294
:100D200012065140FFF7B8F806D24048006880210B
:100D3000090648403E4908603C4800683C4909684B
:100D4000FFF7AAF803D239480068394908603148EA
:100D5000006836490968802212065140FFF79CF866
:100D600006D23248006880210906484029490860B7
:100D70002E48006827490968FFF78EF803D22B48F0
:100D80000068244908602E4801682A480068FFF777
:100D90007FF927490968FFF7D6F801000C002548BC
:100DA000006825490968FFF706F928490968FFF72F
:100DB0006FF92100FFF7C7F8204908602048016853
:100DC00020480068FFF764F912490968FFF7BBF88B
:100DD00001000C001B4800681B490968FFF7EBF88D
:100DE0001A490968FFF754F92100FFF7ACF81849D0
:100DF000086010BD682D0020142D0020CAC342AD2C
:100E000069DE913FF02B0020A82D00206C2D0020E2
:100E1000AC2D00202C2D0020E82C0020202D0020BF
:100E2000F42C0020182D0020242D0020FC2B002065
:100E3000282D0020782D00207C2D0020302D002032
:100E4000F82B0020842D0020882D00201C2D002050
:100E5000342D0020012212060118CA420AD28A4209
:100E60000DD83822120609098918C20FD20711437A
:100E70004007704700D049080909014301E0C10F4C
:100E8000C90700207047F0B50E005E400125ED0750
:100E90002E40B446AE0ADF184C18F44208D2F7428E
:100EA0000ED2640D01D07F0D12D100206146F0BD3D
:100EB00005D1F74201D87F0D05D10020C143F0BD17
:100EC000FBD1640DF9D00020C143490549088FE0EA
:100ED000E419C902DB0229432B43DB0A460DC00299
:100EE00031438E4630B487B295B27D432E0CADB2FD
:100EF000140C7C43A419260C240425439CB27C4387
:100F0000A419190C7943270CC919A4B20F043C4346
:100F1000090C000C97B247432E0CBE193543ADB2F5
:100F2000170C4743360CBF19A6B2BF193E04354310
:100F3000240C3E0C36199FB24743BF19BCB23E0C7D
:100F400089191F0C47437F183E043443390C7046FF
:100F500080B297B247432E0CBE193543ADB2170C81
:100F60004743360CBF19A6B2BF193E043543240CC3
:100F70003E0C36199FB24743BF19BCB23E0C8919CB
:100F80001F0C47437F183E043443390C77463F0C0F
:100F900090B278432E0C80190604ADB22E43050C96
:100FA000A0B22D18120C7A435019020C80B2240CF6
:100FB000A4189AB27A43121914042043120C891807
:100FC0001B0C7B43C91830BCEF0A394203D1B61958
:100FD00040414941641E6F12BF0DE41B0BDBFF193A
:100FE000BC4211DA240500274208AE417841614134
:100FF00066463143F0BD641C05D1401C6141CF02FF
:1010000001D34908F4E750E75DE7FEE7F0B587B0A4
:1010100004000D008CA003C822002B00FFF733FF53
:1010200006000F004900490889A20CCA00F0B6FA70
:1010300072D239000022002300F0C9FA104601D80C
:10104000854900E0854932003B0000F09CF900F042
:10105000D7FA0090009800284DD000F0F9FA00224D
:101060007F4BFFF710FF06000F007EA003C8320081
:101070003B00FFF708FF02000B002000290000F0F2
:10108000E5F904000D0079A003C832003B00FFF72A
:10109000FAFE02000B002000290000F0D7F904003E
:1010A0000D0074A003C832003B00FFF7ECFE020005
:1010B0000B002000290000F0C9F904000D000020F9
:1010C0006E4932003B00FFF7DEFE02000B002000FD
:1010D000290000F0BBF904000D0069A003C832002C
:1010E0003B00FFF7D0FE02000B002000290000F0BB
:1010F000ADF904000D0000988607B60F2000290006
:1011000061A20CCA00F063FA40D80022F9239B05C3
:1011100000F044FA3AD220E020006900490D5C4A10
:10112000914227D0002903D12903090B08431ED07F
:10113000684630C0684600F0A3FA0600684630C82A
:101140002000290050A20CCA00F041FA1ED800224B
:10115000F9239B0500F022FA18D2F00707D50020EA
:101160004C4922002B0000F0ADF804000D002000D7
:10117000290063E02903090B0843F8D100F03AFB8A
:10118000212101600020C043410857E022002B00CC
:10119000FFF779FE02AA03C202A80CC83EA003C84A
:1011A000FFF771FE3EA20CCA00F0EDF802AA0CCACD
:1011B000FFF769FE3CA20CCA00F0E5F802AA0CCACF
:1011C000FFF761FE00223A4B00F0DDF804AA03C2EB
:1011D00002A803C822002B00FFF755FE00900191E2
:1011E00002A803C833A20CCAFFF74DFE33A20CCAF3
:1011F00000F0C9F802000B0002A803C8FFF743FE85
:101200000FA20CCA00F0BFF8009A019BFFF73BFE4B
:1012100022002B0000F0B7F804000B00F00708D5FF
:1012200004A803C8220000F04DF8802212065140A5
:1012300004E0200004AA0CCA00F044F807B0F0BD96
:101240006955C388986BC0BF83C8C96D305FE43FE0
:101250000000A0FFFFFFDF410000E03F0000E0BF13
:101260000000303E00000050FB21B941000000604A
:10127000B41011400000002026A6513E5C14D33C5F
:10128000000000209A833B3BFEFFFFFFFFFF3FBEB5
:10129000FF0700000000F0BF6C9E741E68522BBF59
:1012A000A908265CB9E7973FD5FFB699218BDDBF2A
:1012B0000000F03FDB9955949A63DFBED625F78690
:1012C00075FC663FF0B40E005E400125ED072E4030
:1012D000B446AE0ADF184C18F4423BD2F74241D272
:1012E000640D43D07F0D38D0E41BC902DB022943D3
:1012F0002B43CF0ADB0A0600B61A9F4104D2641EB4
:10130000B6197F41B6185F416812800D2418001885
:10131000844222DAE80C0021B6197F41B61A9F41B7
:1013200002D2B6185F413F1C40414941F4D3241C0E
:1013300021DD2405B6197F41B61A9F4105D33743F5
:10134000C60737430026012F70416141664631438D
:10135000F0BC7047FCD1F74205D20020C1434905DB
:101360004908F3E704D00020C143F1E77F0DFAD02C
:1013700000206146ECE72442FAD1401C61410F0392
:10138000F6D30020E2E7F0B40125ED070F005F403F
:101390004FD48B4200D1824205D984461000624668
:1013A0008C4619006346DF184C18640D7F0D3AD047
:1013B000661C760537D0E61B352E34DCDB022B436A
:1013C000DB0A0C0DC9022943C912202E0DDB1700C0
:1013D000203E06D01F00F741F3405F400026012A5F
:1013E0007741C01871410DD217E01700F741F24064
:1013F0005740F3415A40B340F3405A40002680180A
:1014000059410AD3A21C52050FD0C207012F7241C5
:1014100017004008CB0718434908641C24054208FC
:10142000AF4170416141F0BC7047641C2105002050
:10143000F9E76B4010E06B40ABE7F742F3D1E943CB
:10144000F1E72442EFD100200021ECE7F0B40125C0
:10145000ED070F005F40EED40C00871A9C4105D2C7
:10146000C01BA141D219634169406B40AE0ADF182D
:101470004C18F442E1D2640D7F0DE2D0E61B362E0B
:10148000D1DCDB022B43DB0AA4460C0DC902294345
:10149000C90A012E28DC04D1D6075208DF073A43D7
:1014A0005B08EF0A76429041994114D039423BD112
:1014B000B61940414941761C394204D1761C0018C6
:1014C00049413942FAD0B9436746B74208D9A41B0B
:1014D00024052143A7E70042EAD13642E8D1A2E73A
:1014E000E40AE10700209EE7202E0BDD203E1F00CE
:1014F000F340F7415F40012A002257417E42984164
:1015000091410BE01700F741F2405740F3415A4038
:10151000B340F3405A407E42904199410A0303D2BE
:10152000641EB619404149410027641E2405420843
:10153000AE4178416141F0BC7047012252054B1821
:10154000DA4201D9581570475B0D0722D2019B1A68
:1015500010D9FF2B1DD2DB050122D2070A4013430D
:101560000903020D1143490AC200524100D9491C26
:10157000C81870470AD1800A0A0302435212921C0B
:1015800004D9D3070B40D00518437047C80FC007D4
:101590007047C80F0002FF30C005704730B4012407
:1015A00064054D00EC420BD85D00EC4208D80C00FD
:1015B0001C4364000443144304D2994200D1904276
:1015C00030BC7047FCD08B42FAD18242F8E730B48D
:1015D000012464054D00EC420BD85D00EC4208D8B4
:1015E0000C001C4364000443144304D28B4200D11A
:1015F000824230BC7047FCD09942FAD19042F8E761
:10160000F4464A1805D200F00DF801D580174008BD
:10161000604700F007F80121C907884200D9080097
:1016200040426047400DC90208430121C9070843F1
:10163000520D40210901521A521C06D452421F3247
:1016400001D4D0407047C017704700207047FEE7B4
:10165000010007D5F446404200F004F80122D20709
:101660001143604742221201D21E004207D002D429
:10167000521E0018FCD5C10A400512058918704792
:10168000F1B582B030C849A003C822002B00FFF793
:10169000FAFB6A4603C2684603C800220023FFF72C
:1016A00096FF68460CC802D80020424901E000209D
:1016B0004149FFF768FE6A4603C20021684600F010
:1016C000A1F868460CC80020002100F0E1F84AD0DB
:1016D0003A49FFF7D8FB06000F0039A003C83200D3
:1016E0003B00FFF7D0FB02000B0020002900FFF7B2
:1016F000ADFE04000D0034A003C832003B00FFF72C
:10170000C2FB02000B0020002900FFF79FFE04002F
:101710000D002FA003C832003B00FFF7B4FB02000E
:101720000B0020002900FFF791FE04000D000020AF
:10173000294932003B00FFF7A6FB02000B00200006
:101740002900FFF783FE04000D0024A003C8320027
:101750003B00FFF798FB02000B0020002900FFF779
:1017600075FE04000D00029830C0684603C81DA233
:101770000CCAFFF713FF06D3684603C81B4A1C4B6D
:10178000FFF725FF07D80022074B684603C800F083
:1017900091F86A4603C2684603C8FFF731FF800725
:1017A000800F03B0F0BD00BF0000E04183C8C96DE9
:1017B000305FE43F0000E03F0000E0BF0000303E4B
:1017C00000000050FB21B94100000060B41011403E
:1017D0000000002026A6513E5C14D33C00000020EF
:1017E0009A833B3B0000C0FFFFFFDFC10100C0FF49
:1017F000FFFFDF4180B5024800F0BFF802BD0000E6
:10180000182C002042685200520D1F4B9A4209D1F9
:101810004168090304D10068002801D10120704704
:101820000220704743685B0002D10368002B28D078
:10183000164B9A1A521A012A23DB352A07DB416814
:1018400080221206114041600021016016E0012152
:10185000D306DB0E9940491E920608D542680A401D
:1018600041685140416003681343002103E003686D
:101870000B40016859400160002B02D00020C0439A
:1018800070470020704700BFFF07000033040000CE
:1018900090420ED1A4460C001C430128644107D09D
:1018A000994205D14C006415641C644000D30C03BC
:1018B00064467047F0B401277F05DB184C18FB42E3
:1018C00059D85D0D50D0FC424DD2BF02A34200D189
:1018D000824239D2640D0E003E409B023B43DB0A3C
:1018E000C9023943C90A641B641C801A994104D295
:1018F000641E001849418018594101D100420AD0A4
:10190000641E08D000184941801A9941F5D2801808
:101910005941641EF6D18902820D8002114303D120
:1019200001001DD0203D002003D46D1E0018494148
:10193000FBD5C00A4C05C90A204331432D4207D4C8
:101940002D054919F0BC7047FCD139400020F9E75A
:101950006D1C05D1FF0AB943401C69410F03F1D248
:1019600031000020EEE7EDD10021C943744600F0BC
:1019700005F8A646E6E71900E4E770471FB5FFF74C
:1019800039FF212101601FBD80B51F4A00210120C0
:10199000FDF76BFC1D4A01210120FDF766FC1C4A86
:1019A00003210120FDF761FC1A4A04210120FDF703
:1019B0005CFC19A207210120FDF757FC01BD80B591
:1019C00003231648026800212820FDF7B9FF0323EE
:1019D0001348026801212820FDF7B2FF03231148B4
:1019E000026803212820FDF7ABFF03230E4802689D
:1019F00004212820FDF7A4FF03239C480268072147
:101A00002820FDF79DFF01BD282B0020302B002052
:101A1000382B0020402B0020533A0000F42B0020EC
:101A2000142D0020682D00206C2D002080B500F0C2
:101A300056F901280AD000D2DEE0032860D033D363
:101A4000052800D1C0E000D28DE0D5E088480078BC
:101A5000002803D101208649087002E00020844953
:101A6000087084480078012804D01CD3032812D0C1
:101A700009D318E07A480168FE208005FEF763FA72
:101A8000774908600FE0774801686F48FEF75BFA16
:101A90007449086007E0754801686B48FEF753FA1F
:101AA00072490860FFE7A7E071480078002803D179
:101AB00001206F49087002E000206D4908706D48F0
:101AC0000078012804D01BD3032811D008D317E0D5
:101AD000634801686448FEF736FA614908600FE020
:101AE000604801685948FEF72EFA5E49086007E031
:101AF0005E4801685548FEF726FA5C490860FFE732
:101B00005B480078002803D101205949087002E0A1
:101B100000205749087057480078012804D022D384
:101B2000032817D00DD31EE04D480068FFF792F947
:101B300047A20CCAFFF727FCFFF7FFFC48490860E3
:101B400011E048480168FE208005FEF7FCF9454990
:101B5000086008E045480168FE208005FEF7F3F9BB
:101B600042490860FFE742480078002803D101207D
:101B70003F49087002E000203D4908703D48007868
:101B8000012804D020D3032816D00DD31CE03448FC
:101B90000068FFF75FF930A20CCAFFF7F4FBFFF70C
:101BA000CCFC2F4908600FE02E4801682E48FEF754
:101BB000CAF92C49086007E02C4801682A48FEF75A
:101BC000C2F92A490860FFE729480078002803D1B4
:101BD00001202749087002E00020254908702548A7
:101BE0000078401C2349087022480078042802DB52
:101BF000012020490870FFE71E480078012804D121
:101C000000213120FDF7BDFF03E001213120FDF768
:101C1000B8FF18480078022804D100213220FDF7CF
:101C2000B0FF03E001213220FDF7ABFF114800783F
:101C3000032804D100213320FDF7A3FF03E0012195
:101C40003320FDF79EFF01BD00002041000020C1B0
:101C50009A9999999999B93F9A9999999999B9BFE6
:101C6000F42B0020142D0020000080BF082C002041
:101C7000BC2D00201C2C002080B50022002141201A
:101C8000FDF7E6FE002200213E20FDF7E1FE0321E4
:101C90000220FEF7F5FA002200211920FDF7D8FEF8
:101CA000002200213D20FDF7D3FE00220021442028
:101CB000FDF7CEFE002200212B20FDF7C9FE0022F9
:101CC00000213820FDF7C4FE002200213920FDF755
:101CD000BFFE002200214020FDF7BAFE01BD10B575
:101CE00000244120FDF733FF012816D00A20FEF71B
:101CF0004CF84120FDF72BFF01287DD00121182051
:101D0000FDF73FFF01244120FDF721FF0128FAD113
:101D100000211820FDF735FF6EE03E20FDF717FF8C
:101D2000012816D00A20FEF730F83E20FDF70FFFFD
:101D3000012861D001211820FDF723FF02243E2055
:101D4000FDF705FF0128FAD100211820FDF719FF42
:101D500052E01920FDF7FBFE012816D00A20FEF7FD
:101D600014F81920FDF7F3FE012845D001211820B1
:101D7000FDF707FF03241920FDF7E9FE0128FAD13A
:101D800000211820FDF7FDFE36E03D20FDF7DFFEC7
:101D9000012816D00A20FDF7F8FF3D20FDF7D7FEF9
:101DA000012829D001211820FDF7EBFE04243D2055
:101DB000FDF7CDFE0128FAD100211820FDF7E1FE44
:101DC0001AE04420FDF7C3FE012815D00A20FDF7D4
:101DD000DCFF4420FDF7BBFE01280DD001211820B7
:101DE000FDF7CFFE05244420FDF7B1FE0128FAD10E
:101DF00000211820FDF7C5FE2000C0B210BDFEE78F
:101E000038B59948006899490968FEF7D4F89849A7
:101E100008609848006898490968FEF7CCF8974927
:101E200008609348006896490968FEF7C4F8954928
:101E30000968FEF72DF994490968FEF784F8010056
:101E40000C00924801688A480068FEF721F92100D9
:101E5000FEF779F801000C00854801688C4800689D
:101E6000FEF771F80500864801688020C005FEF77E
:101E70000FF901002800FEF79EF886490968FEF771
:101E800007F92100FEF75FF8FEF72EF8FEF74CF891
:101E9000814908607948006880490968FEF78BF835
:101EA00078490968FEF7F4F87D490968FEF74BF8B0
:101EB00001000C007548016870480068FEF7E8F8FA
:101EC0002100FEF740F801000C006C4801687548DD
:101ED0000068FEF738F80500704801688020C005EA
:101EE000FEF7D6F801002800FEF765F86949096891
:101EF000FEF7CEF82100FEF726F8FDF7F5FFFEF716
:101F000013F8694908606948006863490968FDF782
:101F1000C3FF03D2654800685F4908605E480068F7
:101F200063490968FDF7B8FF03D2614800685A4960
:101F300008605E4800685C490968FDF7ADFF03D2A0
:101F40005A48006858490860574800685849096865
:101F5000FDF7A2FF03D256480068534908604E4877
:101F60000068494908604648006849490860404897
:101F70000068434908603D4800684E4908604A4887
:101F800000684749086045480068464908603B4882
:101F9000006842490860384800684749086031BD18
:101FA00080B546480078002803D1012043490870D5
:101FB00002E00020414908704048007800281BD00A
:101FC0000020FEF73EFBFDF7AFFF3D4908602320F0
:101FD000FDF7BDFD012804D1394800682349086098
:101FE00006E0374801683748FEF752F81F49086095
:101FF0000120FEF72EFB1AE00120FEF722FBFDF781
:1020000093FF314908602120FDF7A1FD012807D188
:102010002D4801682B48FEF73BF81749086003E09C
:1020200029480068144908600020FEF712FB0F4899
:1020300000682649FEF718F814D80F4800682349AD
:10204000FEF712F80ED8094800682149FDF724FF71
:1020500008D2094800681E49FDF71EFF02D2012080
:102060001C49087001BD0000682D0020A82D00202B
:10207000782D00206C2D0020AC2D0020842D002018
:102080007C2D0020142C0020982D0020702D002085
:10209000802D0020742D0020902D0020882D002000
:1020A0009C2D00208C2D0020942D00200C2C002035
:1020B000102C0020B02D0020B42D0020BE2D0020BB
:1020C000A02D0020000080BFA42D00200100164399
:1020D000000016C3BD2D002000000000000000001D
:1020E000002F000000000700070000147F147F1479
:1020F00000242A7F2A1200626408132300364955FF
:10210000225000000503000000001C2241000000D6
:1021100041221C000014083E08140008083E08086C
:10212000000000A0600000080808080800006060C7
:102130000000002010080402003E5149453E000006
:10214000427F4000004261514946002141454B31E8
:10215000001814127F10002745454539003C4A49B4
:102160004930000171090503003649494936000626
:102170004949291E0000363600000000563600008E
:102180000008142241000014141414140000412209
:10219000140800020151090600324959513E007CE1
:1021A0001211127C007F49494936003E41414122CB
:1021B000007F4141221C007F49494941007F0909B4
:1021C0000901003E4149497A007F0808087F000064
:1021D000417F4100002040413F01007F081422411F
:1021E000007F40404040007F020C027F007F0408D7
:1021F000107F003E4141413E007F09090906003E33
:102200004151215E007F091929460046494949315B
:102210000001017F0101003F4040403F001F20407E
:10222000201F003F4038403F00631408146300073C
:102230000870080700615149454300007F41410093
:1022400000552A552A55000041417F000004020133
:102250000204004040404040000001020400002011
:1022600054545478007F484444380038444444204F
:1022700000384444487F00385454541800087E09FC
:1022800001020018A4A4A47C007F080404780000C4
:10229000447D4000004080847D00007F1028440081
:1022A0000000417F4000007C04180478007C080492
:1022B000047800384444443800FC242424180018CE
:1022C000242418FC007C08040408004854545420BA
:1022D00000043F444020003C4040207C001C204043
:1022E000201C003C4030403C004428102844001C86
:1022F000A0A0A07C004464544C441414141414147E
:1023000080B5484800684849086000200BE047490C
:1023100040B20422424389184968444A40B2042327
:102320004343D150401C40B23128F0DB3C480068A8
:102330003F49086000203B49086000203D49086093
:1023400000203D490860002217E0384852B20421BD
:10235000514340583949FDF787FE0DD8334852B2F2
:102360000421514340583649FDF796FD04D23148C7
:102370000068401C2F490860521C52B2322A2FDAE2
:102380002A4852B20421514340582E49FDF76CFEB1
:102390000ED8264852B20421514340582749FDF730
:1023A0007BFD05D21F480068401C1E490860E3E71A
:1023B0001E4852B20421514340582349FDF754FEB0
:1023C000C3D81A4852B20421514340581D49FDF761
:1023D00063FDBAD218480068401C17490860CBE773
:1023E00000201A4908600020194908600020194996
:1023F00008600C4800682D2802DB012013490860A2
:102400000C480068052802DB0120114908600A48D1
:102410000068052802DB01200E49086001BD0000AC
:102420003C2D00204C2D0020502D0020202C002081
:10243000E42C0020542D0020582D00200000A04145
:1024400001009643FFFF9FC1000096C35C2D002052
:10245000602D0020642D002000B5C0B2002803D0FC
:1024600002281ED00ED32AE0494800688021490383
:102470000143474801604748006880218843454937
:1024800008601CE0424800688021890301434048FD
:102490000160414800688021490101433E480160D4
:1024A0000DE03B4800688021C903014338480160C2
:1024B000394800683949014037480160FFE700BDED
:1024C00038B504000D002000C0B2FFF7C5FF344846
:1024D000E4B2042161434058C078F3210140304800
:1024E000E4B2042262438058C1702D48E4B2042152
:1024F0006143405880782A49E4B2042262438958F3
:10250000887028480068FA218900484300900098A4
:1025100010214D432900FDF768FC0100491C2048AB
:10252000E4B20422624380580078E02202401C4852
:10253000E4B204236343C05802701948E4B2042291
:102540006243805800780A00120AD206D20E024373
:102550001348E4B204236343C05802700800104AD1
:10256000E4B204236343D25850700D48E4B204220D
:1025700062438058C0780C2202430948E4B2042325
:102580005C430059C27000980009FDF72EFC32BD73
:10259000148004400C80044010800440FFDFFFFFE3
:1025A000D02B00200C2D002080B5454801684548FF
:1025B0000068FDF7C8FC4449086044480168444885
:1025C0000068FDF7C0FC43490860434800683E4985
:1025D0000968FDF761FC03D23F4800683A4908608A
:1025E0003D4800683B490968FDF756FC03D23A486C
:1025F0000068384908603448006838490968FDF7C0
:102600004BFC03D2354800682F4908603148006808
:1026100032490968FDF740FC03D2304800682D4973
:102620000860294800680021FDF71EFD08D201213D
:102630002A20FDF7A6FA00211A20FDF7A2FA0EE0E3
:10264000214800688021090648401F490860002190
:102650002A20FDF796FA01211A20FDF792FA1D486B
:1026600000680021FDF700FD08D201212420FDF7BC
:1026700088FA00211B20FDF784FA0EE01548006857
:102680008021090648401349086000212420FDF7F5
:1026900078FA01211B20FDF774FA0B480068FDF75A
:1026A00023FC020001210220FDF718FF0948006801
:1026B000FDF71AFC020000210220FDF70FFF01BD0B
:1026C000302D0020902D0020442D0020342D00209E
:1026D000942D0020482D0020002C0020042C0020E8
:1026E0000121C006C00E81403348016070470121BE
:1026F000C006C00E814031480160704730B505000A
:10270000002089B20C002E480068FA218900FDF7EC
:102710006CFB21004843401E2A49096802220A43F3
:1027200028490A602849096802229143264A116013
:102730002549096801220A4323490A602349EDB269
:1027400010226A4388502248006801210143204832
:1027500001601E48EDB210216943401880680121D4
:1027600088431A49EDB210226A4389188860012013
:102770001649EDB2102255434919886030BD80B525
:1027800013480068012101431148016011480068A5
:10279000022101430F4801601620FFF7A1FF01BD90
:1027A00080B50C480068022188430A490860162059
:1027B000FFF79DFF01BD000000E100E080E100E0C7
:1027C0000C2D002014800440007003400071034071
:1027D0000C7103400871034080B5012201213020B3
:1027E000FDF736F9012201213120FDF731F90122EF
:1027F00001213220FDF72CF9012201213320FDF7C0
:1028000027F9002201211820FDF722F900220121D9
:102810001B20FDF71DF9002201212420FDF718F9E6
:10282000002201212A20FDF713F9002201211A209C
:10283000FDF70EF9002200212320FDF709F90022FF
:1028400000212120FDF704F901BD80B51248007870
:10285000002802D0012801D01CE01BE000212A2022
:10286000FDF78FF900211A20FDF78BF900212420B4
:10287000FDF787F900211B20FDF783F901211820BE
:10288000FDF77FF9FFF78CFF002004490870FCF783
:1028900021FEFFE701BD0000BD2D00201C2C002003
:1028A00080B5FDF789FC72B600F056F8E1214902C7
:1028B0000220FFF705FE00230A2200210220FDF777
:1028C00070FD00230A2201210220FDF76AFD00208D
:1028D000FDF78FFE0120FDF78CFEFCF74FFCFFF7A4
:1028E000CBF9FFF779FF19490020FFF707FFFFF742
:1028F0004BF8FFF744FF62B6FFF798F8FFF7A5FF24
:10290000FAE780B5124800680121014310480160D0
:1029100010480088401C0F4908800E480088642831
:1029200005DB00200B4908803020FDF753F9FFF745
:10293000E7FCFFF735FBFEF7D5F8FEF777F9FFF771
:102940005FFAFFF731FEFFF73AF801BDA86100001A
:102950000C710340BA2D00200948006880218905C8
:1029600001430748016007480068002005490860E6
:1029700030200549086000200449086070470000C5
:102980001480044018B0034008B0034004B0034072
:102990001348144908800120134908702320134963
:1029A0000870704780B5FFF7F3FF8020400410499E
:1029B000086010200F49087096200F4908701A20EF
:1029C0000E4908700E480078C006FBD40C48007809
:1029D0004006FBD50A4800780C210842FAD101BD17
:1029E00003E80000042005400120054000200540C8
:1029F000248004400140064000500640004006404C
:102A00000440064010B5074979441831064C7C440F
:102A1000163404E0081D0A68891888470100A1429D
:102A2000F8D110BD500000005C000000C1C5C3FF1C
:102A3000C1C1C181C5E3D3D3CFC1C3DBDBDBDBFFC6
:102A4000FFB1A9A5A3FFA1A1FFFDB991000000005E
:102A50000200000004000000080000001000000058
:102A60002000000040000000800000000001000085
:102A7000000200004BD4FFFFA0010000202C00202A
:102A80000000000000F00BF8002801D0FFF7BAFFAB
:102A90000020C046C046FFF703FF00F002F8012007
:102AA000704780B500F002F801BDFEE707463846E2
:102AB00000F002F8FBE7FEE780B5C046C046024AD8
:102AC00011001820ABBEFBE7260002000100020047
:102AD00004000800100020004000800000010002F7
:102AE000000400000148804701480047A529002054
:102AF0000D2B0020008003400090034000A0034005
:102B0000000000F8400000F8800000F8C046C04611
:102B1000C046C046FFF7B6FF43686162693A0000ED
:102B20000102030405060708436842693A000000F1
:102B3000416E676C3A000000535F4C3A00000000A1
:102B4000535F523A00000000FEE7FEE7FEE7FEE7B3
:102B5000FEE7FEE7FEE7FEE7FEE7FEE7FEE7FEE74D
:102B6000FEE7FEE7FEE7FEE7FEE7FEE7FEE7FEE73D
:102B7000FEE7FEE7FEE7FEE7FEE7FEE7FEE7000012
:102B800000A0064000B0064000C0064000600740BC
:102B9000007007400060074000700740000080415F
:102BA00000009041000000400000964300A00C4649
:102BB0000060EA450060EAC50000F0410020CB4516
:102BC00000401C4500002042000000000100000001
:0400000520002B0D9F
:00000001FF
