:1000000070F2FF1FD5400000B71B0000931C0000DA
:1000100000000000000000000000000000000000E0
:100020000000000000000000000000007B25000030
:1000300000000000000000009B400000A7400000FE
:10004000114100001341000015410000174100005C
:10005000194100001B4100001D4100001F4100002C
:1000600021410000234100002541000027410000FC
:10007000294100002B4100002D4100002F410000CC
:10008000314100003341000035410000374100009C
:10009000394100003B410000233900003D41000090
:1000A0003F41000041410000434100004541000044
:1000B00047410000494100004B4100004D41000014
:1000C000FFFFFFFFFFFFFFFFFFFFFFFFFEFFFFFF41
:1000D0000000803F00000000000000000000803FA2
:1000E00000A0064000B0064000C006400060064088
:1000F0000070064000600740007007400060074045
:10010000007007406F12033C52499D39000070C2D5
:10011000527897440000B84200C00F450000A0414B
:100120000100000000A00C46A4060000D00700005B
:1001300000004040000070410000803F00C0DA45F0
:0C01400000007041000000000100000001
:1004100080B500220021412000F0F2FA00220021E4
:100420003E2000F0EDFA0321022000F0CFFB002275
:100430000021192000F0E4FA002200213D2000F004
:10044000DFFA00220021442000F0DAFA0022002125
:100450002B2000F0D5FA00220021382000F0D0FA3D
:1004600000220021392000F0CBFA00220021402098
:1004700000F0C6FA01BD10B50024412000F03FFB9A
:10048000012816D00A2000F0BAFD412000F037FB09
:1004900001287DD00121182000F04BFB01244120D0
:1004A00000F02DFB0128FAD10021182000F041FBBB
:1004B0006EE03E2000F023FB012816D00A2000F059
:1004C0009EFD3E2000F01BFB012861D00121182079
:1004D00000F02FFB02243E2000F011FB0128FAD18E
:1004E0000021182000F025FB52E0192000F007FB46
:1004F000012816D00A2000F082FD192000F0FFFA32
:10050000012845D00121182000F013FB03241920F5
:1005100000F0F5FA0128FAD10021182000F009FBBB
:1005200036E03D2000F0EBFA012816D00A2000F05A
:1005300066FD3D2000F0E3FA012829D001211820B2
:1005400000F0F7FA04243D2000F0D9FA0128FAD18E
:100550000021182000F0EDFA1AE0442000F0CFFA54
:10056000012815D00A2000F04AFD442000F0C7FA07
:1005700001280DD00121182000F0DBFA05244420C9
:1005800000F0BDFA0128FAD10021182000F0D1FABC
:100590002000C0B210BD000080B5FFF76CFF01283D
:1005A0000BD000D2A0E1032800D1B9E05FD3052829
:1005B00000D16DE100D211E196E1B9480078002840
:1005C00003D10120B649087002E00020B449087048
:1005D000B4480078022809D048D3042816D00DD397
:1005E000062829D01FD3072833D03FE0B44801683C
:1005F000B44800F01BFDB249086037E0BE4801680E
:10060000BE4800F013FDBC4908602FE0B748006801
:1006100000F09CFDB6A20CCA00F0B1FD00F089FE0E
:10062000B249086022E0BF480168FE20800500F062
:10063000FDFCBC49086019E0B948006800F086FD7F
:10064000B5A20CCA00F09BFD00F073FEB44908602F
:100650000CE0B048006800F079FDAFA20CCA00F0D1
:100660008EFD00F066FEAB490860FFE73CE18C4878
:100670000078002803D101208949087002E0002099
:100680008749087087480078022809D047D3042892
:1006900016D00DD3062828D01FD3072832D03EE02D
:1006A00087480168964800F0C1FC8549086036E03B
:1006B00091480168964800F0B9FC8F4908602EE027
:1006C0008A48006800F042FD8FA20CCA00F057FD76
:1006D00000F02FFE8549086021E0924801688948B2
:1006E00000F0A4FC8F49086019E08D48006800F014
:1006F0002DFD7FA20CCA00F042FD00F01AFE8849D1
:1007000008600CE08348006800F020FD78A20CCA65
:1007100000F035FD00F00DFE7E490860FFE7E3E0E4
:100720005F480078002803D101205D49087002E08D
:1007300000205B4908705B480078022809D04CD340
:10074000042816D00DD306282DD01FD3072837D064
:1007500043E05B480168694800F068FC584908605C
:100760003BE065480168974800F060FC624908601A
:1007700033E05E48006800F0E9FC93A20CCA00F088
:10078000FEFC00F0D6FD5949086026E06548006887
:1007900000F0DCFC8CA20CCA00F0F1FC00F0C9FDFA
:1007A0006049086019E05E48006800F0CFFC56A27E
:1007B0000CCA00F0E4FC00F0BCFD594908600CE0F4
:1007C0005448006800F0C2FC4FA20CCA00F0D7FCED
:1007D00000F0AFFD4F490860FFE785E03048007842
:1007E000002803D101202E49087002E000202C4986
:1007F00008702C480078022809D048D3042816D065
:100800000DD3062829D01BD3072833D03FE02C482E
:1008100001683F4800F00AFC2949086037E0364883
:1008200001686B4800F002FC334908602FE02F4854
:100830000168FE20800500F0F9FB2C49086026E0E5
:100840003848006800F082FC62A20CCA00F097FCF5
:1008500000F06FFD3349086019E03148006800F08E
:1008600075FC59A20CCA00F08AFC00F062FD2C490C
:1008700008600CE02748006800F068FC52A20CCA2F
:1008800000F07DFC00F055FD22490860FFE72BE0F9
:1008900003480078002807D101200149087006E0CC
:1008A00061F1FF1F78F0FF1F00204C4908704C4891
:1008B0000078002808D101204949087007E000BFEE
:1008C00048F0FF1F00007A440020454908704B485B
:1008D0000078401C4949087048480078082802DB25
:1008E000022046490870FFE701BD00BF34F0FF1F3A
:1008F000FCA9F1D24D62503F4CF0FF1F0000C842EE
:1009000000007AC4000080BF7B14AE47E17A843FC8
:100910000000C8C28CF0FF1F2D431CEBE2361A3FCB
:1009200038F0FF1F44F0FF1F80B5344800780128DD
:100930000AD03DD3032813D007D3052820D017D3DE
:1009400007282DD024D333E032E02648006800F099
:1009500021FD020092B20621052000F085FE27E06D
:100960000123214802680721052000F0B3FE1FE0A3
:1009700005231E4802680621322000F0ABFE17E076
:1009800001231B4802680721322000F0A3FE0FE07C
:100990000523184802680121052000F09BFE07E0AE
:1009A0000523154802680221052000F093FEFFE7A9
:1009B00012480078421E92B205210A2000F054FE2F
:1009C00001BD0000000020419A9999999999B93F79
:1009D000000020C19A9999999999B9BF61F1FF1FB7
:1009E00060F1FF1F48F0FF1F4CF0FF1F34F0FF1FA6
:1009F00044F0FF1F38F0FF1F8CF0FF1F78F0FF1F3F
:100A000018B50300DBB25B096C462370C006C00E4C
:100A10006B465870D2B2002A00D00122C9B2002918
:100A200028D1684600786849C0B20422504308586B
:100A3000806901216A4652789140884362496A463A
:100A4000127804235A4389588861684600785E49C1
:100A5000C0B2042250430858406901216A465278C6
:100A60009140884358496A46127804235A4389586A
:100A7000486143E0684600785349C0B204235843B4
:100A80000858806903000120694649788840184366
:100A90004D496B461B7804246343C95888616846F6
:100AA00000784949C0B204235843085840690300FC
:100AB0000120694649788840184343496B461B78B2
:100AC00004246343C9584861684600783E49C0B26F
:100AD000042358430858006801216B465B7899400D
:100AE0008843D2B2694649788A40024310003649A9
:100AF0006A46127804235A438958086011BD81B0B0
:100B00000100C9B249096A465170C006C00E694663
:100B10000870684640782C49C0B2042250430858F7
:100B2000016968460078C1400800C007C00F01B0E5
:100B3000704780B50200D2B252096B465A70C006A7
:100B4000C00E6A461070C9B2002900D00121684663
:100B500040781D4AC0B2042358431058006801224F
:100B60006B461B789A409043C9B26A46127891400E
:100B70000143080014496A46527804235A438958AD
:100B8000086001BD81B00100C9B249096A4611700F
:100B9000C006C00E69464870684600780A49C0B26F
:100BA000042250430858C068020001206946497871
:100BB0008840104304496A46127804235A438958EE
:100BC000C86001B070470000F040000000B5C0B23E
:100BD000002803D0022838D01BD387E0AC48006837
:100BE00020220243AA480260C9B2002902D001298A
:100BF00007D00DE0A7480068A7490140A54801605B
:100C000006E0A4480068A5490140A2480160FFE74A
:100C10006CE09F480068402202439D480260C9B2D0
:100C2000002902D0012908D00EE09A4800688021EE
:100C3000C90001439748016006E09648006898495A
:100C4000014094480160FFE750E09148006880222D
:100C500002438F480260C9B2002908D0022920D07F
:100C600012D3042933D027D3052937D03DE0D0480B
:100C7000006803218843CE490860CD4800680221FE
:100C80000143CB48016030E0C94800680C2188432B
:100C9000C7490860C648006808210143C44801608C
:100CA00023E0C348006830218843C1490860C04838
:100CB0000068BF49086018E0BD480068C02188434B
:100CC000BB490860BA480068B94908600DE0B848F7
:100CD000006871490140B648016006E0B448006808
:100CE0006E490140B2480160FFE7FFE700BDF4B57F
:100CF00005000F001C003900C9B22800C0B2FFF780
:100D000065FFAC480068FA2189004843012100F0E2
:100D100086FD69460978FA229200514300F07FFD72
:100D2000A5490880A4480088401EA3490880EDB268
:100D3000002D03D0022D17D00BD320E09E48008851
:100D4000401C44432000FA21490100F068FD0600E0
:100D500015E099480088401C44432000FA214901CD
:100D600000F05DFD06000AE093480088401C444303
:100D70002000FA21490100F052FD0600FFE78E48ED
:100D800000888E49EDB204226A43895888608B48F6
:100D9000EDB2042169434058FFB20821794340185D
:100DA0008649EDB204226A438958FFB208227A4389
:100DB0008918C96804229143C1608048EDB20421BA
:100DC00069434058FFB20821794340187B49EDB28E
:100DD00004226A438958FFB208227A438918C968F5
:100DE00028220A43C26008207449EDB204226A43F3
:100DF0008958086000207149EDB204226A4389587D
:100E0000C8646E48EDB2042169434058FFB208211E
:100E10004F43C019B6B2066100206849EDB2042202
:100E2000554349594860F1BD30B504000D00E4B2A6
:100E3000002C03D0022C15D00AD31DE05E48008898
:100E4000401C42431000FA21490100F0E8FC13E085
:100E500059480088401C42431000FA21490100F023
:100E6000DEFC09E054480088401C42431000FA218F
:100E7000490100F0D4FCFFE75049E4B20422544396
:100E80000959EDB208225543491980B2086130BDB5
:100E9000148004400C800440FFFEFFFFFFFDFFFFB5
:100EA000FFF7FFFF80B5C0B2002803D002282FD083
:100EB00017D343E0424800682021014340480160C5
:100EC00040480068404901403E480160272000F04A
:100ED000FDFC3C48006880218904014339480160D9
:100EE0002CE037480068402101433548016035480F
:100EF00000683649014033480160202000F0E6FCDC
:100F0000304800688021C90401432E48016015E083
:100F10002B48006880210143294801602948006866
:100F20002B4901402748016000202A49086005201C
:100F300000F0CCFC234800682249086001BD10B5D0
:100F400004002000C0B2FFF7ADFF1C48E4B204214A
:100F50006143405800681949E4B204226243895849
:100F600008601648E4B20421614340580068182123
:100F700001431248E4B20422624380580160002019
:100F80000E49E4B2042254430959486010BD0B498C
:100F9000C0B2042250430858406880B27047002114
:100FA000064AC0B2042358431058416070470000FD
:100FB00010800440E0F0FF1F58F1FF1FE4400000E4
:100FC000148004400C800440FFFFFFFCFFFFFFF390
:100FD000FFFFFFCF4CA0034000B500280ED000213A
:100FE0000E4A11600E49086000200E490860052075
:100FF0000A49086009480068C003FBD500BD10B568
:10100000040000F08FFC03E007480068FFF7E4FFEE
:101010002000441E0028F7D110BD000010E000E0C1
:1010200014E000E018E000E0E4F0FF1F0122D20726
:1010300003004B402ED4431A01D2C01AC91830B451
:101040004B180418240E1B0E22D0FF2C20D0E31ABC
:10105000182B1DDC09021143C40D641E000210434D
:1010600094461925ED1A0A00AA40D940451801D323
:101070006D08A41CE405D209280A2D062A436546FA
:10108000AA41604103181B0EFF2B01D3C00DC00500
:1010900030BC7047514006E05140CCE70122D207F6
:1010A00003004B40F8D4431A03D2C01AC918504069
:1010B000514030B44B18090211430418240E1B0E82
:1010C00040D0FF2C3AD025009D410BD31ED8C50D32
:1010D0004002401A0BD3ED050100400AC9059141B9
:1010E0006841D5E7C50D40024918401AD0D001210A
:1010F0004008491C0018FCD58C4204D36D1A000A24
:10110000ED054019C4E7E8051040C1E7182DBFDC24
:10111000AC1C0D00E140E5414D40012D4941C40D9D
:1011200000021043451A01D46D199543641EE4056D
:10113000280A2D069541604130BC7047FF2BA7D18E
:10114000D843A5E72442A3D10020A1E7012212063B
:101150000118CA420AD28A420DD838221206090959
:101160008918C20FD20711434007704700D04908C1
:101170000909014301E0C10FC90700207047F0B41D
:101180000125ED070F005F404FD48B4200D1824212
:1011900005D98446100062468C4619006346DF1864
:1011A0004C18640D7F0D3AD0661C760537D0E61BCF
:1011B000352E34DCDB022B43DB0A0C0DC90229433C
:1011C000C912202E0DDB1700203E06D01F00F7416C
:1011D000F3405F400026012A7741C01871410DD2CB
:1011E00017E01700F741F2405740F3415A40B3402F
:1011F000F3405A400026801859410AD3A21C5205D8
:101200000FD0C207012F724117004008CB071843C7
:101210004908641C24054208AF4170416141F0BC9B
:101220007047641C21050020F9E76B4010E06B401B
:10123000ABE7F742F3D1E943F1E72442EFD10020D5
:101240000021ECE7F0B40125ED070F005F40EED47C
:101250000C00871A9C4105D2C01BA141D2196341E1
:1012600069406B40AE0ADF184C18F442E1D2640DBD
:101270007F0DE2D0E61B362ED1DCDB022B43DB0AEE
:10128000A4460C0DC9022943C90A012E28DC04D149
:10129000D6075208DF073A435B08EF0A76429041CF
:1012A000994114D039423BD1B61940414941761C8D
:1012B000394204D1761C001849413942FAD0B94369
:1012C0006746B74208D9A41B24052143A7E700427B
:1012D000EAD13642E8D1A2E7E40AE10700209EE71E
:1012E000202E0BDD203E1F00F340F7415F40012A16
:1012F000002257417E42984191410BE01700F7418F
:10130000F2405740F3415A40B340F3405A407E42C6
:10131000904199410A0303D2641EB61940414941E4
:101320000027641E24054208AE4178416141F0BCAB
:101330007047012252054B18DA4201D958157047FF
:101340005B0D0722D2019B1A10D9FF2B1DD2DB05A2
:101350000122D2070A4013430903020D1143490A2F
:10136000C200524100D9491CC81870470AD1800AEE
:101370000A0302435212921C04D9D3070B40D00532
:1013800018437047C80FC0077047C80F0002FF30EE
:10139000C00570470122D2070118090E7F3910D409
:1013A00049421F310FD4001805D2C0011043C84074
:1013B00000D5D0437047C0011043C84005D4404217
:1013C0007047002070470042F3D51000704730B4DA
:1013D000012100220368001D002B0BD00468001DB2
:1013E0000C4202D04D466D1E64192260241D1B1F45
:1013F000F0D0FAE730BC704710B504000021462059
:10140000FFF797FB78484068C0788006FAD57648A1
:101410004068447101214620FFF78BFB10BD10B5D9
:10142000040001214620FFF784FB6F484068C07824
:101430008006FAD56C484068447100214620FFF7C9
:1014400078FB10BD38B5002407E00020FFF7E7FF68
:101450006D1CEDB2802DF8DB641CE4B2082C0CDAB4
:1014600020005038C0B2FFF7C7FF0220FFF7C4FFCB
:101470001020FFF7C1FF0025EBE731BD10B50400D8
:101480000800A41C5038C0B2FFF7B6FF2100C9B253
:10149000090910200843C0B2FFF7AEFF2007000F74
:1014A000FFF7AAFF10BD80B5504B0022012101209B
:1014B00000F09AFA012201214620FFF7A1FA012249
:1014C00001214520FFF79CFA00214520FFF731FB61
:1014D0003220FFF794FD01214520FFF72AFBAE20C3
:1014E000FFF78AFF0020FFF787FF1020FFF784FF38
:1014F0004020FFF781FF8120FFF77EFFCF20FFF71D
:101500007BFFA120FFF778FFC820FFF775FFA6201B
:10151000FFF772FFA820FFF76FFF3F20FFF76CFF78
:10152000D320FFF769FF0020FFF766FFD520FFF704
:1015300063FF8020FFF760FFD920FFF75DFFF120F8
:10154000FFF75AFFDA20FFF757FF1220FFF754FF8B
:10155000DB20FFF751FF4020FFF74EFF2020FFF771
:101560004BFF0220FFF748FF8D20FFF745FF1420B7
:10157000FFF742FFA420FFF73FFFA620FFF73CFF45
:10158000AF20FFF739FFFFF75DFF00210020FFF7D5
:1015900075FF01BDF7B504000027002600250EE009
:1015A0002248FFB2062179434018F6B2805DFFF76A
:1015B00036FF761CF6B2062EF2DBA41D6D1C0298D7
:1015C000EDB2405D00280BD00298EDB2475D203FA0
:1015D000684601792000C0B2FFF750FF0026E9E716
:1015E0002000C0B2FEBD000024F0FF1F002D31011D
:1015F00038B5002513E02100C9B22800C0B2FFF7BA
:101600003DFF7348EDB2082169434018E4B2005D24
:10161000FFF705FF641CE4B2082CECDB6D1CEDB297
:10162000802D01DA0024F6E731BD0000E835000026
:10163000F0B504000D0006260020F6B2A8550FE014
:10164000761EA4B220000A2100F0E6F80F00A4B232
:1016500020000A2100F0E0F804003037F6B2AF5560
:10166000F6B2002EECD1F0BD30B585B004000D000F
:101670001000002180B2002806D130206946087091
:1016800000206946487019E002A980B2FFF7D0FF38
:1016900002A8401C00E0401C01783029FBD000214A
:1016A00005E002786B46C9B25A54401C491C0278C6
:1016B000002AF6D100206A46C9B250546A46290071
:1016C000C9B22000C0B2FFF765FF04002000C0B21D
:1016D00005B030BDFBB50400150000262800002130
:1016E00000F026FA0AD280200006454039A268465A
:1016F00001792000C0B2FFF74DFFA41D280000F0C3
:101700002BFA0600300000F047FA01002800FFF72E
:10171000C5FC07002800304900F04EFA0CD8300014
:101720002E4900F07CF8020092B268460179200050
:10173000C0B2FFF799FF04003000284900F06FF8AD
:101740000A0092B2684601792000C0B2FFF78CFF10
:10175000040023A2684601792000C0B2FFF71AFFF7
:10176000A41D17E01F48EDB2062169434018F6B2E8
:10177000805DFFF754FE761CF6B2062EF2DBA41D48
:10178000EDB2103D280000F0FBF901003800FFF732
:1017900085FC07006846007A002816D0684669462E
:1017A000097A491E01721048390000F019FA070041
:1017B0003800FFF7EFFD050010356846017920007D
:1017C000C0B2FFF75BFE0026D6E7F7BD00000000C1
:1017D000682E00002D000000013C1C461027000070
:1017E0002E000000E835000000002041F4460028EB
:1017F00004D4494200F013F84042604740420029B7
:1018000005D45FD000F00BF840424942604749429E
:1018100000F005F84942604703460B43E6D4002236
:10182000030A8B420BD203098B4219D243088B4225
:101830002ED2411A00D20146524110467047FF2273
:1018400009023FD012068B4205D3121209028B42C5
:1018500001D31212090203098B4219D300E0090ACD
:10186000C3098B4201D3CB01C01A524183098B4279
:1018700001D38B01C01A524143098B4201D34B0162
:10188000C01A524103098B4201D30B01C01A5241C5
:10189000C3088B4201D3CB00C01A524183088B424C
:1018A00001D38B00C01A524143088B4201D34B0035
:1018B000C01A5241884200D3401A5241CFD2014649
:1018C0001046704708B500F0E3F908BD00B5010007
:1018D000C9B24909C006C00EC9B2002903D0022905
:1018E00011D008D316E00C490968012282400A434E
:1018F000094802600EE009490968012282400A4352
:101900000648026006E006490968012282400A434F
:101910000348026000BD00BF089004400C900440E2
:101920001090044000B587B068462649182200F0A0
:10193000B1F9254825490860244800686946244AC9
:101940001278D2B2D2085207520F02235A43891892
:101950004989FFF764FF1D4908601C480068694613
:101960001C4A1278D2B2520902235A43895AFFF70D
:1019700056FF164908601548006817490968090F9D
:101980008907890F491CFFF74AFF1449086013486B
:10199000006811490A681100C901C90F491CFFF705
:1019A0003EFF0F490860094800680B490A681100AA
:1019B000C902C90F491CFFF732FF0A49086007B086
:1019C00000BD0000BC40000000803801DCF0FF1FBB
:1019D000004006400140064024800440E4F0FF1F20
:1019E000E8F0FF1FE0F0FF1FFAB58DB0070014000C
:1019F00003A84849242200F04DF901A846490CC922
:101A00000CC008390838FFB2002F0DD143480068D8
:101A10008021C902014341480160414800684021DA
:101A200088433F4908600DE03C4800688021090375
:101A300001433A4801603B480068802109010143A5
:101A400038480160E4B2002C4ED10025ED43002659
:101A500021E0641CE4B2082C1CDA33480068FA2147
:101A60008900484301A9E4B2095D03AAF6B2042340
:101A70007343D2585143FFF7D2FE0E99401A00F03B
:101A800023F9A842E5D269464C7069460E700500FC
:101A9000002DDED1761CF6B2092E01DA0024D9E73A
:101AA0000DA8007840005C2101432048FFB20422C9
:101AB0007A43805801700DA8007800011B49FFB2DD
:101AC00004227A4389584870684600780007000F5E
:101AD00069464978090170220A4002431348FFB25F
:101AE00004214F43C05982700F480068FA218900D1
:101AF000484301A96A465278895CFFF790FE03A922
:101B00006A46127804235A438958FFF788FE0FB0BB
:101B1000F0BD00002C40000008410000148004408B
:101B20000C80044010800440E8F0FF1F2CF0FF1FE1
:101B30000CB4012212060318DA4207D84B18DA4215
:101B400004D802000A43921802D288420CBC7047A3
:101B5000FCD08142FAE703FC00180ED2010E7F3957
:101B60000BD449421F3105D4C0010122D2071043D2
:101B7000C84070470020401E704700207047FC039B
:101B80009D2102000AD5F446524200F007F80122D6
:101B9000D2071043604700009D2102000AD002D402
:101BA000491E9218FCD5C905100A1206524100D3ED
:101BB000012A48417047FEE70CB4012212060318BF
:101BC000DA4207D84B18DA4204D802000A439218C6
:101BD00002D281420CBC7047FCD088420CBC7047DA
:101BE00030B405004D400122D20715404B180418AF
:101BF000240E2ED01B0E32D0FF2C34D0FF2B3AD027
:101C0000E4180002090210431143000A090A94462D
:101C1000C2B24A43000AC3B24B43000A4843110A06
:101C20005B181A43D2B2190A091801D44918641E64
:101C3000080A7F3C23DBFE2C08DAE4050906114381
:101C4000634699416041284330BC7047FF20C0057E
:101C5000F9E728001B0EFF2BF6D1D043F4E728004C
:101C6000FF2CF1D1F9E74002F7D1FF2B01D1490256
:101C7000F3D1E005E7E7D8054902E4D0EDE74302F8
:101C80000020641CDFD15B129B1CDCD9D805DAE78D
:101C90007047FEE770B4103A03D378C9103A78C0A1
:101CA000FBD2530701D318C918C001D508C908C011
:101CB000D20704D30B880380891C801C002A01D51D
:101CC0000B78037070BC7047002800D54042704705
:101CD00038B500F044FAD5480021405EFFF750FFC8
:101CE000D3490968FFF7DAF9FFF730FAD1A20CCA35
:101CF00000F09CFAFFF71DFBC94908600A22022187
:101D0000092000F01EFCFFF747FFCD490860CB48D3
:101D10000068CB490968FFF7C1F9FFF717FAC9A2B4
:101D20000CCA00F083FAFFF704FBBF490860BE4805
:101D30000068C649FFF740FF04D8FE208005BA4975
:101D4000086008E0B8480068B649FFF7F1FE02D223
:101D5000B448B5490860B4480068FFF7F7F900F0E7
:101D60000DFC0022A74B00F061FAA7A20CCA00F0FC
:101D700077FCFFF7DEFAA9490860CB480068FFF757
:101D8000E5F904000D00A6480068C8490968FFF796
:101D900085F9FFF7DBF99FA20CCA00F047FA220091
:101DA0002B00FFF7ECF9FFF7C4FABF490860984829
:101DB0000068FFF7CBF904000D0099480068FFF7B1
:101DC000C5F994A20CCA00F031FA22002B00FFF7EB
:101DD000D6F9FFF7AEFA8E490860B5480068FFF7FC
:101DE000B5F904000D008E480068B0490968FFF796
:101DF00055F9FFF7ABF987A20CCA00F017FA2200D9
:101E00002B00FFF7BCF9FFF794FAA9490860A9482D
:101E10000068A9494968FFF741F9A7498968FFF7B0
:101E20003DF9A6490860A448C068802109064840D9
:101E3000A2494860A048C0688021090648409F49DF
:101E400088609F4800689D49C8609B480068FFF70C
:101E50007DF904000D0099480068FFF777F96DA23D
:101E60000CCA00F0E3F922002B00FFF788F9FFF716
:101E700060FA9149086090484068FFF767F90400EC
:101E80000D008E484068FFF761F962A20CCA00F0AD
:101E9000CDF922002B00FFF772F9FFF74AFA8649C5
:101EA000486085488068FFF751F904000D008348B9
:101EB0008068FFF74BF957A20CCA00F0B7F922006F
:101EC0002B00FFF75CF9FFF734FA7B4988607A480A
:101ED000C068FFF73BF904000D007848C068FFF7C1
:101EE00035F94CA20CCA00F0A1F922002B00FFF733
:101EF00046F9FFF71EFA7049C860724801686E48DB
:101F00000068FFF793F8704908606B4800686E49F5
:101F1000096800F006FC6D490860674880686A49F6
:101F2000096800F0FEFB6A49086063480068694977
:101F3000086061484068684908606448016865480D
:101F40000068FFF74DFE01005B480068FFF7A6F848
:101F5000594908605D4801685F480068FFF740FE26
:101F6000010055484068FFF799F8534948605848C0
:101F7000016858480068FFF733FE01004E4880684A
:101F8000FFF78CF84C498860514801685248006856
:101F9000FFF726FE01004848C068FFF77FF8464972
:101FA000C8601E48006840490968FFF777F84B4948
:101FB00008604648016849480068FFF711FE3A4941
:101FC0000968FFF733F83849086041480168434819
:101FD0000068FFF705FE35490968FFF727F8334920
:101FE00008600F48006831490968FFF757F83C4915
:101FF0000860364800683B490860354800683A493F
:10200000086031BD0080664050455254FB210940B4
:10201000BCF0FF1F7B14AE47E17A743F98F0FF1FBE
:1020200090F0FF1F000080BF9CF0FF1F5AF1FF1FC0
:102030003CF0FF1F560E2DB29DEFA7BF40F0FF1FD3
:1020400094F0FF1F1E7186EAFF7F503F0100803F22
:1020500010B51548006825490968FFF71FF824499D
:1020600008601F4800682349FFF7A6FD08D81C48F0
:1020700000682149FFF75CFD02D200201849086082
:102080001E4801681A480068FFF7AAFD01000C000D
:102090001B48016812480068FFF7A2FD2100FEF707
:1020A000C5FF1849086010BDA0F0FF1FC0F0FF1F5A
:1020B000B8F0FF1F38F0FF1F00F0FF1F7CF0FF1F7C
:1020C0008CF0FF1F34F0FF1FD0F0FF1FC8F0FF1F80
:1020D000CCF0FF1FD4F0FF1FD8F0FF1FC4F0FF1F8C
:1020E000A4F0FF1FB0F0FF1FB4F0FF1F44F0FF1F6C
:1020F000ACF0FF1F999999BE9A99993E48F0FF1F3D
:102100004CF0FF1FA8F0FF1F80B54149012000F0EF
:10211000B1FBFB2320226921012000F0D1FC002328
:1021200021226921012000F0CBFC08232222692111
:10213000012000F0C5FC802323226921012000F04A
:10214000BFFC022324226921012000F0B9FC2622D1
:102150006921012000F021FC2E49087001BD10B555
:1021600027226921012000F018FC00064ED5292203
:102170006921012000F011FC0400282269210120BE
:1021800000F00BFCA4B22102C0B20818224908805A
:1021900021480021405E00B2C0101F4908802B2258
:1021A0006921012000F0F9FB04002A2269210120A5
:1021B00000F0F3FBA4B22102C0B20818174908804E
:1021C00016480021405E00B2C0101449088014482F
:1021D0000078401C12490870124800680F4900221C
:1021E000895E40180F4908600E4800680C4909785C
:1021F000FFF712FB0C490860094800780A2805D14E
:1022000000200749087000200649086010BD000042
:10221000801A060062F1FF1F5AF1FF1F5CF1FF1FD9
:1022200063F1FF1FF0F0FF1FECF0FF1FF0B50E0091
:102230005E400125ED072E40B446AE0ADF184C186B
:10224000F44208D2F7420ED2640D01D07F0D12D1B4
:1022500000206146F0BD05D1F74201D87F0D05D1C0
:102260000020C143F0BDFBD1640DF9D00020C14373
:10227000490549088FE0E419C902DB0229432B43D1
:10228000DB0A460DC00231438E4630B487B295B2A8
:102290007D432E0CADB2140C7C43A419260C2404EF
:1022A00025439CB27C43A419190C7943270CC91906
:1022B000A4B20F043C43090C000C97B247432E0C08
:1022C000BE193543ADB2170C4743360CBF19A6B241
:1022D000BF193E043543240C3E0C36199FB24743C8
:1022E000BF19BCB23E0C89191F0C47437F183E042E
:1022F0003443390C704680B297B247432E0CBE1956
:102300003543ADB2170C4743360CBF19A6B2BF19FF
:102310003E043543240C3E0C36199FB24743BF1987
:10232000BCB23E0C89191F0C47437F183E0434434E
:10233000390C77463F0C90B278432E0C8019060476
:10234000ADB22E43050CA0B22D18120C7A435019D1
:10235000020C80B2240CA4189AB27A431219140405
:102360002043120C89181B0C7B43C91830BCEF0AA0
:10237000394203D1B61940414941641E6F12BF0D65
:10238000E41B0BDBFF19BC4211DA240500274208CD
:10239000AE417841614166463143F0BD641C05D1D0
:1023A000401C6141CF0201D34908F4E750E75DE7E3
:1023B00000B501000020C9B200291ED001291ED09D
:1023C00006291ED007291ED008291ED009291ED093
:1023D0000A291ED00B291ED010291ED011291ED06B
:1023E00012291ED013291ED02C291ED02D291ED013
:1023F0002E291ED02F291ED01FE000201EE0012014
:102400001CE002201AE0032018E0042016E005205A
:1024100014E0062012E0072010E008200EE009205A
:102420000CE00A200AE00B2008E00C2006E00D205A
:1024300004E00E2002E00F2000E00020C0B200BD4A
:102440002248006880218905014320480160204816
:10245000006800201E49086030201E4908600020E6
:102460001D490860704780B50021C0B2FFF7A0FF8A
:1024700001001748006801228A40024314480260A4
:1024800001BD70B505000C0000262800C0B2FFF7A2
:102490008FFF06002800C0B2FFF7E5FF0D48006877
:1024A000E4B2A1000C220A4002430A480260F6B2DC
:1024B000F006C00E09490860084800680006FBD510
:1024C000074800680005000D70BD0000148004403E
:1024D00018B0034008B0034004B0034000B003400C
:1024E00010B00340F8B506000F003900C9B2300043
:1024F000C0B2FFF7C6FF04003900C9B23000C0B255
:10250000FFF7BFFF05003900C9B23000C0B2FFF7C6
:10251000B8FFADB2A4B2A54202D221002C000D003A
:1025200080B2ADB2A84202D2290005000800ADB2C7
:10253000A4B2A54202D221002C000D00280080B2D6
:10254000F2BDF8B504000F001600002000250AE0D7
:1025500000903900C9B22000C0B2FFF7C3FF0100EC
:10256000009840186D1CEDB2F6B2B542F0D3F6B249
:102570003100FFF754F980B2F2BDFEE77CB50400EC
:102580000D004900490D334A914206D12903090B38
:10259000084302D0200029007CBD20002900002231
:1025A000002300F0D1FA04D2802000064540042622
:1025B00000E002262000290027A20CCA00F0C4FA7D
:1025C0001AD20020224922002B00FEF73BFE009089
:1025D000019100201E4922002B00FEF7D0FD009A39
:1025E000019BFFF723FE00F0C8FA6A4603C22000F1
:1025F00029006A460CCA1DE00122154B00F0A4FA1E
:102600001ED20020194622002B00FEF71BFE009070
:10261000019100200E4922002B00FEF7B0FD009A28
:10262000019BFFF703FE00F0A8FA02227240160099
:1026300022002B0000F014F8320000F0FDFA7CBDFF
:1026400000F0EAFB212101600020C04341087CBD6D
:102650000000F03FFF070000CE3B7F669EA0E63FF4
:10266000F0B40E005E400125ED072E40B446AE0AE0
:10267000DF184C18F4423BD2F74241D2640D43D0EC
:102680007F0D38D0E41BC902DB0229432B43CF0A5C
:10269000DB0A0600B61A9F4104D2641EB6197F41B8
:1026A000B6185F416812800D24180018844222DA9F
:1026B000E80C0021B6197F41B61A9F4102D2B61824
:1026C0005F413F1C40414941F4D3241C21DD2405D6
:1026D000B6197F41B61A9F4105D33743C607374322
:1026E0000026012F7041614166463143F0BC7047BE
:1026F000FCD1F74205D20020C14349054908F3E760
:1027000004D00020C143F1E77F0DFAD000206146DC
:10271000ECE72442FAD1401C61410F03F6D30020BC
:10272000E2E730B405004D400122D20715404B18B6
:102730000418240E28D01B0E2FD0FF2C34D0FF2BD2
:1027400037D0E41A00020902104311434308480835
:10275000D10D1B1A02D2641EDB181B18DB18834232
:1027600000D31B1A4941F9D37F3426DDFE2C08DA49
:10277000E4054808C907194391416041284330BC2A
:102780007047FF20C005F9E728001B0E03D0FF2B80
:10279000F5D14902F3D0D043F1E7FF2C01D140023B
:1027A000F9D1FF20C005E9E74002F4D1FF2BF8D1B1
:1027B000F1E728004902E2D0EDE70B0200202442B5
:1027C000DCD15B129B1CD9D9D805D7E710B5040022
:1027D000FA214900B14AE4B204236343D258D278C3
:1027E000920738D4401C89B280B28142F2D20020D4
:1027F000AA49E4B20422624389588870E4B2002CEA
:1028000006D1A7480068A7490140A548016005E036
:10281000A3480068A4490140A14801600021332079
:10282000FEF787F9E4B2002C07D19D4800688021AB
:10283000490201439A48016006E0994800688021F6
:10284000890201439648016080209449E4B2042241
:102850006243895888709148E4B20421614340582A
:10286000C078022101438D48E4B204225443005948
:10287000C17010BDF1B5A2B00E0001A88B49802235
:10288000FFF708FA00258A4C22A8007800280DD10D
:1028900083480068802149020143814801608548DE
:1028A000006820218843834908600DE07C48006867
:1028B0008021890201437A4801607F4800688021B5
:1028C000C90001437C4801607C480068FA21890006
:1028D00048433100FEF7A3FFF0210901FEF79FFFF7
:1028E0006946087075480068FA218900484301214B
:1028F0006A46127891407143FEF791FF0500402629
:1029000005E080B2A4B2A04201D237000400F6B2C2
:10291000002E0DD0761EADB201A8F6B20221714391
:10292000405A281AFFF7D0F980B20028E9D13700C1
:10293000684600788001B906890E0143574822AAEB
:10294000127804235A43805841708020534922AAA8
:10295000127804235A438958887058480068FA212D
:102960008900484301216A461278914001AAFFB2CA
:1029700002235F43D25B5143FEF751FF23B0F0BD0A
:1029800080B596206946088068460088411E6A46E0
:10299000118080B20028F7D101BD70B504000D0090
:1029A00016006848E4B20421614340588078302121
:1029B00001436448E4B20422624380588170680095
:1029C0006049E4B204226243895808712000C0B211
:1029D000FFF7FCFE5B48E4B20421614340580671F6
:1029E0002000C0B2FFF7F2FE5648E4B20421614372
:1029F00040588078042101435248E4B204226243E3
:102A0000805881706800012101434E48E4B20422DD
:102A10006243805801712000C0B2FFF7D7FE4948D9
:102A2000E4B20421614340588078EF2101404548D9
:102A3000E4B204226243805881704248E4B2042127
:102A4000614340588078082101433E48E4B20422A3
:102A50006243805881703B48E4B20421614340588E
:102A600005792000C0B2FFF7B1FE3648E4B2042178
:102A7000614340588078CF2101403248E4B20422BB
:102A80006243805881702F48E4B204214C430059BE
:102A90000579FFF775FF2800C0B270BD1CF0FF1F5D
:102AA00014800440FFFFFEFFFFFFFDFFE03E00003B
:102AB000FFFF00000C80044010800440E8F0FF1F7E
:102AC00070B5040015001E001E48E4B204226243E3
:102AD00080588278302010431A4AE4B204236343BA
:102AE000D258907048001749E4B2042262438958D2
:102AF00008712000C0B2FFF769FE1248E4B2042159
:102B00006143405805712000C0B2FFF75FFE0D48D9
:102B1000E4B204216143405806712000C0B2FFF7BF
:102B200055FE0848E4B20421614340588078CF2123
:102B300001400448E4B20422544300598170FFF775
:102B40001FFF70BD1CF0FF1F30B4012464054D0051
:102B5000EC420BD85D00EC4208D80C001C4364002A
:102B60000443144304D2994200D1904230BC7047D0
:102B7000FCD08B42FAD18242F8E7012252054B1871
:102B800050D2D3424DD25B0D4BD030B41C05A14383
:102B900055082943D40AE41E1B195B0801D3001809
:102BA00049411B059C466C19091B00184941001836
:102BB0004941641900239202491B07D46D081DD2B4
:102BC000091B641900184941491BF7D56D080AD241
:102BD0000919641B00184941491BEFD56D08F7D34B
:102BE00001E0520817D0C01861419B1AAC4100188F
:102BF0004941801AA941F4D452080AD0C01AA1410F
:102C00009B186C4100184941801AA941E9D4520827
:102C1000F4D15B1C6C415808E20710436108614421
:102C200030BC70470020590DFBD0C943D342F8D8BF
:102C300002B500F0F9F802BDF7B504000D0050A28E
:102C40000CCA00F0F7F81DD850A003C822002B00D2
:102C5000FFF7ECFA00224C4BFEF791FA06000F004A
:102C60004AA003C822002B00FEF789FA02000B00DD
:102C700030003900FFF7F4FC04000D000298012138
:102C800001430291200029000022424BFFF75CFF24
:102C900005D30122F9239B0500F0CCF853D822007C
:102CA0002B00FFF7C3FA06000F0032003B002000A4
:102CB0002900FFF7BBFA0090019137A003C832004A
:102CC0003B00FFF7B3FA36A20CCAFEF758FA3200FF
:102CD0003B00FFF7ABFA34A20CCAFEF750FA009A99
:102CE000019BFFF7A3FA22002B00FEF748FA04002D
:102CF0000D002FA003C832003B00FFF797FA2EA269
:102D00000CCAFEF73CFA32003B00FFF78FFA2CA208
:102D10000CCAFEF734FA32003B00FFF787FA2AA20A
:102D20000CCAFEF72CFA32003B00FFF77FFA0022B4
:102D3000274BFEF724FA02000B0020002900FFF7C2
:102D40008FFC04000D000298800702D58020000649
:102D500045400298400709D01FA1800E081803C8FB
:102D600022002B00FEF70BFA04000D00029800076A
:102D700002D58020000645402000290003B0F0BDA8
:102D800057CD9E5E1426D13F0000F0BFAA4C58E8F4
:102D90007AB6FB3F000040BE845D57134B57B03FEF
:102DA000B2934C19ED5EE43FBEDE02B90240F83F3B
:102DB000DE39028FC7C0743F8AAB1283000CC83F54
:102DC00024D7E508B6D8F03F0F34580E5895FD3F8C
:102DD0000000F03F000000000000000000000000C4
:102DE00066732D3852C1E03F182D4454FB21F93F42
:102DF00066732D3852C1F03F182D4454FB21F93F22
:102E000066732D3852C10040182D4454FB210940EF
:102E10003FD038C6A6F1044080B5024800F023F840
:102E200002BD000074F0FF1F1FB5FFF7F5FF212161
:102E300001601FBD30B4012464054D00EC420BD885
:102E40005D00EC4208D80C001C43640004431443AA
:102E500004D28B4200D1824230BC7047FCD09942F0
:102E6000FAD19042F8E7704700000000000000002F
:102E7000000000000000000000000000000C010045
:102E8000000000000027010000000000F021010008
:102E900000000000002101000000000000E1FF0729
:102EA00000000000002101060000000000210103D5
:102EB0000000000000218101000004000001C100A9
:102EC0000002040000004000000304008000000134
:102ED00000010400800008018001040080008800D7
:102EE000C000040080FCC900E0FF070080271F002D
:102EF00000000400E025090000000400B0240900DF
:102F00000000040090040800000004008004280071
:102F10000000040080FC6F00000000008000C80179
:102F20000000000000000800000000000000000099
:102F30000000000000000000000000000000000091
:102F40000000000000000000000000000000000081
:102F50000000000000000000000000000000000071
:102F600000000000000000000000001E3C00000007
:102F70000000000000000000000000FE3F00000014
:102F80000000000000000400000800FE3F000800F0
:102F90000004000000001100002200F00700020001
:102FA0000011000E384004008088C001C08100007C
:102FB00040443800000701012022060000180002EA
:102FC00010910100006040048848000000808100EA
:102FD0004024000000001201201200000000240024
:102FE00000090000000048008008000000001000F8
:102FF00000041C0000002000000436000000200037
:103000000082C100000040000042000100004000BA
:10301000002200020018400000110004F00F870099
:1030200000090008008183000005201080C881008D
:103030009504361080E800A995029320C0F800A9F5
:103040009582DF20C0BF01A955C17C40C01803AAEA
:10305000C401EC43000C068AC400A4870006048A5D
:10306000C40021800006068A44100180000C038BF6
:10307000443083000198818BD5E0FB0001F080AAE9
:1030800095000F00026040A995610200020040A96E
:1030900015310200040020A9001104000400A00062
:1030A00000020400080090000002040008009000E4
:1030B0000002040010004800000404002000440046
:1030C0000004000040004200000800008081210050
:1030D00000080000006620000012000000189000A8
:1030E0000024000000004800804800000000240286
:1030F0000081000000000201200201000080810820
:103100004000020000604004808004000018220299
:1031100000013900000711010022C201C0818800AE
:103120000044000E38004400008800F00700220030
:103130000010000000001000002000FE3F0008000A
:1031400000000000000000000000001E3C00000025
:1031500000000000000000000000001E3C00000015
:10316000000000000000000000000000004000001F
:103170000000000000400000000000000040980037
:1031800000000000004097000000000000F0D100A7
:1031900000000000004F7000000000000040300000
:1031A0000000000000401E000000000000F81100B8
:1031B000C0071E00004F1000600C3F0000401000D0
:1031C000209821000040100010F060000000D000A6
:1031D000106060000040410010306000006061003D
:1031E000107060000020310010C86000003019002D
:1031F000308C600000F80700E0863000000C07000B
:1032000080031B0000060D0000000E000082180065
:10321000000000000080300000000000008020005E
:103220000000000000804000000000000080C0009E
:10323000000000000080800000000000008000000E
:10324000000000000000000000000000000000007E
:10325000000000000000000000000000000000006E
:10326000000000000000000080B52748007800281A
:1032700003D101202449087002E00020224908708F
:103280002148007800281FD00020FDF780FEFEF7BF
:1032900083FC9A4908602320FDF731FC002802D006
:1032A0000020C04300E00120FEF76AFC9349096852
:1032B000FEF796FC92490968FDF7B8FE9049086050
:1032C0000120FDF76CFE1EE00120FDF760FEFEF719
:1032D00063FC8A4908602120FDF711FC002802D117
:1032E0000020C04300E00120FEF74AFC8349096842
:1032F000FEF776FC9F490968FDF798FE9D49086036
:103300000020FDF74CFE01BD69F1FF1F80B5994813
:1033100001687B480068FDF789FE8021C905FFF739
:1033200000FA95490860002092490860002074491D
:10333000086092480078012803D1914800689149BB
:103340000860FE2080058F4908608B4800688E4920
:103350000968FDF7A3FE8D490860694800688A493D
:103360000968FDF79BFE8A49086082480068864923
:103370000968FDF793FE874908608748016884481B
:103380000068FEF72DFC85490968FDF74FFE83496B
:103390000860814801687F480068FEF721FC804989
:1033A0000968FDF743FE7E4908607B48016877485D
:1033B0000068FEF715FC7B490968FDF737FE79497F
:1033C00008607848006878490968802212065140F0
:1033D000FEF7AEFB06D2744800688021090648401B
:1033E00070490860704800686E490968FEF7A0FBE4
:1033F00003D26D4800686B490860684800686A49F4
:103400000968802212065140FEF792FB06D26648F8
:1034100000688021090648406049086062480068E9
:103420005E490968FEF784FB03D25F4800685B4988
:1034300008605B4800685C490968802212065140B8
:10344000FEF776FB06D258480068802109064840FE
:10345000534908605448006851490968FEF768FB01
:1034600003D2514800684E490860504800685049EE
:10347000086050480068504908605048006850494A
:1034800008605048016841480068FEF7A9FB4549BB
:103490000968FDF7CBFD454908604A4801683C488A
:1034A0000068FEF79DFB3D490968FDF7BFFD4149F6
:1034B00008604448016837480068FEF791FB3849C6
:1034C0000968FDF7B3FD3D49086038480068384990
:1034D0000968FDF7E3FD3C49086036480068364955
:1034E0000968FDF7DBFD3949086034480068344954
:1034F0000968FDF7D3FD3649086001BDFCF0FF1FE8
:1035000000F1FF1F80B533480078401CFEF738FB00
:103510002D490968FEF764FB2F49FFF702F924499A
:103520000968FDF783FD2D4908602A480078401C92
:10353000FEF726FB25490968FEF752FB2649FFF7EF
:10354000F0F81D490968FDF771FD2549086021481B
:103550000078401CFEF714FB1D490968FEF740FB8C
:103560001D49FFF7DEF816490968FDF75FFD1D49A3
:10357000086001BD04F1FF1F08F1FF1F65F1FF1F87
:1035800060F0FF1F24F1FF1F20F1FF1F0CF1FF1F50
:1035900028F1FF1F2CF1FF1F68F0FF1F30F1FF1F04
:1035A00034F1FF1F6CF0FF1F70F0FF1F10F1FF1FC1
:1035B00014F1FF1F40F1FF1F38F1FF1F44F1FF1FFF
:1035C0003CF1FF1F64F0FF1F1CF1FF1F48F1FF1FBC
:1035D0004CF1FF1F68F1FF1F0000A04118F1FF1F11
:1035E00050F1FF1F54F1FF1F000000000000000019
:1035F000002F000000000700070000147F147F1454
:1036000000242A7F2A1200626408132300364955D9
:10361000225000000503000000001C2241000000B1
:1036200041221C000014083E08140008083E080847
:10363000000000A0600000080808080800006060A2
:103640000000002010080402003E5149453E0000E1
:10365000427F4000004261514946002141454B31C3
:10366000001814127F10002745454539003C4A498F
:103670004930000171090503003649494936000601
:103680004949291E00003636000000005636000069
:1036900000081422410000141414141400004122E4
:1036A000140800020151090600324959513E007CBC
:1036B0001211127C007F49494936003E41414122A6
:1036C000007F4141221C007F49494941007F09098F
:1036D0000901003E4149497A007F0808087F00003F
:1036E000417F4100002040413F01007F08142241FA
:1036F000007F40404040007F020C027F007F0408B2
:10370000107F003E4141413E007F09090906003E0D
:103710004151215E007F0919294600464949493136
:103720000001017F0101003F4040403F001F204059
:10373000201F003F4038403F006314081463000717
:103740000870080700615149454300007F4141006E
:1037500000552A552A55000041417F00000402010E
:1037600002040040404040400000010204000020EC
:1037700054545478007F484444380038444444202A
:1037800000384444487F00385454541800087E09D7
:1037900001020018A4A4A47C007F0804047800009F
:1037A000447D4000004080847D00007F102844005C
:1037B0000000417F4000007C04180478007C08046D
:1037C000047800384444443800FC242424180018A9
:1037D000242418FC007C0804040800485454542095
:1037E00000043F444020003C4040207C001C20401E
:1037F000201C003C4030403C004428102844001C61
:10380000A0A0A07C004464544C4414141414141458
:1038100080B576480078002802D0012801D015E054
:1038200014E000212420FDF784F900211C20FDF77D
:1038300080F900212A20FDF77CF900211A20FDF7EC
:1038400078F900F04DF9FDF7D3FEFFE701BD80B533
:10385000012201213020FDF7D3F80122012131207E
:10386000FDF7CEF8012201213220FDF7C9F801222F
:1038700001213320FDF7C4F8002201211820FDF7B3
:10388000BFF8002201211C20FDF7BAF80022012117
:103890002420FDF7B5F8002201212A20FDF7B0F819
:1038A000002201211A20FDF7ABF80022002123207D
:1038B000FDF7A6F8002200212120FDF7A1F801BDA7
:1038C00080B5FEF72FF872B6FEF7BAFDE121490286
:1038D000022000F055F9FEF717FC00230A22002110
:1038E0000220FDF704FA00230A2201210220FDF73D
:1038F000FEF90020FDF723FB0120FDF720FBFDF77B
:10390000D2FDFCF785FDFFF7A2FF3949002000F04A
:1039100095F800F0D4F862B6FFF77AFFFCF73CFEAA
:10392000FAE780B53348006801210143314801605E
:1039300031480088401C304908802F480088962173
:103940004900884205DB00202B4908803020FDF724
:1039500019F9002029490870FEF7BAF9FEF778FB3B
:10396000FFF782FC26480078401C25490870FFF7C5
:10397000C9FD23480078142804DBFFF7C7FC0020AA
:103980001F49087000201F4908701F48006801285F
:1039900001D100F069F91D4803681D4802681D48FF
:1039A00001681D48006800F05FFA032319480268A7
:1039B00002214B20FDF78EFE0323144802680321E9
:1039C0004B20FDF787FE1548007800280CD0FCF747
:1039D000ABFF12480078002803D101200F4908707E
:1039E00002E000200D49087001BD000064F1FF1FD6
:1039F000881300000C7103405EF1FF1F66F1FF1F8A
:103A000068F1FF1F67F1FF1F50F0FF1FA0F0FF1FBD
:103A100098F0FF1FA4F0FF1F90F0FF1F61F1FF1F40
:103A20000121C006C00E814033480160704701216A
:103A3000C006C00E814031480160704730B50500B6
:103A4000002089B20C002E480068FA218900FDF799
:103A5000E6FE21004843401E2A49096802220A4323
:103A600028490A602849096802229143264A1160C0
:103A70002549096801220A4323490A602349EDB216
:103A800010226A43885022480068012101432048DF
:103A900001601E48EDB21021694340188068012181
:103AA00088431A49EDB210226A43891888600120C0
:103AB0001649EDB2102255434919886030BD80B5D2
:103AC0001348006801210143114801601148006852
:103AD000022101430F4801601620FFF7A1FF01BD3D
:103AE00080B50C480068022188430A490860162006
:103AF000FFF79DFF01BD000000E100E080E100E074
:103B0000E8F0FF1F14800440007003400071034080
:103B10000C7103400871034000B5C0B2002803D007
:103B200002281ED00ED32AE04948006880214903AC
:103B30000143474801604748006880218843454960
:103B400008601CE042480068802189030143404826
:103B50000160414800688021490101433E480160FD
:103B60000DE03B4800688021C903014338480160EB
:103B7000394800683949014037480160FFE700BD16
:103B800038B504000D002000C0B2FFF7C5FF34486F
:103B9000E4B2042161434058C078F3210140304829
:103BA000E4B2042262438058C1702D48E4B204217B
:103BB0006143405880782A49E4B20422624389581C
:103BC000887028480068FA218900484300900098CE
:103BD00010214D432900FDF722FE0100491C204819
:103BE000E4B20422624380580078E02202401C487C
:103BF000E4B204236343C05802701948E4B20422BB
:103C00006243805800780A00120AD206D20E02439C
:103C10001348E4B204236343C05802700800104AFA
:103C2000E4B204236343D25850700D48E4B2042236
:103C300062438058C0780C2202430948E4B204234E
:103C40005C430059C27000980009FDF7E8FD32BDE1
:103C5000148004400C80044010800440FFDFFFFF0C
:103C600010F0FF1FE8F0FF1F80B576480168764826
:103C70000068FDF7DBF97549086072480168724811
:103C80000068FDF7D3F972490860704800680021A8
:103C9000FDF792FF15D26F480068FDF77DFF6B4975
:103CA0000968FDF7C3F9694908606B48006867490E
:103CB0000968FDF73DFF26D2674800686349086040
:103CC00021E0624800680021FDF732FF1BD2614805
:103CD0000068FDF761FF01005C480068FDF7DEF950
:103CE0005A490860594800685B49096880221206F1
:103CF0005140FDF71DFF06D2574800688021090694
:103D0000484052490860524800680021FDF754FFBE
:103D100015D252480068FDF73FFF4D490968FDF78D
:103D200085F94B4908604C48006849490968FDF726
:103D3000FFFE26D2484800684549086021E0444813
:103D400000680021FDF7F4FE1BD244480068FDF72F
:103D500023FF01003E480068FDF7A0F93C490860D8
:103D60003B4800683C490968802212065140FDF733
:103D7000DFFE06D2384800688021090648403449F1
:103D80000860324800680021FDF716FF08D20021C4
:103D90002420FCF7CEFE01211C20FCF7CAFE0EE019
:103DA0002A48006880210906484028490860012106
:103DB0002420FCF7BEFE00211C20FCF7BAFE24489C
:103DC00000680021FDF7F8FE08D200212A20FCF748
:103DD000B0FE01211A20FCF7ACFE0EE01C48006882
:103DE0008021090648401A49086001212A20FCF771
:103DF000A0FE00211A20FCF79CFE19480068194912
:103E0000FDF7DAFE12D811480068FDF7A5FE0200A2
:103E100000210220FDF708F80D480068FDF79CFE20
:103E2000020001210220FCF7FFFF09E0002200212F
:103E30000220FCF7F9FF002201210220FCF7F4FF29
:103E400001BD00BFA8F0FF1F18F1FF1FF4F0FF1F16
:103E5000F8F0FF1F58F0FF1F54F0FF1F5CF0FF1F2A
:103E6000A0F0FF1F0000A04200B585B001900291B4
:103E70000392049300A8801C0A490A8802806846BD
:103E800009490A880280022100A8801C00F018F865
:103E9000102101A800F014F80221684600F010F883
:103EA00005B000BD561B00007E1B000000B50B498D
:103EB000896809790906FAD508498968C87100BD79
:103EC00038B505000C0003E02878FFF7EFFF6D1C04
:103ED0002000441E0028F7D131BD000010F0FF1F64
:103EE0001400160018001A001C001E0022002800F2
:103EF0001C002000240028002C0030003800440062
:103F00003000380040004800500058006800800031
:103F100050006000700080009000A000C000F00021
:103F2000A000C000E0000001200140018001E0018C
:103F300040018001C0010002400280020003C00372
:103F4000800200038003000480040005000680074F
:103F500000050006000700080009000A000C000F19
:103F6000134814490880012013490870232013497D
:103F70000870704780B5FFF7F3FF802040041049B8
:103F8000086010200F49087096200F4908701A2009
:103F90000E4908700E480078C006FBD40C48007823
:103FA0004006FBD50A4800780C210842FAD101BD31
:103FB00003E80000042005400120054000200540E2
:103FC0002480044001400640005006400040064066
:103FD0000440064030B401210268001D002A0FD0C1
:103FE0000368C318446808300C4202D04D466D1E69
:103FF00064191D6825601B1D241D121FECD0F8E7F5
:1040000030BC704710B5074979441831064C7C44E0
:10401000163404E0081D0A68891888470100A14287
:10402000F8D110BD2C0000004C0000000200000080
:104030000400000008000000100000002000000044
:1040400040000000800000000001000000020000AD
:104050007FD3FFFFF00000007CF0FF1F0000000096
:1040600075FFFFFF7C00000068C0FFFF00F0FF1F2E
:104070000000000000F00BF8002801D0FFF7C2FF9D
:104080000020C046C046FFF71BFC00F002F80120EC
:10409000704780B500F002F801BDFEE707463846DC
:1040A00000F002F8FBE7FEE780B5C046C046024AD2
:1040B00011001820ABBEFBE7260002000100020041
:1040C00004000800100020004000800000010002F1
:1040D000000400000148804701480047753F000088
:1040E000FD400000008003400090034000A003401A
:1040F000000000F8400000F8800000F8C046C0460C
:10410000C046C046FFF7B6FF0102030405060708D4
:10411000FEE7FEE7FEE7FEE7FEE7FEE7FEE7FEE777
:10412000FEE7FEE7FEE7FEE7FEE7FEE7FEE7FEE767
:10413000FEE7FEE7FEE7FEE7FEE7FEE7FEE7FEE757
:0E414000FEE7FEE7FEE7FEE7FEE7FEE7FEE72E
:04000005000040FDBA
:00000001FF
