:10000000B0F5FF1FF56A00002F2200008B220000D0
:1000100000000000000000000000000000000000E0
:100020000000000000000000000000003B2B00006A
:100030000000000000000000632B00009B2D00006A
:100040000F3F00004F490000FF4E000063600000BA
:10005000BB6A0000C76A0000A96B0000AB6B000020
:10006000AD6B0000AF6B0000B16B0000B36B000024
:10007000B56B0000B76B0000B96B0000BB6B0000F4
:10008000BD6B0000BF6B0000C16B0000C36B0000C4
:10009000C56B0000C76B0000D95B0000C96B000096
:1000A000CB6B0000CD6B0000CF6B0000D16B00006C
:1000B000D36B0000D56B0000D76B0000D96B00003C
:1000C000FFFFFFFFFFFFFFFFFFFFFFFFFEFFFFFF41
:1000D0000000FA440000FA440000FA440000FA4428
:1000E0000000FA4400003C4200003C4200003C4258
:1000F00000003C4200003C421E0000001E000000C8
:10010000000000000000000000A0064000B0064013
:1001100000C00640000078410000000000004E4092
:100120000060064000700640006007400070074015
:100130000060074000700740000070410000803FF1
:10014000320000004B0000000000A0420000C84246
:1001500000002F4400007AC40000C84214000000D0
:100160003200000032000000C800000000004040E3
:100170006666964185EBA9410000FA450000FAC584
:10018000B80B0000B80B000014000000000048434A
:100190000500000088130000AC000000AF00000064
:1001A000A000000032000000280000000100000054
:1001B0002C010000640000000000000001000100AC
:0801C000010100000000000035
:1004100080B501F0B8FB01280BD000D234E10328ED
:1004200000D18AE047D3052800D10AE100D2C6E016
:100430002AE196480078002803D1012093490870EA
:1004400002E000209149087091480078012809D005
:1004500030D3032812D009D305281FD016D306287D
:1004600022D027E001208B49086023E08A480168F8
:100470008A4801F01EFC884908601BE08848016832
:10048000884801F016FC8649086013E08648016838
:10049000864801F00EFC844908600BE0844800683F
:1004A0000A308349086005E0824800680A308149C3
:1004B0000860FFE7E8E075480078002803D10120D4
:1004C0007249087002E00020704908707048007896
:1004D000012809D030D3032812D009D305281FD012
:1004E00016D3062822D027E000206A49086023E0BE
:1004F00069480168704801F0DCFB674908601BE04F
:10050000674801686D4801F0D4FB6549086013E055
:10051000654801686A4801F0CCFB634908600BE05C
:10052000634800680A386249086005E0614800686D
:100530000A3860490860FFE7A6E0544800780028C0
:1005400003D101205149087002E000204F49087092
:100550004F480078012809D030D3032812D009D39E
:1005600005281FD016D3062822D027E001205549A0
:10057000086023E048480168534801F09AFB464967
:1005800008601BE046480168504801F092FB44496E
:10059000086013E0444801684C4801F08AFB424976
:1005A00008600BE04248006832304149086005E0CD
:1005B0004048006832303F490860FFE764E0334854
:1005C0000078002803D101203049087002E00020A3
:1005D0002E4908702E480078012809D030D303280E
:1005E00012D009D305281FD016D3062822D027E021
:1005F00002203449086023E027480168344801F0AC
:1006000058FB254908601BE025480168314801F086
:1006100050FB2349086013E0234801682D4801F08E
:1006200048FB214908600BE0214800683238204926
:10063000086005E01F48006832381E490860FFE77F
:1006400022E012480078002803D101200F490870E9
:1006500002E000200D4908701F480078002803D1EF
:1006600001201D49087002E000201B49087008485D
:100670000078401C0649087005480078072802DB0E
:10068000012003490870FFE701BD0000A4F4FF1F2B
:10069000F0F0FF1F64F3FF1F78F0FF1F0000A04081
:1006A00080F0FF1F0000A04184F0FF1F00004842BF
:1006B00014F3FF1F18F3FF1F0000A0C00000A0C12B
:1006C000000048C27CF3FF1F000020410000C84228
:1006D000000020C10000C8C2A3F4FF1F80B501F0D4
:1006E00052FA01280BD000D21DE2032800D1EDE020
:1006F00079D3052800D1F1E100D25FE113E2774818
:100700000078002803D101207449087002E000201D
:100710007249087072480078012813D062D3032808
:100720001CD013D3052825D01ED3072836D027D3B5
:10073000092839D02AD30B2842D03BD30D284BD0DF
:1007400044D34FE00120A14908604BE0A048016874
:10075000A04801F0AEFA9E49086043E09E48006858
:10076000401D9D4908603DE09C480068401D9B4934
:10077000086037E0A8480068401DA749086031E0DC
:10078000A6480068401DA54908602BE0A448006801
:10079000FA2149004018A249086023E0A7480068F0
:1007A0001430A64908601DE0A5480068401CA44913
:1007B000086017E0A6480068401CA549086011E0E1
:1007C000A7480068401CA64908600BE0A8480068DC
:1007D000401CA749086005E0A6480068401DA549DF
:1007E0000860FFE79FE13D480078002803D1012021
:1007F0003A49087002E0002038490870384800780B
:10080000012813D061D303281CD013D3052825D089
:100810001ED3072835D027D3092838D02AD30B2850
:1008200041D03AD30D284AD043D34EE00020674947
:1008300008604AE066480168AC4801F03AFA644949
:10084000086042E064480068401F634908603CE07B
:1008500062480068401F6149086036E06E480068E1
:10086000401F6D49086030E06C480068401F6B49CC
:1008700008602AE06A480068AB4940186849086087
:1008800023E06E48006814386C4908601DE06C482D
:100890000068401E6A49086017E06D480068401E05
:1008A0006B49086011E06E480068401E6C490860A2
:1008B0000BE06F480068401E6D49086005E06D4818
:1008C0000068401F6B490860FFE72CE1034800788F
:1008D000002807D101200149087006E0A4F4FF1F99
:1008E000F0F0FF1F0020914908709148007801281E
:1008F00013D062D303281CD013D3052825D01ED3D0
:10090000072836D027D3092839D02AD30B2842D03C
:100910003BD30D284BD044D34FE0012085490860DC
:100920004BE02B480168844801F0C3F9284908606E
:1009300043E0294800680A30274908603DE027481D
:1009400000680A302549086037E0334800680A30FB
:100950003149086031E0314800680A302F490860A9
:100960002BE02F480068FA21890040182C490860C4
:1009700023E0324800686430304908601DE03048A8
:100980000068401D2E49086017E031480068401D8E
:100990002F49086011E032480068401D3049086066
:1009A0000BE033480068401D3149086005E03148DC
:1009B00000680A302F490860FFE7B4E05B48007820
:1009C00000280DD10120594908700CE064F3FF1F85
:1009D00078F0FF1F0000A04094F0FF1F30F3FF1FCE
:1009E0000020524908705248007801281AD074D368
:1009F000032827D01AD3052834D02BD3072848D072
:100A00003AD309284BD03DD30B2854D04DD30D28D1
:100A10005DD056D361E000BF34F3FF1FE4F0FF1F49
:100A2000C4F0FF1F02204349086056E09448016863
:100A3000944801F03EF9924908604EE0E0F0FF1F53
:100A4000D4F0FF1F904800680A388F49086044E0DE
:100A5000C8F0FF1F8D4800680A388C4908603CE0E8
:100A6000CCF0FF1F8A4800680A388949086034E0E2
:100A7000D0F0FF1F90F0FF1F864800680A388549B4
:100A800008602AE084480068844940188249086068
:100A900023E0834800686438814908601DE081488C
:100AA0000068401F7F49086017E07F480068401FCA
:100AB0007D49086011E07D480068401F7B4908605F
:100AC0000BE07B480068401F7949086005E07948E1
:100AD00000680A3877490860FFE724E01348007887
:100AE000002805D101201149087004E00000A0C0D1
:100AF00000200E49087070480078002803D10120BA
:100B00006D49087002E000206B49087008480078C1
:100B1000401C07490870064800780E2802DB0120B7
:100B200003490870FFE701BD0CFEFFFFA4F4FF1F9F
:100B3000F0F0FF1F7CF3FF1F00002041F8B50020FC
:100B40000600F6B20A2E00DB99E0F6B2300000286B
:100B50000ED001281CD002282AD0032829D004282E
:100B600037D0052836D0062835D0092834D084E07F
:100B700000200400E4B2802C09DA00212000C0B279
:100B800001F080F9812001F04CF9641CF2E774E077
:100B900000200400E4B2802C09DA04212000C0B255
:100BA00001F070F9012001F03CF9641CF2E764E007
:100BB00063E000200500EDB2042D09DA2900C9B276
:100BC000432001F05FF9FF2001F02BF96D1CF2E7E3
:100BD00053E052E051E050E038A20221012001F040
:100BE000DDF937A20321012001F0D8F9354A0121AE
:100BF000442001F0D3F9344A0221442001F0CEF917
:100C000000231F4802680121012001F06AFA002335
:100C10002E48026802211D2001F063FA00232C48AF
:100C2000026803211D2001F05CFA00231F002948FF
:100C3000006801F0E1FA02003B0001216A2001F0A6
:100C400050FA00231F009748006801F0D5FA02000F
:100C50003B0002216A2001F044FA93480068012811
:100C600005D1924A0121282001F098F904E0904A28
:100C70000121282001F092F9FFE7761C61E7F1BD20
:100C800078F0FF1F000020C194F0FF1F30F3FF1F1A
:100C900034F3FF1FE4F0FF1FC4F0FF1F18FCFFFF39
:100CA000E0F0FF1FD4F0FF1FC8F0FF1FCCF0FF1FC4
:100CB000D0F0FF1F90F0FF1FA3F4FF1F50433A0036
:100CC00044433A00286B0000306B000080F0FF1FA7
:100CD00084F0FF1F14F3FF1F70B500200600F6B26A
:100CE0000A2E00DBDDE0F6B2300000280AD0012831
:100CF00018D0022826D0032825D0042833D009286C
:100D000032D0CCE000200400E4B2802C09DA0021CB
:100D10002000C0B201F0B6F8812001F082F8641C16
:100D2000F2E7BCE000200400E4B2802C09DA0421E0
:100D30002000C0B201F0A6F8812001F072F8641C16
:100D4000F2E7ACE0ABE001200500EDB20A2D09DAD4
:100D50002900C9B2432001F095F8FF2001F061F8A5
:100D60006D1CF2E79BE09AE0524A0221012001F05B
:100D700015F9514A0321012001F010F94F4A0121D0
:100D8000442001F00BF94E4A0221442001F006F9FB
:100D90004C4A0321442001F001F94B4A052101206E
:100DA00001F0FCF8494A0621012001F0F7F8484A11
:100DB0000721012001F0F2F8464A0521442001F004
:100DC000EDF8454A0621442001F0E8F8434A07219E
:100DD000442001F0E3F8002341480268012101208A
:100DE00001F07FF93F48026812B20221282001F089
:100DF0005DF93D48026812B20321282001F056F93E
:100E00003A48026812B201216E2001F04FF93848C9
:100E1000026812B202216E2001F048F935480268DA
:100E200012B203216E2001F041F93348026812B278
:100E30000521282001F03AF93048026812B2062153
:100E4000282001F033F92E48026812B20721282029
:100E500001F02CF9B948026812B205216E2001F0A8
:100E600025F9B748026812B206216E2001F01EF97A
:100E7000B448026812B207216E2001F017F90A483F
:100E80000068012805D1094A0121282001F086F8CF
:100E900004E0AD4A0121282001F080F8FFE7761C2C
:100EA0001DE770BD18F3FF1F64F3FF1F386B0000D0
:100EB000406B0000486B0000506B0000586B000056
:100EC000606B0000686B0000706B0000786B0000C6
:100ED000806B0000886B0000906B0000986B000036
:100EE00078F0FF1F94F0FF1F30F3FF1F34F3FF1F54
:100EF000E4F0FF1FE0F0FF1FC4F0FF1FD4F0FF1F5E
:100F0000C8F0FF1F10B591480078012811D000D219
:100F100012E1032846D031D3052800D18AE065D3F9
:100F2000072800D1CEE000D2A8E0082800D1EDE0EB
:100F300002E187A204214E2001F030F885480068C4
:100F4000012805D1844A0121282001F027F804E076
:100F50007D4A0121282001F021F800200400E4B29C
:100F6000042C0ADA002120007C30C0B200F08AFF95
:100F7000812000F056FF641CF1E7DDE00020040052
:100F8000E4B2042C0DDA00212000401DC0B200F0B4
:100F900079FF7248E4B20019007F00F042FF641C40
:100FA000EEE7C9E000200400E4B2042C0DDA0021D1
:100FB00020002830C0B200F065FF6848E4B2001994
:100FC000007F00F02EFF641CEEE700200400E4B276
:100FD000042C0ADA00212000401DC0B200F052FFAC
:100FE000812000F01EFF641CF1E7A5E00020040052
:100FF000E4B2042C0DDA002120003C30C0B200F035
:1010000041FF5648E4B20019007F00F00AFF641C5B
:10101000EEE700200400E4B2042C0ADA00212000EC
:101020002830C0B200F02EFF812000F0FAFE641CD0
:10103000F1E781E000200400E4B2042C0DDA002185
:1010400020005430C0B200F01DFF4448E4B2001943
:10105000007F00F0E6FE641CEEE700200400E4B22E
:10106000042C0ADA002120003C30C0B200F00AFF54
:10107000812000F0D6FE641CF1E75DE00020040052
:10108000E4B2042C0DDA002120006830C0B200F078
:10109000F9FE3248E4B20019007F00F0C2FE641C81
:1010A000EEE700200400E4B2042C0ADA002120005C
:1010B0005430C0B200F0E6FE812000F0B2FE641CA5
:1010C000F1E739E000200400E4B2042C0DDA00213D
:1010D00020007C30C0B200F0D5FE2048E4B20019F8
:1010E000007F00F09EFE641CEEE700200400E4B2E6
:1010F000042C0ADA002120006830C0B200F0C2FEE1
:10110000812000F08EFE641CF1E715E014A204219A
:10111000502000F043FF00200400E4B2042C0ADA5F
:10112000002120007C30C0B200F0ACFE812000F035
:1011300078FE641CF1E7FFE710BD0000CCF0FF1F54
:10114000D0F0FF1F90F0FF1F406B0000F0F0FF1F7A
:101150004E4F200064F3FF1F386B0000286A000028
:101160004343200010B52148007801281ED000D24A
:10117000F7E1032865D040D3052800D1A9E000D2CB
:1011800083E0072800D1ECE000D2C6E0092800D1B6
:101190002FE100D209E10B2800D172E100D24CE12D
:1011A0000D2800D1B9E100D28FE1DAE110480068E2
:1011B000012805D10F4A0121282000F0EFFE04E0AC
:1011C000CB4A0121282000F0E9FE00200400E4B20F
:1011D000042C11DA042120007C30C0B200F052FE51
:1011E000812000F01EFE641CF1E700BFF0F0FF1F3D
:1011F00064F3FF1F386B0000B3E100200400E4B289
:10120000042C0DDA00212000401DC0B200F03AFE8F
:10121000B848E4B20019007F00F003FE641CEEE75A
:1012200000200400E4B2042C0ADA042120007C30FF
:10123000C0B200F027FE812000F0F3FD641CF1E74E
:101240008FE100200400E4B2042C0DDA002120001C
:101250002830C0B200F016FEA648E4B20019007FA4
:1012600000F0DFFD641CEEE700200400E4B2042C73
:101270000ADA00212000401DC0B200F003FE8120E8
:1012800000F0CFFD641CF1E76BE100200400E4B244
:10129000042C0DDA002120003C30C0B200F0F2FD39
:1012A0009448E4B20019007F00F0BBFD641CEEE737
:1012B00000200400E4B2042C0ADA002120002830C7
:1012C000C0B200F0DFFD812000F0ABFD641CF1E74F
:1012D00047E100200400E4B2042C0DDA00212000D4
:1012E0005430C0B200F0CEFD8248E4B20019007F55
:1012F00000F097FD641CEEE700200400E4B2042C2B
:101300000ADA002120003C30C0B200F0BBFD812091
:1013100000F087FD641CF1E723E100200400E4B243
:10132000042C0DDA002120006830C0B200F0AAFDC4
:101330007048E4B20019007F00F073FD641CEEE712
:1013400000200400E4B2042C0ADA0021200054300A
:10135000C0B200F097FD812000F063FD641CF1E74E
:10136000FFE000200400E4B2042C0DDA002120008C
:101370007C30C0B200F086FD5E48E4B20019007F08
:1013800000F04FFD641CEEE700200400E4B2042CE2
:101390000ADA002120006830C0B200F073FD81201D
:1013A00000F03FFD641CF1E7DBE000200400E4B244
:1013B000042C0DDA04212000401DC0B200F062FDB3
:1013C0004C48E4B20019007F00F02BFD641CEEE7EE
:1013D00000200400E4B2042C0ADA002120007C3052
:1013E000C0B200F04FFD812000F01BFD641CF1E74E
:1013F000B7E000200400E4B2042C0DDA0421200040
:101400002830C0B200F03EFD3A48E4B20019007F37
:1014100000F007FD641CEEE700200400E4B2042C99
:101420000ADA04212000401DC0B200F02BFD81200B
:1014300000F0F7FC641CF1E793E000200400E4B244
:10144000042C0DDA042120003C30C0B200F01AFD5B
:101450002848E4B20019007F00F0E3FC641CEEE7CA
:1014600000200400E4B2042C0ADA04212000283011
:10147000C0B200F007FD812000F0D3FC641CF1E74E
:101480006FE000200400E4B2042C0DDA04212000F7
:101490005430C0B200F0F6FC1648E4B20019007FE8
:1014A00000F0BFFC641CEEE700200400E4B2042C52
:1014B0000ADA042120003C30C0B200F0E3FC8120B5
:1014C00000F0AFFC641CF1E74BE000200400E4B244
:1014D000042C11DA042120006830C0B200F0D2FCE4
:1014E0000448E4B20019007F00F09BFC641CEEE7A6
:1014F000406B0000286A000000200400E4B2042CC5
:101500000ADA042120005430C0B200F0BBFC812074
:1015100000F087FC641CF1E723E000200400E4B243
:10152000042C0DDA042120007C30C0B200F0AAFCAB
:10153000B148E4B20019007F00F073FC641CEEE7D0
:1015400000200400E4B2042C0ADA042120006830F0
:10155000C0B200F097FC812000F063FC641CF1E74E
:10156000FFE710BD10B57A480078012809D04AD3AA
:1015700003281ED015D305282BD022D3062835D01A
:1015800041E074480068012805D1734A01212820F0
:1015900000F004FD04E0714A0121282000F0FEFC67
:1015A00031E000236E4802680121012000F099FD1E
:1015B00029E000236B48026802211D2000F091FD04
:1015C00021E000236848026803211D2000F089FD06
:1015D00019E000231C006548006800F00DFE0200C1
:1015E000230002216A2000F07CFD0CE000231C0097
:1015F000BB48006800F000FE0200230003216A20BF
:1016000000F06FFDFFE710BD80B55148007801285C
:1016100014D000D282E0032828D01FD3052835D06B
:101620002CD3072842D039D309284FD046D30B28D2
:101630005CD053D30D2869D060D36FE04548006873
:10164000012805D1444A0121282000F0A7FC04E02C
:10165000424A0121282000F0A1FC5FE0002340481D
:1016600002680121012000F03CFD57E06348026858
:1016700012B20221282000F019FD4FE060480268F4
:1016800012B20321282000F011FD47E05D480268F6
:1016900012B201216E2000F009FD3FE05A480268B5
:1016A00012B202216E2000F001FD37E057480268B7
:1016B00012B203216E2000F0F9FC2FE054480268BA
:1016C00012B20521282000F0F1FC27E05148026801
:1016D00012B20621282000F0E9FC1FE04E48026803
:1016E00012B20721282000F0E1FC17E04B48026805
:1016F00012B205216E2000F0D9FC0FE048480268C4
:1017000012B206216E2000F0D1FC07E07548026895
:1017100012B207216E2000F0C9FCFFE701BD10489E
:101720000068714908600F480068704908600E48F9
:1017300000686F4908606F4800686F4908600B488F
:1017400000686E49086066480068DA4908607047BA
:10175000F0F0FF1F64F3FF1F386B0000406B0000C8
:1017600078F0FF1F80F0FF1F84F0FF1F14F3FF1FAE
:1017700080B563480068634908606348006863494E
:1017800008606348006800F037FD6249086055480A
:101790000068614908606148006861490860614803
:1017A0000068614908601648006800F025FD5F493F
:1017B00008601448006800F01FFD5D490860124889
:1017C00000685C490860114800685B49086010487F
:1017D00000685A49086010480068594908600F4875
:1017E0000068584908600E48006857490860094871
:1017F0000068B149086001BD286A000094F0FF1F2D
:1018000030F3FF1F34F3FF1FE4F0FF1FE0F0FF1F72
:10181000C4F0FF1FD4F0FF1FC8F0FF1FCCF0FF1F64
:10182000D0F0FF1F10B5304800684849096800F043
:10183000FFFC06D00023454802680121012000F08A
:1018400050FC2A4800684249096800F0F1FC06D0C3
:1018500000233F4802680221142000F042FC244883
:1018600000689649096800F0E3FC06D0002393481D
:1018700002680321572000F034FC1F4800681D490E
:10188000096800F0D5FC06D000231A48026801213F
:10189000572000F026FC19480068894909688842E9
:1018A0000BD000231C008648006800F0A5FC020055
:1018B00023000221572000F014FC7E4800680849EC
:1018C000096888420BD000231C000548006800F01E
:1018D00093FC020023000321572000F002FC10BDFE
:1018E00018F3FF1F90F0FF1F80F3FF1F84F3FF1F0B
:1018F00088F3FF1F88F0FF1F8CF3FF1F90F3FF1F7B
:1019000024F3FF1FACF3FF1F8CF0FF1FB0F3FF1F8A
:101910002CF3FF1F98F3FF1FA4F3FF1F98F0FF1F86
:10192000A8F3FF1F7CF0FF1FB4F3FF1F9CF3FF1F02
:10193000A0F3FF1FCCF3FF1FC8F3FF1FB8F3FF1F77
:10194000BCF3FF1FC0F3FF1FC4F3FF1F78F0FF1F9E
:1019500080F0FF1F80B55B4800685B49096800F0B4
:1019600067FC06D00023584802680121012000F0DE
:10197000B8FB5648006800F03FFC0100544800687E
:1019800000F056FC06D05148026812B202211E2017
:1019900000F08CFB4F48006800F02EFC01004E4820
:1019A000006800F045FC06D04A48026812B20321E4
:1019B0001E2000F07BFB4948006800F01DFC010080
:1019C0004748006800F034FC06D04448026812B270
:1019D0000121642000F06AFB42480068424909681E
:1019E000884206D04048026812B20221642000F00A
:1019F0005DFB3E4800683E490968884206D03D4884
:101A0000026812B205211E2000F050FB3A4800681F
:101A100038490968884206D03548026812B2032165
:101A2000642000F043FB2448006834490968884278
:101A300006D03248026812B206211E2000F036FBA2
:101A40002F4800682F490968884206D02D4802684F
:101A500012B207211E2000F029FB2B4800682B49F9
:101A60000968884206D02948026812B2052164201C
:101A700000F01CFB2648006826490968884206D009
:101A80002448026812B20621642000F00FFB2248AD
:101A900000682249096800F0CBFB09D01F480068A4
:101AA00000F0D6FB020012B20721642000F0FEFA1B
:101AB00001BD000094F3FF1FD0F3FF1F84F0FF1F50
:101AC00014F3FF1F80F3FF1F78F0FF1F2CF3FF1F9D
:101AD00098F3FF1F30F3FF1F9CF3FF1F34F3FF1F2A
:101AE000A0F3FF1FCCF3FF1FE4F0FF1FC8F3FF1F9D
:101AF000E0F0FF1FC4F0FF1FB8F3FF1FD4F0FF1F7B
:101B0000BCF3FF1FC8F0FF1FC0F3FF1FCCF0FF1F87
:101B1000C4F3FF1FD0F0FF1FB4F3FF1F7CF0FF1FC3
:101B200080B500220021412000F0B0FB00220021FE
:101B30003E2000F0ABFB0321022000F09BFC0022C2
:101B40000021192000F0A2FB002200213D2000F01E
:101B50009DFB00220021442000F098FB0022002180
:101B60002B2000F093FB00220021382000F08EFB98
:101B700000220021392000F089FB002200214020B2
:101B800000F084FB01BD10B50024412000F004FCEE
:101B9000012818D00A2000F08CFE412000F0FCFB48
:101BA000012800D182E00121182000F011FC012061
:101BB0000400412000F0F0FB0128FAD10021182098
:101BC00000F006FC72E03E2000F0E6FB012817D092
:101BD0000A2000F06EFE3E2000F0DEFB012865D0FA
:101BE0000121182000F0F4FB022004003E2000F048
:101BF000D3FB0128FAD10021182000F0E9FB55E0C1
:101C0000192000F0C9FB012817D00A2000F051FE6E
:101C1000192000F0C1FB012848D00121182000F054
:101C2000D7FB03200400192000F0B6FB0128FAD1ED
:101C30000021182000F0CCFB38E03D2000F0ACFB88
:101C4000012817D00A2000F034FE3D2000F0A4FB4C
:101C500001282BD00121182000F0BAFB0420040039
:101C60003D2000F099FB0128FAD10021182000F056
:101C7000AFFB1BE0442000F08FFB012816D00A20A8
:101C800000F017FE442000F087FB01280ED0012150
:101C9000182000F09DFB05200400442000F07CFB90
:101CA0000128FAD10021182000F092FB2000C0B2D8
:101CB00010BD0122D20703004B402ED4431A01D29B
:101CC000C01AC91830B44B180418240E1B0E22D0A9
:101CD000FF2C20D0E31A182B1DDC09021143C40D80
:101CE000641E0002104394461925ED1A0A00AA400A
:101CF000D940451801D36D08A41CE405D209280A6F
:101D00002D062A436546AA41604103181B0EFF2B8E
:101D100001D3C00DC00530BC7047514006E05140B2
:101D2000CCE70122D20703004B40F8D4431A03D278
:101D3000C01AC9185040514030B44B180902114321
:101D40000418240E1B0E40D0FF2C3AD025009D41D4
:101D50000BD31ED8C50D4002401A0BD3ED05010070
:101D6000400AC90591416841D5E7C50D40024918AF
:101D7000401AD0D001214008491C0018FCD58C42E3
:101D800004D36D1A000AED054019C4E7E8051040B8
:101D9000C1E7182DBFDCAC1C0D00E140E5414D4012
:101DA000012D4941C40D00021043451A01D46D199B
:101DB0009543641EE405280A2D069541604130BC18
:101DC0007047FF2BA7D1D843A5E72442A3D1002019
:101DD000A1E730B4012100220368001D002B0BD0C5
:101DE0000468001D0C4202D04D466D1E641922602D
:101DF000241D1B1FF0D0FAE730BC704710B504005B
:101E00000021462000F0E4FA7A484068C078800655
:101E1000FAD57848406844710121462000F0D8FA8C
:101E200010BD10B504000121462000F0D1FA714820
:101E30004068C0788006FAD56E4840684471002139
:101E4000462000F0C5FA10BD38B500200400E4B209
:101E5000082C16DA20005038C0B2FFF7CFFF01205F
:101E6000FFF7CCFF1020FFF7C9FF00200500EDB2FF
:101E7000802D04DA0020FFF7D4FF6D1CF7E7641C07
:101E8000E5E731BD38B505000C0020005038C0B280
:101E9000FFF7B4FF2900C9B2090910200843C0B2F6
:101EA000FFF7ACFF2807000FFFF7A8FF31BD80B593
:101EB000514B00220121012000F012FD01220121DD
:101EC000462000F0E3F901220121452000F0DEF96F
:101ED0000021452000F07CFA322000F0EAFC0121CC
:101EE000452000F075FAAE20FFF788FF0020FFF7CD
:101EF00085FF1020FFF782FF4020FFF77FFF812042
:101F0000FFF77CFFCF20FFF779FFA120FFF776FFD7
:101F1000C820FFF773FFA620FFF770FFA820FFF788
:101F20006DFF3F20FFF76AFFD320FFF767FF002018
:101F3000FFF764FFD520FFF761FF8020FFF75EFF0A
:101F4000D920FFF75BFFF120FFF758FFDA20FFF7FA
:101F500055FF1220FFF752FFDB20FFF74FFF402015
:101F6000FFF74CFF2020FFF749FF0220FFF746FF55
:101F70008D20FFF743FF1420FFF740FFA420FFF759
:101F80003DFFA620FFF73AFFAF20FFF737FFFFF72F
:101F90005BFF00210020FFF775FF01BDF7B50600CC
:101FA0000027002400250298EDB2405D00281DD0D6
:101FB0000298EDB2405D2038070068460179300094
:101FC000C0B2FFF75FFF00200400E4B2062C0ADA7B
:101FD0000A48FFB2062179434018E4B2005DFFF7DA
:101FE00020FF641CF1E7B61D6D1CDCE73000C0B2B9
:101FF000FEBD000058F0FF1F002D3101B466000047
:10200000F0B504000D00062007000020FFB2E855DF
:10201000FFB2002F11D07F1EA4B220000A2100F0D1
:102020001FFD0E00A4B220000A2100F019FD0400DB
:1020300030003030FFB2E855EAE7F0BDF2B584B0C9
:10204000060017000025BFB2002F06D130206946D8
:1020500008700020694648701CE002A9380080B270
:10206000FFF7CEFF02A8401C04002078302801D1E1
:10207000641CFAE7002005002078002806D02078AC
:102080006946EDB24855641C6D1CF5E700206946B1
:10209000EDB248556A466846017C3000C0B2FFF791
:1020A0007DFF06003000C0B205B0F0BD70B5040081
:1020B0000E0015002DB2002D0AD5280000B24542B1
:1020C00047A23100C9B22000C0B2FFF767FFA41DCC
:1020D0002A0092B23100C9B22000C0B2FFF7AEFFB1
:1020E00070BDF6B583B006001F00002504980021DE
:1020F00000F010FD0CD2049880210906484004909D
:1021000037A26846017B3000C0B2FFF747FFB61D1B
:10211000049800F013FD0090009800F079F8010099
:102120000498FFF7FEFD040004982E4900F01AFD04
:102130000CD800982C4900F096FC020092B2684638
:10214000017B3000C0B2FFF779FF060000982649F6
:1021500000F089FC0A0092B26846017B3000C0B2F0
:10216000FFF76CFF060021A26846017B3000C0B279
:10217000FFF714FFB61DFFB2002F2ED07F1E1C48A4
:10218000210000F003FD0400200000F061F8103091
:10219000694608716846017B3000C0B2FFF772FEE5
:1021A00000200500EDB2062D0BDA124869460979C8
:1021B000062251434018EDB2405DFFF732FE6D1C20
:1021C000F0E7B61D68460079103800F015F80100F8
:1021D0002000FFF7A6FD0400CDE705B0F0BD00002C
:1021E0002D000000013C1C46102700002E000000BE
:1021F00000002041B46600009D2102000AD5F4468B
:10220000524200F007F80122D20710436047000055
:102210009D2102000AD002D4491E9218FCD5C9059E
:10222000100A1206524100D3012A48417047FEE7C6
:10223000944602000A43921808D0884206D101222F
:1022400012060018D042084600D880426246704705
:102250000122D2070118090E7F3910D449421F31DB
:102260000FD4001805D2C0011043C84000D5D04398
:102270007047C0011043C84005D440427047002059
:1022800070470042F3D510007047FEE778B50400B0
:10229000E4B264096D462C70C406E40E6D466C70A1
:1022A000D2B2002A01D001242200C9B200292AD1C9
:1022B0006C4624786E4DE4B2042674432C59A4690C
:1022C000230001246D466D78AC40A343684C6D46F5
:1022D0002D78042675436459A3616C462478644DB7
:1022E000E4B2042674432C596469230001246D462A
:1022F0006D78AC40A3435E4C6D462D780426754343
:102300006459636147E06C462478594DE4B2042671
:1023100074432C59A46923001D0001236C46647882
:10232000A3402B43524C6D462D78042675436459C7
:10233000A3616C4624784E4DE4B2042674432C59B4
:10234000646923001D0001236C466478A3402B437D
:10235000474C6D462D7804267543645963616C467D
:102360002478434DE4B2042674432C592468230096
:1023700001246D466D78AC40A3431D00D2B26B467C
:102380005C781300A3402B43394C6D462D7804260E
:1023900075436459236071BD18B401000800C0B2D0
:1023A00040096B465870C806C00E6B4618706846E8
:1023B00040782F4BC0B204246043185800690200D3
:1023C00068460078C2401000C007C00F12BC7047BA
:1023D00038B50300DBB25B096C466370C306DB0EE5
:1023E0006C462370C9B2002901D0012319006B4645
:1023F0005B781F4CDBB204256B43E3581B681A0063
:1024000001236C462478A3409A431400C9B26A465B
:1024100013780A009A402243154B6C4664780425D1
:102420006C431B591A6031BD18B40200D2B2520974
:102430006B461A70C206D20E6B465A706A46127804
:102440000B4BD2B2042462439A58D26811000B009D
:1024500001216A46527891401943054A6B461B7820
:1024600004246343D258D16011BC704700000000BF
:10247000106B000000B5C0B2002803D0022838D08D
:102480001BD387E0AF4A126820231343AD4A136081
:10249000C9B2002902D0012907D00DE0AA4A12686A
:1024A000AA4B1340A84A136006E0A74A1268A84B3B
:1024B0001340A54A1360FFE76CE0A24A126840236C
:1024C0001343A04A1360C9B2002902D0012908D0E1
:1024D0000EE09D4A12688023DB0013439A4A136082
:1024E00006E0994A12689B4B1340974A1360FFE736
:1024F00050E0944A126880231343924A1360C9B291
:10250000002908D0022920D012D3042933D027D3A0
:10251000052937D03DE0CF4A126803239A43CD4BBB
:102520001A60CC4A126802231343CA4A136030E08F
:10253000C84A12680C239A43C64B1A60C54A1268EF
:1025400008231343C34A136023E0C24A12683023AE
:102550009A43C04B1A60BF4A1268BE4B1A6018E01B
:10256000BC4A1268C0239A43BA4B1A60B94A12682F
:10257000B84B1A600DE0B74A1268744B1340B54A65
:10258000136006E0B34A1268714B1340B14A1360FE
:10259000FFE7FFE700BDF0B583B004000D001700B2
:1025A0001E002900C9B22000C0B2FFF763FFAE4889
:1025B0000068FA218900484301900198012100F048
:1025C00052FAFFB2FA218900794300F04CFAA74988
:1025D0000880A6480088401EA4490880E4B2002C68
:1025E00003D0022C17D00BD320E0A0480088401C59
:1025F0007043FA21490100F036FA6946088015E077
:102600009A480088401C7043FA21490100F02BFAD7
:10261000694608800AE095480088401C7043FA210A
:10262000490100F020FA69460880FFE78F480088DA
:102630008F49E4B204226243895888608C48E4B22E
:10264000042161434058EDB208216943401888498C
:10265000E4B2042262438958EDB208226A43891821
:10266000C96804229143C1608148E4B204216143F6
:102670004058EDB20821694340187D49E4B2042274
:1026800062438958EDB208226A438918C968282232
:102690000A43C26008207649E4B2042262438958A2
:1026A000086000207249E4B2042262438958C86479
:1026B0006F48E4B2042161434058EDB208216943F8
:1026C000401869460988016100206949E4B2042282
:1026D000624389584860F7BDF0B504000D0016004C
:1026E000E4B2002C03D0022C15D00AD31DE05F48C1
:1026F0000088401C7043FA21490100F0B4F907003A
:1027000013E05A480088401C7043FA21490100F048
:10271000AAF9070009E055480088401C7043FA21D7
:10272000490100F0A0F90700FFE75148E4B2042195
:1027300061434058EDB2082169434018BFB20761B8
:10274000F0BD0000148004400C800440FFFEFFFF39
:10275000FFFDFFFFFFF7FFFF10B50400E4B2002C00
:1027600003D0022C2FD017D343E042480068202129
:1027700001434048016040480068404901403E48EC
:102780000160272000F05AFA3B4800688021890444
:102790000143394801602CE036480068402101437C
:1027A00034480160344800683549014032480160CE
:1027B000202000F043FA304800688021C90401431A
:1027C0002D48016015E02B4800688021014329480D
:1027D0000160294800682B4901402748016000201A
:1027E00029490860052000F029FA23480068224999
:1027F000086010BD10B504002000C0B2FFF7ACFFA8
:102800001B48E4B204216143405800681849E4B20F
:1028100004226243895808601548E4B204216143E8
:1028200040580068182101431148E4B20422624371
:102830008058016000200E49E4B2042262438958A6
:10284000486010BD0A49C0B204225043085840688D
:1028500080B27047108004400021054AC0B20423B2
:102860004343D25851607047DCF2FF1F98F4FF1FBA
:10287000046B0000148004400C800440FFFFFFFC48
:10288000FFFFFFF3FFFFFFCF4CA0034000B5002880
:102890000ED000210E4A11600E49086000210E4A38
:1028A000116005210A4A116009490968C903FBD56D
:1028B00000BD10B5040000F0EFF92000441E002810
:1028C00004D006480068FFF7E1FFF6E710BD0000FE
:1028D00010E000E014E000E018E000E0E0F2FF1F8C
:1028E000FFB58DB003A84C49242200F037FA01A8A7
:1028F0004A490CC90CC0083908380DA800780028CE
:102900000DD1474800688021C90201434448016055
:102910004448006840218843424908600DE040482F
:1029200000688021090301433D4801603E4800687A
:102930008021090101433C4801600FA8007800286C
:1029400055D10020C043060000200500EDB2092D3E
:1029500026DA00200400E4B2082C1FDA33480068AD
:10296000FA218900484301A9E4B2095D03AAEDB246
:1029700004236B43D258514300F075F81099401A64
:1029800000F006FA0700B74206D26846447068466F
:1029900005703E00002E01D0641CDCE76D1CD5E7FD
:1029A0000EA8007841005C20084321490DAA127846
:1029B00004235A43895808700EA8007800011C4966
:1029C0000DAA127804235A43895848706846007843
:1029D0000107090F68464078020170201040084343
:1029E00013490DAA127804235A43895888700F4856
:1029F0000068FA218900484301A96A465278895C37
:102A000000F031F803A96A46127804235A43895822
:102A100000F029F811B0F0BD4C6A0000A06B000076
:102A2000148004400C80044010800440E4F2FF1F36
:102A300060F0FF1FF446002804D4494200F013F868
:102A4000404260474042002905D45FD000F00BF8B7
:102A5000404249426047494200F005F84942604718
:102A600003460B43E6D40022030A8B420BD2030930
:102A70008B4219D243088B422ED2411A00D2014612
:102A8000524110467047FF2209023FD012068B4286
:102A900005D3121209028B4201D312120902030953
:102AA0008B4219D300E0090AC3098B4201D3CB0141
:102AB000C01A524183098B4201D38B01C01A524183
:102AC00043098B4201D34B01C01A524103098B4287
:102AD00001D30B01C01A5241C3088B4201D3CB0072
:102AE000C01A524183088B4201D38B00C01A524155
:102AF00043088B4201D34B00C01A5241884200D395
:102B0000401A5241CFD201461046704708B500F036
:102B100043F908BD0CB4012212060318DA4207D8A3
:102B20004B18DA4204D802000A43921802D28842B3
:102B30000CBC7047FCD08142FAE7FEE700180ED2C9
:102B4000010E7F390BD449421F3105D4C001012247
:102B5000D2071043C84070470020401E7047002035
:102B60007047FEE70CB4012212060318DA4207D8B8
:102B70004B18DA4204D802000A43921802D281426A
:102B80000CBC7047FCD088420CBC704730B40500C8
:102B90004D400122D20715404B180418240E2ED0A8
:102BA0001B0E32D0FF2C34D0FF2B3AD0E418000299
:102BB000090210431143000A090A9446C2B24A436B
:102BC000000AC3B24B43000A4843110A5B181A4378
:102BD000D2B2190A091801D44918641E080A7F3CA8
:102BE00023DBFE2C08DAE40509061143634699410C
:102BF0006041284330BC7047FF20C005F9E728003A
:102C00001B0EFF2BF6D1D043F4E72800FF2CF1D1A7
:102C1000F9E74002F7D1FF2B01D14902F3D1E005DA
:102C2000E7E7D8054902E4D0EDE743020020641C41
:102C3000DFD15B129B1CDCD9D805DAE710B50300A5
:102C4000DBB25B091900C306DB0E1A00C9B200290A
:102C500003D0022911D008D316E00C4B1B680124C5
:102C600094401C43094B1C600EE0094B1B68012477
:102C700094401C43064B1C6006E0064B1B68012475
:102C800094401C43034B1C6010BD00BF08900440DF
:102C90000C9004401090044000B587B06846264967
:102CA000182200F05BF82548254908602448006890
:102CB0006946244A1278D2B2D2085207520F022330
:102CC0005A4389184989FFF7CEFE1D4908601C4800
:102CD000006869461C4A1278D2B2520902235A434C
:102CE000895AFFF7C0FE1649086015480068174961
:102CF0000968090F8907890F491CFFF7B4FE1449B9
:102D000008601348006811490A681100C901C90F19
:102D1000491CFFF7A8FE0F490860094800680B49E5
:102D20000A681100C902C90F491CFFF79CFE0A4935
:102D3000086007B000BD0000DC6A000000803801B8
:102D4000D8F2FF1F004006400140064024800440A6
:102D5000E0F2FF1FE4F2FF1FDCF2FF1F70B4103A35
:102D600003D378C9103A78C0FBD2530701D318C9EE
:102D700018C001D508C908C0D20704D30B88038046
:102D8000891C801C002A01D50B78037070BC704729
:102D9000002800D5404270477047FEE780B5022109
:102DA0002E2000F0A6FEFFF733FA1C4908601C48ED
:102DB00000680021FFF73CFA09D11848006819495A
:102DC000FFF7A8FE03D2FE208005154908601448CD
:102DD0000068FE218905FFF72BFA0DD11248006823
:102DE000401C11490860104800681049884203DB04
:102DF000FE2080050E4908600D480068FE21890507
:102E0000FFF716FA09D1054800680649FFF782FE68
:102E100003D2FE208005B649086001BD50F4FF1FB3
:102E200054F4FF1F00401C4560F4FF1F11270000F1
:102E300058F4FF1F10B5AF480068002829D1AE48EC
:102E40000068FFF7D9F9AD494968FFF763FE20D262
:102E5000AA480168A9488068FEF72BFF01000C0012
:102E6000A7480068FFF7C8F92100FFF753FE10D20A
:102E7000A4480068401CA3490860A3480068A14911
:102E80000968884205DA02209A49086000209D49B5
:102E9000086098480068022800D088E097480169D7
:102EA0009A48FEF706FF9549C968FFF733FE04D23A
:102EB00097480068401C964908609048C16893484C
:102EC000FEF7F7FE8D490969FFF724FE04D2914809
:102ED0000068401C8F4908608F480068FFF78CF934
:102EE000010086484068FFF715FE53D28B48006802
:102EF000FFF782F98149C968FFF70CFE0ED28848B6
:102F00000068FFF779F901007C480069FFF702FECD
:102F100004D27F480068401C7D4908607F480068F3
:102F2000FFF76AF975490969FFF7F4FD0ED27C488D
:102F30000068FFF761F901007048C068FFF7EAFD1B
:102F400004D274480068401C724908606B480069EC
:102F50006A49C968FFF7DEFD0AD26848006971490D
:102F6000FFF7D8FD04D26A480068401C6849086031
:102F70006248C06861490969FFF7CCFD0AD25F4821
:102F8000C0686849FFF7C6FD04D262480068401C6B
:102F90006049086064480068FFF72EF9010057484F
:102FA0004068FFF7B7FD02D203205249086051483C
:102FB0000068032828D15D480068002824D15448BF
:102FC00000685449096888420FDA002051490860B6
:102FD00000204F49086001205549086002205549EA
:102FE00008600220514908600EE00020494908604D
:102FF00000204749086001204F49086001204D49E1
:1030000008600120494908604948006801280ED13C
:103010004A480068FFF7F0F84949086049480068E5
:10302000401C4849086001211820FFF7D1F94248A7
:10303000006801280FD1414801684842FFF7DCF8D9
:103040003F49086040480068401C3F490860012132
:103050001820FFF7BDF93D4800683A4909688842E1
:1030600005DB3A48006838490968884221DA0020BF
:103070002449086000203649086000203149086072
:1030800000203149086000202249086000202049C2
:1030900008600020264908600020274908600620B3
:1030A0001449086000211820FFF792F901202949EE
:1030B000086010480068062819D110484068264961
:1030C000FFF728FD13D225480068401C23490860FB
:1030D0002348006821490968884208DA00201F490E
:1030E000086000200349086000201049086010BDF6
:1030F0005CF4FF1F1CF4FF1FC8F0FF1F90F2FF1FBE
:10310000D4F0FF1F2CF4FF1FC0F0FF1F000020426F
:1031100040F4FF1F3CF4FF1FCCF0FF1FD8F0FF1F4F
:10312000DCF0FF1F0000A041D0F0FF1F44F4FF1FA0
:1031300020F4FF1F28F4FF1F24F4FF1FE4F0FF1FFB
:10314000D8F3FF1F48F4FF1F4CF4FF1FE0F0FF1FF0
:1031500030F4FF1F38F4FF1F0000C84234F4FF1F93
:10316000C4F0FF1FF8B5002500F0F4FC00F040FBB0
:103170000020040024B2052C34DAA84824B204212B
:1031800061434058FFF738F8A54924B2042262434E
:103190008958FEF7C6FD0700A24824B20421614306
:1031A00040589F4924B2042262438958FEF7B9FD72
:1031B0000100380000F056FE9B4924B2042262430D
:1031C0008850994824B20421614340580021FFF7F8
:1031D000A1FC05D89548944924B204226243885042
:1031E000641CC7E7904840689149086000200400CB
:1031F00024B2052C0EDA8C4824B2042161434058D5
:103200008C49FFF7C3FC8C4924B2042262438850E6
:10321000641CEDE7864801688648FFF7B7FC8749DC
:1032200008607E484068FEF7E7FF7D494968FEF781
:1032300078FD070082480A21405EFEF7DDFF7849ED
:103240004968FEF76EFD0100380000F00BFE060035
:1032500030000021FFF75EFC01D874480600754875
:103260003100FFF793FC774908600020040024B286
:10327000032C0FDA70482DB20421694340586E497F
:1032800024B2042262438958FFF744FC00D225008F
:10329000641CECE768482DB20421694340586A4930
:1032A000086069480068CC49FFF734FC0BD2CB4872
:1032B0000021405E050060482DB20421694340585A
:1032C0006149086001E0C5480580C5480078C549E6
:1032D00008802DB2002D1FD1C3480068FEF78CFF77
:1032E00055494968FFF73EFC16D853488068524953
:1032F0004968FFF70FFC0FD24F480068CA49FFF733
:1033000031FC09D84548806844494968884203DA55
:103310000020B349087062E02DB2002D08D1B248F8
:103320000068FEF769FF44494968FFF7F3FB09D3DA
:103330002DB2012D0ED1404880683F490968FFF742
:10334000E9FB07D20120A64908703B480068B7494D
:10335000086044E02DB2012D06D137480068364997
:103360008968FFF7D7FB0BD32DB2022D10D19E48F1
:103370004068FEF741FF30494968FFF7CBFB07D2B1
:103380000220974908702C488068CE49086026E0E2
:103390002DB2022D1FD194484068FEF72DFF26491B
:1033A0004968FFF7DFFB16D82348006822494968BF
:1033B000FFF7B0FB0FD2204880689B49FFF7D2FB94
:1033C00009D81648006815494968884203DA03207D
:1033D0008349087003E08348008881490870804869
:1033E000007880490022895E401A00F02BFD0228F7
:1033F00004DB7C4800887A49087003E0784800784C
:1034000078490880B0480068B04908602DB2002DA6
:103410001CD0022D00D1AFE069D30CE17CF2FF1F7C
:1034200014F0FF1F00F0FF1FA4F2FF1F6F12833A7A
:10343000E4F3FF1F0000C84290F2FF1FE0F3FF1FFC
:1034400048F2FF1FE8F3FF1FECF3FF1FA0480068DE
:10345000FEF7D2FE9F490968FFF75CFB43D29C4808
:103460000068FEF7C9FE9B494968FFF753FB1DD270
:103470009848006897494968FEF753FC9649FFF75A
:1034800085FB070092480068FEF7B6FE01009148F0
:103490000068FEF746FC0100380000F0E3FC010084
:1034A0008E48FEF73EFC884908601FE088480068A7
:1034B000FEF7A2FE010087480068FEF732FC88494B
:1034C000FFF764FB07008348006882494968FEF7FC
:1034D00028FC0100380000F0C5FC8249FEF7E9FB3A
:1034E0007949086002E07F4877490860A3E078489E
:1034F0000068FEF781FE77494968FFF70BFB3AD277
:103500007448006873498968FFF704FB1AD2714850
:10351000406870498968FEF704FC6F49FFF736FB85
:1035200007006C4840686B490968FEF7FAFB010028
:10353000380000F097FC01006748FEF7F2FB624993
:10354000086018E06348406862490968FEF7E9FBD3
:103550006149FFF71BFB07005E4840685D498968C9
:10356000FEF7DFFB0100380000F07CFC5B49FEF752
:10357000A0FB554908605EE055480068FEF73CFE38
:1035800054498968FFF7C6FA52D251480068FEF7DD
:1035900033FE50494968FFF7BDFA27D24D4880688D
:1035A0004C494968FEF7BDFB4B49FFF7EFFA0700AE
:1035B00047480068FEF720FE010046488068FEF795
:1035C000B0FB0100380000F04DFC4349FEF771FBF1
:1035D0003D4908602FE000BF0000A040ECF0FF1F55
:1035E000F1F0FF1FEEF0FF1F28F0FF1F38480068C2
:1035F000FEF702FE010037488068FEF792FB38496B
:10360000FFF7C4FA07003348806832494968FEF77B
:1036100088FB0100380000F025FC01003248FEF76D
:1036200080FB2949086006E00100803FF0F3FF1F9E
:103630002D48254908602D48006823490968FFF78F
:1036400069FA03D2294800681F4908601E480068CB
:1036500026490968802212065140FFF75BFA06D21C
:10366000224800688021090648401749086016482A
:103670000168FE208005FFF789FA134908600020E1
:10368000C0B213280CDA1A49C0B204224243891886
:103690004968174AC0B204234343D150401CEFE7A6
:1036A000094800681249C864114800684149086027
:1036B0004048006804490968FEF733FB3E4908604A
:1036C000F1BD0000F4F3FF1FD8F3FF1FDCF3FF1F71
:1036D000B8F0FF1F90F2FF1F0000F0410000F0C1A2
:1036E000000020420000C8C20000C842BCF0FF1F1A
:1036F000BCF1FF1F10B5344800683649086000204F
:1037000040B231280CDA2D4940B2042242438918D4
:1037100049682A4A40B204234343D150401CEFE792
:1037200027480068274908600020274908600020D2
:1037300029490860002026490860002027490860C0
:10374000002464B2322C34DA1C4864B20421614390
:10375000405800F07EFB2249FFF7DCF905D21E48F5
:103760000068401E1C49086004E01B480068401CBB
:1037700019490860002015490860002019490860AF
:1037800000201949086000201849086012480068A4
:103790000A2806DA01200D49086000201149086056
:1037A00005E001200F490860002008490860641CFA
:1037B000C7E710BDD4F3FF1F38F3FF1FF4F0FF1F5E
:1037C000D8F3FF1FB8F1FF1FF8F3FF1F0CF4FF1F22
:1037D00000F4FF1FFCF3FF1F08F4FF1F04F4FF1F9A
:1037E0000000704118F4FF1F10F4FF1F14F4FF1FB6
:1037F00080B57C480068FA21490088424DDA794852
:103800004068FA214900884247DA76488068FA2100
:103810004900884241DA7348006872494968401A91
:1038200005283ADA6F4800686E498968401A052809
:1038300033DA6C4840686B498968401A05282CDAED
:103840006848006867494968401A0321C9438842AB
:1038500023DB6448006863498968401A0321C9432F
:1038600088421ADB5F4840685E498968401A032134
:10387000C943884211DB5B480068FEF7BDFC5A492A
:10388000086058484068FEF7B7FC574948605548FB
:103890008068FEF7B1FC5449886052480068FA21FC
:1038A0004900884200DB86E04E484068FA21490022
:1038B000884200DB7FE04B488068FA21490088425B
:1038C00079DA4848C068FA214900884273DA4548E5
:1038D0000069FA21490088426DDA4248006841498E
:1038E0004968401A052866DA3E4800683D498968FB
:1038F000401A05285FDA3B4840683A498968401A0F
:10390000052858DA374840683649C968401A0528FA
:1039100051DA3448406833490969401A05284ADABF
:10392000304800682F494968401A0321C94388423A
:1039300041DB2C4800682B498968401A0321C943A0
:10394000884238DB2748406826498968401A0321A5
:10395000C94388422FDB234840682249C968401A7E
:103960000321C943884226DB1E4840681D49096976
:10397000401A0321C94388421DDB1A480068FEF73C
:103980003BFC1949086017484068FEF735FC1649AA
:10399000486014488068FEF72FFC1349886011487E
:1039A000C068FEF729FC1049C8600E480069FEF7A0
:1039B00023FC0D4908610022052A0EDA0A48042179
:1039C000514340580949FFF7CDF804D80848064943
:1039D00004235343C850521CEEE7064800680028F1
:1039E00001BD00007CF2FF1F14F0FF1F0180F943AE
:1039F0000080F9431CF4FF1F00B501000020C9B28C
:103A00000A00002A1ED0012A1FD0062A20D0072A29
:103A100021D0082A22D0092A23D00A2A24D00B2A0E
:103A200025D0102A26D0112A27D0122A28D0132ACE
:103A300029D02C2A2AD02D2A2BD02E2A2CD02F2A3E
:103A40002DD02FE0002210002EE0012210002BE0EC
:103A50000222100028E00322100025E004221000BA
:103A600022E0052210001FE0062210001CE00722C1
:103A7000100019E00822100016E00922100013E0DF
:103A80000A22100010E00B2210000DE00C221000A2
:103A90000AE00D22100007E00E22100004E00F22C1
:103AA000100001E000221000C0B200BD23480068F1
:103AB00080218905014321480160214800680020D8
:103AC0001F49086030201F49086000201E49086017
:103AD000704738B5040000252000C0B2FFF78CFF06
:103AE0000500174800680121A940014314480160FE
:103AF00031BDF8B504000F0000262000C0B2FFF76A
:103B00007BFF06002000C0B2FFF7E3FF0D4800680E
:103B1000FFB2B9000C220A4002430A480260F6B222
:103B2000F006C00E09490860084800680006FBD589
:103B30000748006805002805000DF2BD1480044008
:103B400018B0034008B0034004B0034000B0034085
:103B500010B00340F0B587B00020040024B2052C5B
:103B600032DA02212C20FFF7C4FFB24924B202222C
:103B70006243885202212D20FFF7BBFFAD4924B2DA
:103B8000022262438918488102212F20FFF7B1FFEA
:103B9000A84924B202226243891888820221112096
:103BA000FFF7A7FFA34924B2022262438918C88302
:103BB00002211020FFF79DFF9E4924B2022262439A
:103BC00089180885641CC9E70020040024B2052C6C
:103BD00050DA0020060036B2042E49DA0020050033
:103BE0002DB2042036B2801B85423FDA914824B2C0
:103BF0000A21614340182DB2022169434018022175
:103C0000405E8C4924B20A22624389182DB20222F6
:103C10006A43895E884227DA864824B20A216143D2
:103C200040182DB20221694340180221405E07006E
:103C3000804824B20A21614340182DB20221694311
:103C400040187C4924B20A22624389182DB202220C
:103C50006A43895A4180774824B20A216143401857
:103C60002DB20221694347526D1CB9E7761CB2E7B9
:103C7000641CABE70020040024B2052C27DA6D4851
:103C800024B20A216143401840886A4924B20A22BA
:103C90006243891889884018664924B20A2262431F
:103CA0008918C9884018694624B2022262438852A2
:103CB000684624B202216143405E0321FEF7D0FE34
:103CC00003A924B2022262438852641CD4E7002074
:103CD000040024B2022C41DA564824B20221614386
:103CE00040180221405E544924B2042262438850A5
:103CF000504824B20221614340180C21405E4E49D5
:103D000024B2042262438918C8604A4824B20221BE
:103D1000614340181621405E474924B204226243A1
:103D200089188861434824B2022161434018202148
:103D3000405E414924B204226243891848623D48EA
:103D400024B20221614340182A21405E3A4924B23C
:103D50000422624389180863641CBAE70020040047
:103D600024B2052C0CDA03A824B202216143405E80
:103D7000314924B20C22624389188860641CEFE741
:103D80000020040024B2032C37DA2C4800682A49AA
:103D900024B2042262438958401828490860274801
:103DA0004068254924B2042262438918C968401832
:103DB00022494860214880681F4924B20422624396
:103DC0008918896940181D4988601C48C0681A49CB
:103DD00024B2042262438918496A40181749C8600E
:103DE00016480069144924B2042262438918096BF9
:103DF000401812490861641CC4E70020040024B282
:103E0000052C14DA0D4824B20421614340580321E3
:103E1000FEF726FE0A4924B204226243885000209D
:103E2000064924B2042262438850641CE7E707B0C5
:103E3000F0BD000048F2FF1F0CF2FF1FB8F2FF1F99
:103E40007CF2FF1F00B5002801D54142080080B276
:103E500000BD80B50021FEF75DFE02D2802109067B
:103E6000484002BD30B405004D400122D207154044
:103E70004B180418240E28D01B0E2FD0FF2C34D042
:103E8000FF2B37D0E41A0002090210431143430804
:103E90004808D10D1B1A02D2641EDB181B18DB1850
:103EA000834200D31B1A4941F9D37F3426DDFE2C0F
:103EB00008DAE4054808C9071943914160412843DD
:103EC00030BC7047FF20C005F9E728001B0E03D067
:103ED000FF2BF5D14902F3D0D043F1E7FF2C01D1FC
:103EE0004002F9D1FF20C005E9E74002F4D1FF2BE1
:103EF000F8D1F1E728004902E2D0EDE70B020020FB
:103F00002442DCD15B129B1CD9D9D805D7E7FEE748
:103F1000F0B58DB00020029000200B9000200A9098
:103F2000002009908C480890002001900025002076
:103F300007908A48069000240020059000200490F5
:103F40008748039000200090002686480068864934
:103F50000968FDF7E6FE029084480068FFF779FFE4
:103F6000070083480068FEF747F93900FEF7D2FDE5
:103F70000BD27E480068FFF76CFF7E49FDF799FE83
:103F80007749FFF76FFF009001E0002000907A482A
:103F90000068FEF731F90099FEF7F8FD01907348CB
:103FA0000068FFF756FF070074480068FEF724F921
:103FB0003900FEF7AFFD0BD26C480068FFF749FFF0
:103FC0006F49FDF776FE6F49FFF74CFF060001E0F1
:103FD000002006006C480068FEF70EF93100FEF77D
:103FE000D5FD0500694801680198FDF762FE684942
:103FF00008605E480068FFF72CFF6649FEF78AFDFF
:1040000002D2654805602EE058480068FFF721FF9E
:104010006249FEF77FFD0BD2614800688121C90526
:10402000FFF720FF2900FDF744FE5B4908601AE016
:104030004E480068FFF70DFF4949FEF76BFD0BD2B4
:10404000574800688021C905FFF70CFF2900FDF7DC
:1040500030FE5149086006E0514800682900FDF72C
:1040600028FE4D4908604F4800684F49FEF77AFD29
:1040700002D84E484B4908604A4800684C49FEF750
:1040800049FD02D24A484749086038480068002183
:10409000FEF768FD08D243480068FFF7DAFE45499D
:1040A000FEF774FD040004E03E480068FFF7D1FE0F
:1040B0000400374801688020000641402B48006812
:1040C000FEF764FD07003C4801683C480068FEF7C5
:1040D0005DFD01003800FDF724FE01000F002E48B1
:1040E00000682100FEF752FD3900FDF7E2FD0700F0
:1040F000B14800682100FEF749FD01003800FDF7D6
:1041000010FEAC4908602248016818480068FEF7B4
:104110003DFD01000F002848016828480068FEF7AF
:1041200035FD3900FDF7C5FD07001B48006821007B
:10413000FEF72CFD01003800FDF7F3FD01000F0034
:104140009D4800682100FEF721FD3900FDF7B1FD13
:10415000AE4908600DB0F0BD000020410000C8422B
:104160000000484264F4FF1F94F4FF1FD8F3FF1FC0
:1041700070F0FF1F000048C214F3FF1F74F0FF1F10
:10418000000096C20000C84118F3FF1F80F0FF1F17
:1041900008F3FF1F0000A0410CF3FF1F00002042A6
:1041A00088F0FF1F3CF3FF1F010048430000484315
:1041B000000048C3000080BF84F0FF1F38F3FF1FDA
:1041C000F0B585B0012400207C49854A03C2083A35
:1041D0007B480168FE208005FEF7D8FC874908600F
:1041E00078480068012817D177480068FEF704F87E
:1041F00078490968FDF75DFD7A49086072480068F2
:10420000FDF7FAFF73490968FDF753FD7749086028
:1042100071480068714908606C480068012817D12E
:104220006B480068FDF7E8FF6A490968FDF741FD42
:104230006C49086066480068FDF7DEFF654909685B
:10424000FDF737FD69490860634800686349086005
:104250006A48006800F056FA02000B00604803C884
:1042600000F069FA05D25E4803C800F07DFA6349A0
:1042700008606248006800F045FA594A0CCA802577
:104280002D066B4000F057FA08D2554803C880222B
:104290001206514000F068FA584908605148006819
:1042A00000F030FA0290039151480168FE20800529
:1042B000FDF7FFFC00F026FA009001914D480168DF
:1042C0004D480068FEF762FC00F01CFA06000F0083
:1042D0004A48006800F016FA49A20CCA00F075FAC4
:1042E00000F036FB32003B0000F06FFA06000F00D2
:1042F000454801688020C005FEF748FC00F002FA3E
:1043000002000B003000390000F07EFC02000B00C0
:104310000098019900F03CFD029A039B00F055FAC9
:1043200000F022FA304908603048006800F0EAF9ED
:10433000029003912E480168FE208005FDF7B9FC2C
:1043400000F0E0F9009001912A4801682A480068CD
:10435000FEF71CFC00F0D6F906000F0027480068A5
:1043600000F0D0F926A20CCA00F02FFA00F0F0FA03
:1043700032003B0000F029FA06000F0022480168D5
:104380008020C005FEF702FC00F0BCF902000B0023
:104390003000390000F038FC009A019B00F095FCD9
:1043A000029A039B00F011FA00F0DEF9B5490860AB
:1043B00005B0F0BDF8F2FF1F20F3FF1F00005440CE
:1043C000D8F3FF1F0CF4FF1F24F3FF1F18F4FF1F87
:1043D0008CF0FF1F78F0FF1F7CF0FF1F10F3FF1F12
:1043E00048F0FF1F74F4FF1F68F4FF1F78F4FF1FED
:1043F000E8F2FF1F6CF0FF1F44F0FF1FECF2FF1FFD
:10440000CAC342AD69DE913F68F0FF1FFCF2FF1F97
:10441000F0B587B00124734D9B4E0020059000201D
:1044200004900027002003900020029000200190BB
:10443000002000906C48006801280DD19348006866
:10444000FDF7DAFE010092480068FDF732FC914961
:104450000860012004000CE08F480068FDF7CCFEE6
:1044600001008B480068FDF724FC8A49086002209F
:1044700004008A480068022810DB88480068042885
:104480000CDA87480068FDF7B7FE01008048006835
:10449000FDF70FFC7F490860022004007D4800689A
:1044A00080490968FDF73DFC07002000012802D083
:1044B000022842D083E038007B49FEF753FB08D83E
:1044C0007A4800681E214843FDF796FE7849086047
:1044D00032E038000021FEF745FB09D2734800683E
:1044E000FDF78AFE3900FEF751FB7149086023E0B1
:1044F00038007049FEF736FB09D86F480068FDF7B1
:104500007BFE3900FEF742FB6949086014E0380081
:104510006A49FEF727FB03D86948654908600BE044
:1045200038006849FEF71EFB03D8674860490860F9
:1045300002E055485E49086041E038006349FEF7F3
:1045400011FB08D86248006814214843FDF754FE67
:104550005749086032E038000021FEF703FB09D21A
:104560005B480068FDF748FE3900FEF70FFB504935
:10457000086023E038004F49FEF7F4FA09D84E48A6
:104580000068FDF739FE3900FEF700FB4849086076
:1045900014E038004949FEF7E5FA03D84848444991
:1045A00008600BE038004749FEF7DCFA03D84648BC
:1045B0003F49086002E034483D490860FFE72800B1
:1045C0003B490968FEF7A6FA01D239480560384828
:1045D00000683100FEF79EFA01D23548066007B048
:1045E000F0BD00000000FA450CF4FF1F70B5002577
:1045F00000263848006838490968FDF792FB3749BA
:1046000008602048006836490968FDF78AFB35498B
:1046100008603548006835490860344801682F480B
:104620000068FEF7B3FA32490968FDF742FB010062
:104630000C002A4800682900FDF773FB2D49096822
:10464000FEF7A4FA2100FDF734FB2B490860274848
:10465000016824480068FEF799FA28490968FDF7BF
:1046600028FB01000C001F4800683100FDF759FBD2
:1046700020490968FEF78AFA2100FDF71AFB204954
:10468000086070BD6CF4FF1F0000FAC52CF3FF1F1B
:1046900078F0FF1F70F4FF1F30F3FF1F1CF4FF1FA3
:1046A00034F3FF1F94F4FF1F0100F04190F0FF1F4F
:1046B00028F3FF1FFFFF9FC198F0FF1FFFFFEFC10F
:1046C0000080BBC5FFFF1FC200C0DAC50100A041CA
:1046D00094F0FF1F68F4FF1F8CF4FF1F7CF4FF1F92
:1046E00090F4FF1F80F4FF1F7CF0FF1F10F3FF1FEB
:1046F000F0F2FF1F1CF3FF1F00F3FF1FF4F2FF1F78
:1047000004F3FF1F012212060118CA420AD28A428C
:104710000DD83822120609098918C20FD207114391
:104720004007704700D049080909014301E0C10F63
:10473000C9070020704730B4012464054D00EC42E5
:104740000BD85D00EC4208D80C001C436400044305
:10475000144304D2994200D1904230BC7047FCD03F
:104760008B42FAD18242F8E7012252054B18DA4215
:1047700001D9581570475B0D0722D2019B1A10D939
:10478000FF2B1DD2DB050122D2070A401343090388
:10479000020D1143490AC200524100D9491CC818F0
:1047A00070470AD1800A0A0302435212921C04D9AC
:1047B000D3070B40D00518437047C80FC007704798
:1047C000C80F0002FF30C0057047F0B50E005E4014
:1047D0000125ED072E40B446AE0ADF184C18F4420E
:1047E00008D2F7420ED2640D01D07F0D12D1002005
:1047F0006146F0BD05D1F74201D87F0D05D10020FB
:10480000C143F0BDFBD1640DF9D00020C14349057F
:1048100049088FE0E419C902DB0229432B43DB0A74
:10482000460DC00231438E4630B487B295B27D4307
:104830002E0CADB2140C7C43A419260C2404254381
:104840009CB27C43A419190C7943270CC919A4B252
:104850000F043C43090C000C97B247432E0CBE19C1
:104860003543ADB2170C4743360CBF19A6B2BF197A
:104870003E043543240C3E0C36199FB24743BF1902
:10488000BCB23E0C89191F0C47437F183E043443C9
:10489000390C704680B297B247432E0CBE1935438F
:1048A000ADB2170C4743360CBF19A6B2BF193E0470
:1048B0003543240C3E0C36199FB24743BF19BCB296
:1048C0003E0C89191F0C47437F183E043443390CB2
:1048D00077463F0C90B278432E0C80190604ADB297
:1048E0002E43050CA0B22D18120C7A435019020C5D
:1048F00080B2240CA4189AB27A43121914042043EB
:10490000120C89181B0C7B43C91830BCEF0A3942C2
:1049100003D1B61940414941641E6F12BF0DE41B1B
:104920000BDBFF19BC4211DA240500274208AE4117
:104930007841614166463143F0BD641C05D1401C9D
:104940006141CF0201D34908F4E750E75DE7FEE794
:10495000F0B587B004000D008CA003C822002B0026
:10496000FFF733FF06000F004900490889A20CCA6F
:10497000FFF7E1FE72D239000022002300F07FFA37
:10498000104601D8854900E0854932003B0000F01F
:104990009CF900F08DFA0090009800284DD000F0AE
:1049A000AFFA00227F4BFFF710FF06000F007EA03A
:1049B00003C832003B00FFF708FF02000B00200095
:1049C000290000F0E5F904000D0079A003C83200C9
:1049D0003B00FFF7FAFE02000B002000290000F068
:1049E000D7F904000D0074A003C832003B00FFF7A4
:1049F000ECFE02000B002000290000F0C9F90400C1
:104A00000D0000206E4932003B00FFF7DEFE020081
:104A10000B002000290000F0BBF904000D0069A084
:104A200003C832003B00FFF7D0FE02000B0020005D
:104A3000290000F0ADF904000D0000988607B60FBC
:104A40002000290061A20CCA00F019FA40D8002207
:104A5000F9239B05FFF76FFE3AD220E020006900A2
:104A6000490D5C4A914227D0002903D12903090B43
:104A700008431ED0684630C0684600F059FA060068
:104A8000684630C82000290050A20CCA00F0F7F98F
:104A90001ED80022F9239B05FFF74DFE18D2F00720
:104AA00007D500204C4922002B0000F0ADF804008F
:104AB0000D002000290063E02903090B0843F8D109
:104AC00000F0F0FA212101600020C043410857E0C6
:104AD00022002B00FFF779FE02AA03C202A80CC82D
:104AE0003EA003C8FFF771FE3EA20CCA00F0EDF82D
:104AF00002AA0CCAFFF769FE3CA20CCA00F0E5F856
:104B000002AA0CCAFFF761FE00223A4B00F0DDF862
:104B100004AA03C202A803C822002B00FFF755FE17
:104B20000090019102A803C833A20CCAFFF74DFE02
:104B300033A20CCA00F0C9F802000B0002A803C897
:104B4000FFF743FE0FA20CCA00F0BFF8009A019BCA
:104B5000FFF73BFE22002B0000F0B7F804000B002B
:104B6000F00708D504A803C8220000F04DF8802201
:104B70001206514004E0200004AA0CCA00F044F8D8
:104B800007B0F0BD6955C388986BC0BF83C8C96DB5
:104B9000305FE43F0000A0FFFFFFDF410000E03F87
:104BA0000000E0BF0000303E00000050FB21B94192
:104BB00000000060B41011400000002026A6513E05
:104BC0005C14D33C000000209A833B3BFEFFFFFFB8
:104BD000FFFF3FBEFF0700000000F0BF6C9E741E89
:104BE00068522BBFA908265CB9E7973FD5FFB69955
:104BF000218BDDBF0000F03FDB9955949A63DFBE47
:104C0000D625F78675FC663FF0B40E005E400125A0
:104C1000ED072E40B446AE0ADF184C18F4423BD2E2
:104C2000F74241D2640D43D07F0D38D0E41BC90256
:104C3000DB0229432B43CF0ADB0A0600B61A9F4149
:104C400004D2641EB6197F41B6185F416812800D08
:104C500024180018844222DAE80C0021B6197F419A
:104C6000B61A9F4102D2B6185F413F1C40414941EC
:104C7000F4D3241C21DD2405B6197F41B61A9F41C7
:104C800005D33743C60737430026012F70416141E2
:104C900066463143F0BC7047FCD1F74205D2002094
:104CA000C14349054908F3E704D00020C143F1E7B7
:104CB0007F0DFAD000206146ECE72442FAD1401C77
:104CC00061410F03F6D30020E2E7F0B40125ED07C0
:104CD0000F005F404FD48B4200D1824205D98446F9
:104CE000100062468C4619006346DF184C18640DAC
:104CF0007F0D3AD0661C760537D0E61B352E34DCA6
:104D0000DB022B43DB0A0C0DC9022943C912202EFA
:104D10000DDB1700203E06D01F00F741F3405F4037
:104D20000026012A7741C01871410DD217E0170003
:104D3000F741F2405740F3415A40B340F3405A40E4
:104D40000026801859410AD3A21C52050FD0C20771
:104D5000012F724117004008CB0718434908641C13
:104D600024054208AF4170416141F0BC7047641CAA
:104D700021050020F9E76B4010E06B40ABE7F742FC
:104D8000F3D1E943F1E72442EFD100200021ECE721
:104D9000F0B40125ED070F005F40EED40C00871A38
:104DA0009C4105D2C01BA141D219634169406B40AF
:104DB000AE0ADF184C18F442E1D2640D7F0DE2D048
:104DC000E61B362ED1DCDB022B43DB0AA4460C0D9E
:104DD000C9022943C90A012E28DC04D1D60752088A
:104DE000DF073A435B08EF0A76429041994114D0BD
:104DF00039423BD1B61940414941761C394204D170
:104E0000761C001849413942FAD0B9436746B74287
:104E100008D9A41B24052143A7E70042EAD1364262
:104E2000E8D1A2E7E40AE10700209EE7202E0BDD8F
:104E3000203E1F00F340F7415F40012A0022574106
:104E40007E42984191410BE01700F741F2405740F4
:104E5000F3415A40B340F3405A407E429041994159
:104E60000A0303D2641EB619404149410027641E5B
:104E700024054208AE4178416141F0BC704730B42E
:104E8000012464054D00EC420BD85D00EC4208D8CB
:104E90000C001C4364000443144304D28B4200D131
:104EA000824230BC7047FCD09942FAD19042F8E778
:104EB000F4464A1805D200F00DF801D580174008D5
:104EC000604700F007F80121C907884200D90800AF
:104ED00040426047400DC90208430121C907084309
:104EE000520D40210901521A521C06D452421F325F
:104EF00001D4D0407047C017704700207047FEE7CC
:104F0000010007D5F446404200F004F80122D20720
:104F10001143604742221201D21E004207D002D440
:104F2000521E0018FCD5C10A4005120589187047A9
:104F3000F1B582B030C849A003C822002B00FFF7AA
:104F400044FC6A4603C2684603C800220023FFF7F8
:104F500096FF68460CC802D80020424901E00020B4
:104F60004149FFF7B2FE6A4603C20021684600F0DD
:104F7000A1F868460CC80020002100F0E1F84AD0F2
:104F80003A49FFF722FC06000F0039A003C832009F
:104F90003B00FFF71AFC02000B0020002900FFF77E
:104FA000F7FE04000D0034A003C832003B00FFF7F9
:104FB0000CFC02000B0020002900FFF7E9FE0400B2
:104FC0000D002FA003C832003B00FFF7FEFB0200DC
:104FD0000B0020002900FFF7DBFE04000D0000207D
:104FE000294932003B00FFF7F0FB02000B002000D4
:104FF0002900FFF7CDFE04000D0024A003C83200F5
:105000003B00FFF7E2FB02000B0020002900FFF746
:10501000BFFE04000D00029830C0684603C81DA200
:105020000CCAFFF788FB06D3684603C81B4A1C4B13
:10503000FFF725FF07D80022074B684603C800F09A
:1050400091F86A4603C2684603C8FFF731FF80073C
:10505000800F03B0F0BD00BF0000E04183C8C96D00
:10506000305FE43F0000E03F0000E0BF0000303E62
:1050700000000050FB21B94100000060B410114055
:105080000000002026A6513E5C14D33C0000002006
:105090009A833B3B0000C0FFFFFFDFC10100C0FF60
:1050A000FFFFDF4180B5024800F0BFF802BD0000FD
:1050B000E8F0FF1F42685200520D1F4B9A4209D17F
:1050C0004168090304D10068002801D1012070471C
:1050D0000220704743685B0002D10368002B28D090
:1050E000164B9A1A521A012A23DB352A07DB41682C
:1050F00080221206114041600021016016E001216A
:10510000D306DB0E9940491E920608D542680A4034
:1051100041685140416003681343002103E0036884
:105120000B40016859400160002B02D00020C043B1
:1051300070470020704700BFFF07000033040000E5
:1051400090420ED1A4460C001C430128644107D0B4
:10515000994205D14C006415641C644000D30C03D3
:1051600064467047F0B401277F05DB184C18FB42FA
:1051700059D85D0D50D0FC424DD2BF02A34200D1A0
:10518000824239D2640D0E003E409B023B43DB0A53
:10519000C9023943C90A641B641C801A994104D2AC
:1051A000641E001849418018594101D100420AD0BB
:1051B000641E08D000184941801A9941F5D2801820
:1051C0005941641EF6D18902820D8002114303D138
:1051D00001001DD0203D002003D46D1E0018494160
:1051E000FBD5C00A4C05C90A204331432D4207D4E0
:1051F0002D054919F0BC7047FCD139400020F9E772
:105200006D1C05D1FF0AB943401C69410F03F1D25F
:1052100031000020EEE7EDD10021C943744600F0D3
:1052200005F8A646E6E71900E4E770471FB5FFF763
:1052300039FF212101601FBD10B500242B20FDF78F
:10524000ABF8012802D12000082404433820FDF7E0
:10525000A3F8012802D12000042404433920FDF7DB
:105260009BF8012802D12000022404434020FDF7CE
:1052700093F8012802D12000012404432000C0B289
:1052800010BD000080B5B4480068B4490860FFF75D
:10529000D3FFB1490860B1480068AF490968884246
:1052A00003D10020AE49086002E00120AC4908604B
:1052B000FFF7C2FF01280ED000D230E2032800D150
:1052C000A9E058D3052800D184E100D2F2E00628F5
:1052D00000D1D0E123E2A348007801284AD0A248B7
:1052E000A2490860A248A3490860A348A3490860EE
:1052F0000020A34908600020A24908600020A249BC
:1053000008603220A14908603220A14908600020CD
:10531000A04908600020A04908605A209F49086001
:10532000C8209F490860FA20C0009E490860642098
:105330009D490860AC209D490860AA209C490860EE
:10534000A3209C4908608A489B49086000209B492B
:10535000086000209A499B4A03C2083A00209A49F3
:105360000860002099490860C82099490860012018
:105370007C490870D3E17B48007802284AD0E8488D
:105380007A490860E7487B4908607B487B490860A8
:1053900000207B49086000207A49086000207A4993
:1053A000086032207949086032207949086000207D
:1053B000784908600020784908605A2077490860D9
:1053C000C82077490860FA20C00076490860642048
:1053D00075490860AC2075490860AA2074490860C6
:1053E000A3207449086000207549764A03C2083A30
:1053F0000020724908605E486F49086000207249C9
:105400000860002071490860C820714908600220C6
:105410005449087083E153480078032849D0C248B2
:1054200052490860C14853490860C148534908605F
:10543000002053490860002052490860002052496A
:10544000086032205149086032205149086000202C
:105450005049086000205049086064204F490860A6
:105460008C204F490860B3484E49086064204E497B
:105470000860AC204D490860AA204D490860A3206F
:105480004C49086000204E494E4A03C2083A0020A9
:105490004A49086036484849086000204A4908607F
:1054A00000204A490860C8204949086003202D4966
:1054B000087034E12B48007804284CD02C482B4944
:1054C00008609D482B49086099482C4908600020D5
:1054D0002B49086000202B49086000202A490860F9
:1054E00032202A49086032202949086000202949D1
:1054F00008600020284908606420284908608C2042
:10550000274908608B4827490860642026490860BD
:10551000AC2026490860AA2025490860A320254917
:105520000860134824490860002027490860322099
:1055300016490860C82026490860002023490860F1
:1055400000201F491F4A03C2083A00201B49086077
:10555000042004490870E2E0CCF2FF1FD0F2FF1FE4
:10556000D4F2FF1FA2F4FF1F00008C4278F0FF1F4F
:105570000000C84280F0FF1F000096C384F0FF1FA8
:1055800088F0FF1F14F3FF1F18F3FF1F90F0FF1F99
:1055900094F0FF1F30F3FF1F34F3FF1FE4F0FF1FF1
:1055A000E0F0FF1FC4F0FF1FD4F0FF1FC8F0FF1F83
:1055B000CCF0FF1FD0F0FF1F7CF0FF1F8CF0FF1F0F
:1055C00000004E4048F0FF1F24F3FF1F2CF3FF1F85
:1055D00098F0FF1F5948007805284BD05848594982
:1055E00008605948594908605148594908600020E5
:1055F00058490860322058490860322057490860ED
:105600003220574908600020564908600920C043ED
:10561000554908600920C043544908605A2054493C
:1056200008608C2053490860424853490860642050
:1056300052490860AC2052490860AA2051490860CC
:10564000A320514908605148514908600020514940
:105650000860002050490860C820504908600020B8
:105660004F49086000204F494F4A03C2083A0520BD
:105670003249087053E03148007806284ED04B4834
:10568000304908604A483149086029483049086073
:1056900000203049086064202F49086064202F49A9
:1056A000086032202E49086000202E49086013202F
:1056B000C0432D4908601320C0432C4908605A207C
:1056C0002B4908608C202B4908601A482A49086039
:1056D00064202A490860AC2029490860AA20294989
:1056E0000860A3202849086028482949086000204C
:1056F00028490860002028490860322018490860BD
:10570000C8202649086000202649274A03C2083AD3
:10571000002023490860062008490870FFE701BD02
:1057200000009642000016430000B4420000FA4315
:1057300000007AC48813000000001644A2F4FF1F82
:105740000000DC4278F0FF1F0080894480F0FF1FDA
:1057500084F0FF1F88F0FF1F14F3FF1F18F3FF1FD3
:1057600090F0FF1F94F0FF1F30F3FF1F34F3FF1F73
:10577000E4F0FF1FE0F0FF1FC4F0FF1FD4F0FF1F95
:10578000C8F0FF1FCCF0FF1FD0F0FF1F0000C84281
:105790007CF0FF1F24F3FF1F2CF3FF1F98F0FF1F67
:1057A0008CF0FF1F00004E4048F0FF1F0000F04249
:1057B00000007A4470B50400FA267600BF48E4B2CF
:1057C000042161434058C078800745D46D1CB6B2AF
:1057D000ADB2AE42F2D20020B849E4B20422624334
:1057E00089588870E4B2002C06D1B5480068B549E4
:1057F0000140B348016005E0B1480068B24901408A
:10580000AF48016000213320FCF7E2FDAF4800689B
:10581000401CAE490860AE480068401CAC490860B6
:105820000120AC490870E4B2002C07D1A4480068FC
:10583000802149020143A248016006E0A0480068B7
:105840008021890201439E48016080209B49E4B287
:1058500004226243895888709848E4B20421614365
:105860004058C078022101439448E4B204226243C4
:105870008058C17070BDF2B5A2B0070001A896496A
:105880008022FDF76BFA0026944DFFB2002F0DD158
:105890008B48006880214902014389480160904893
:1058A0000068202188438E4908600DE08448006824
:1058B000802189020143824801608A480068802172
:1058C000C90001438748016087480068FA218900C0
:1058D00048432299FDF7C7F8F0210901FDF7C3F805
:1058E0006946487080480068FA21890048430121D0
:1058F0006A4652789140229A5143FDF7B4F8060067
:1059000040200400E4B2002C1DD0641EB6B201A8F1
:10591000E4B202216143405A301AFDF739FA694670
:10592000488068464088002802D1684604700AE032
:1059300068464088ADB2A842E4D268460470684622
:1059400040880500DEE768464078810168460078B7
:105950008006800E08435949FFB204227A438958D1
:10596000487080205549FFB204227A4389588870D4
:105970005D480068FA218900484301216A4652784F
:10598000914001AA94466A46137802225343624624
:10599000D25A5143FDF767F823B0F0BD80B5962089
:1059A0006946088068460088411E6A46118080B2B8
:1059B0000028F7D101BDF8B504000D0017006D48AF
:1059C000E4B204216143405881783020084369499A
:1059D000E4B2042262438958887068006549E4B2E1
:1059E00004226243895808712000C0B2FFF7E2FE2A
:1059F0006048E4B204216143405807712000C0B2FE
:105A0000FFF7D8FE5B48E4B2042161434058817837
:105A1000042008435749E4B204226243895888703D
:105A20006900012008435349E4B2042262438958C3
:105A300008712000C0B2FFF7BDFE4E48E4B2042159
:105A4000614340588178EF2008404A49E4B204227B
:105A50006243895888704748E4B204216143405842
:105A60008178082008434349E4B2042262438958FC
:105A700088704048E4B20421614340580079060030
:105A80002000C0B2FFF796FE3A48E4B20421614319
:105A900040588178CF2008403649E4B2042262435E
:105AA000895888703348E4B2042161434058007932
:105AB0000600FFF773FF3000C0B2F2BD50F0FF1FC9
:105AC00014800440FFFFFEFFFFFFFDFF68F3FF1F90
:105AD0006CF3FF1FA7F4FF1FDC680000FFFF00004E
:105AE0000C80044010800440E4F2FF1FF8B504006D
:105AF0000F0015001E001F48E4B204216143405806
:105B00008178302008431B49E4B20422624389585B
:105B1000887078001749E4B20422624389580871FA
:105B20002000C0B2FFF746FE1248E4B204216143F0
:105B3000405805712000C0B2FFF73CFE0D48E4B2AA
:105B400004216143405806712000C0B2FFF732FEC5
:105B50000848E4B20421614340588178CF200840CE
:105B60000449E4B20422624389588870FFF716FFA3
:105B7000F1BD000050F0FF1F80B5FDF78DF872B643
:105B8000FDF794FFE1214902022000F05FF900F0E7
:105B9000D3F900230A2200210220FCF7FCFC002399
:105BA0000A2201210220FCF7F6FC0020FCF722FE6D
:105BB0000120FCF71FFEFCF77AF9FBF7B1FF00F0BC
:105BC00017FAFA218900002000F053FAFAF7B6FF1D
:105BD00000F090FA62B6FEE780B5744800680121D3
:105BE00001437248016072480088401C7049088077
:105BF0006F480088FA214900884205DB00206C4983
:105C000008803020FCF710FCFDF7ACFAFDF712F924
:105C10006848006801283CD1FDF7C0F800F08AFA16
:105C200001213120FCF7D4FB63480068401C624925
:105C3000086061480068052806DB00205E490860AE
:105C400000F03EFBFEF7E4FBFDF754FDFEF7B8FA6B
:105C5000FEF7CCFCFEF75CF900F002FC5748006848
:105C6000FE218905FCF7E4FA3BD100205449086085
:105C7000544800685449FCF74DFF32D200220121FC
:105C80000220FCF729FD002200210220FCF724FD60
:105C900027E0002201210220FCF71EFD0022002146
:105CA0000220FCF719FD49480068002806D0484842
:105CB000026812B207216E20FCF7F8F94548006827
:105CC000022806D1FBF754FDFFF7DCFAFBF742FE92
:105CD00007E000F0AFFCFBF722FDFFF7D3FAFBF77C
:105CE000A1FD3C48006802282FD13B4800680228EB
:105CF00006D0FCF7A9F8FAF7EFFF02203649086052
:105D0000FAF7ECFC3548007800284DD0344800788C
:105D100000280CD0FBF726FA31480078002803D180
