:10000000C0F5FF1F5D5C0000D71200002F14000038
:1000100000000000000000000000000000000000E0
:100020000000000000000000000000004315000078
:10003000000000000000000047160000DB22000066
:10004000533D00004F41000077550000235C000045
:100050002F5C0000A15C0000A35C0000A55C000018
:10006000A75C0000A95C0000AB5C0000AD5C000078
:10007000AF5C0000B15C0000B35C0000B55C000048
:10008000B75C0000B95C0000BB5C0000BD5C000018
:10009000BF5C0000C15C00009B510000C35C00001D
:1000A000C55C0000C75C0000C95C0000CB5C0000C0
:1000B000CD5C0000CF5C0000D15C0000D35C000090
:1000C000FFFFFFFFFFFFFFFFFFFFFFFFFEFFFFFF41
:1000D0000000FA440000FA440000FA440000FA4428
:1000E0000000FA441E0000001E0000000000000096
:1000F0000000000000A0064000B0064000C006401E
:100100000000000000C05240006006400070064041
:1001100000600740007007402F2F2F2F2F00000096
:1001200000600740007007400000803F0000C03FB3
:100130000000A0410000803F0A0000000000AF4323
:1001400050000000000078410000704100A00C4603
:100150000000803F6666964185EBA9410060EA4554
:100160000060EAC502000000020000001027000045
:10017000A000000000002F430000254300000C43B6
:1001800000007042000070420000F0410000A040FA
:100190000000F0410020CB4500401C45000000005D
:1001A0000100010001000101010000000000000049
:1004100010B504000021462000F08CFD7A484068A9
:10042000C0788006FAD5784840684471012146209A
:1004300000F080FD10BD10B504000121462000F041
:1004400079FD71484068C0788006FAD56E484068EA
:1004500044710021462000F06DFD10BD38B500202C
:100460000400E4B2082C16DA20005038C0B2FFF7BE
:10047000CFFF0120FFF7CCFF1020FFF7C9FF0020BE
:100480000500EDB2802D04DA0020FFF7D4FF6D1CCB
:10049000F7E7641CE5E731BD38B505000C00200026
:1004A0005038C0B2FFF7B4FF2900C9B209091020C3
:1004B0000843C0B2FFF7ACFF2807000FFFF7A8FF03
:1004C00031BD80B5514B00220121012000F084FD97
:1004D00001220121462000F08BFC01220121452050
:1004E00000F086FC0021452000F024FD322000F0C1
:1004F00030FE0121452000F01DFDAE20FFF788FFF2
:100500000020FFF785FF1020FFF782FF4020FFF754
:100510007FFF8120FFF77CFFCF20FFF779FFA1202D
:10052000FFF776FFC820FFF773FFA620FFF770FFE5
:10053000A820FFF76DFF3F20FFF76AFFD320FFF7EA
:1005400067FF0020FFF764FFD520FFF761FF8020E1
:10055000FFF75EFFD920FFF75BFFF120FFF758FFA1
:10056000DA20FFF755FF1220FFF752FFDB20FFF7DD
:100570004FFF4020FFF74CFF2020FFF749FF0220EC
:10058000FFF746FF8D20FFF743FF1420FFF740FFE2
:10059000A420FFF73DFFA620FFF73AFFAF20FFF7AB
:1005A00037FFFFF75BFF00210020FFF775FF01BD5C
:1005B000F7B506000027002400250298EDB2405D43
:1005C00000281DD00298EDB2405D20380700684633
:1005D00001793000C0B2FFF75FFF00200400E4B2F1
:1005E000062C0ADA8748FFB2062179434018E4B2A4
:1005F000005DFFF720FF641CF1E7B61D6D1CDCE712
:100600003000C0B2FEBD000040F0FF1F002D3101E0
:1006100070B500200600F6B20A2E00DBF1E0F6B25B
:10062000002E10D0022E2ED01DD3042E4BD03AD344
:10063000062E6BD057D3082E00D18FE07AD3092E27
:1006400000D19FE0DBE000200400E4B2802C09DA56
:1006500001212000C0B2FFF71FFF8120FFF7EBFE52
:10066000641CF2E7CBE000200400E4B2802C09DA3D
:1006700005212000C0B2FFF70FFF8120FFF7DBFE4E
:10068000641CF2E7BBE001200500EDB2082D09DA99
:100690002900C9B20020FFF7FFFEFF20FFF7CBFEC5
:1006A0006D1CF2E7ABE001200500EDB2062D09DA82
:1006B0002900C9B24320FFF7EFFEFF20FFF7BBFE82
:1006C0006D1CF2E79BE001200500EDB2082D09DA70
:1006D0002900C9B27F20FFF7DFFEFF20FFF7ABFE46
:1006E0006D1CF2E78BE000200400E4B2072C0CDA6A
:1006F000012120001E30C0B2FFF7CEFE4248E4B216
:10070000005DFFF798FE641CEFE778E0002004002E
:10071000E4B2072C0DDA012120005E30C0B2FFF7F1
:10072000BBFE3948E4B20019C079FFF784FE641CAF
:10073000EEE764E000200400E4B2072C0DDA0521A6
:1007400020001E30C0B2FFF7A7FE2F48E4B2001908
:10075000807BFFF770FE641CEEE750E00020040091
:10076000E4B2072C0DDA052120005E30C0B2FFF79D
:1007700093FE2548E4B20019407DFFF75CFE641C3F
:10078000EEE73CE0214A00210120FFF711FF20A203
:1007900002210120FFF70CFF1EA203210120FFF719
:1007A00007FF1DA204210120FFF702FF18A202216A
:1007B0004420FFF7FDFE17A203214420FFF7F8FEB7
:1007C00015A204214420FFF7F3FE14A20621012004
:1007D000FFF7EEFE12A207210120FFF7E9FE11A2AA
:1007E00008214420FFF7E4FE0FA206214420FFF772
:1007F000DFFE0EA207214420FFF7DAFEFFE7761C9A
:1008000009E770BD104F0000905B0000905C000095
:10081000503A0000493A0000443A000041503A0082
:1008200041443A00414C3A00535A3A0053573A0077
:1008300038B51F48007800281ED0022840D03CD38D
:10084000042800D184E05FD3062800D1C8E000D29C
:10085000A2E0082800D10BE100D2E5E00A2800D18F
:100860004EE100D228E10C2800D191E100D26BE1E9
:100870000D2800D1B5E1D8E100200400E4B2802CBD
:100880001ADA00200500EDB2082D13DA2900C9B2EA
:100890002000C0B2FFF700FEC748E4B20821614360
:1008A0004018EDB2405DFFF7C6FD6D1CEBE700BFE1
:1008B000D6F0FF1F641CE1E7B7E1FFF7A9FEB4E142
:1008C00000200400E4B2042C0DDA012120001430D1
:1008D000C0B2FFF7E1FDB948E4B20019007FFFF7AD
:1008E000AAFD641CEEE700200400E4B2042C0ADA3E
:1008F000052120007C30C0B2FFF7CEFD8120FFF73C
:100900009AFD641CF1E790E100200400E4B2042C9D
:100910000DDA012120002830C0B2FFF7BDFDA74845
:10092000E4B20019007FFFF786FD641CEEE70020AB
:100930000400E4B2042C0ADA012120001430C0B211
:10094000FFF7AAFD8120FFF776FD641CF1E76CE15B
:1009500000200400E4B2042C0DDA012120003C3018
:10096000C0B2FFF799FD9548E4B20019007FFFF788
:1009700062FD641CEEE700200400E4B2042C0ADAF5
:10098000012120002830C0B2FFF786FD8120FFF74B
:1009900052FD641CF1E748E100200400E4B2042C9D
:1009A0000DDA012120005430C0B2FFF775FD8348F5
:1009B000E4B20019007FFFF73EFD641CEEE7002063
:1009C0000400E4B2042C0ADA012120003C30C0B259
:1009D000FFF762FD8120FFF72EFD641CF1E724E1A3
:1009E00000200400E4B2042C0DDA0121200068305C
:1009F000C0B2FFF751FD7148E4B20019007FFFF764
:100A00001AFD641CEEE700200400E4B2042C0ADAAC
:100A1000012120005430C0B2FFF73EFD8120FFF7D6
:100A20000AFD641CF1E700E100200400E4B2042C9C
:100A30000DDA012120007C30C0B2FFF72DFD5F48A8
:100A4000E4B20019007FFFF7F6FC641CEEE700201B
:100A50000400E4B2042C0ADA012120006830C0B29C
:100A6000FFF71AFD8120FFF7E6FC641CF1E7DCE0EC
:100A700000200400E4B2042C0DDA0521200014301B
:100A8000C0B2FFF709FD4D48E4B20019007FFFF73F
:100A9000D2FC641CEEE700200400E4B2042C0ADA65
:100AA000012120007C30C0B2FFF7F6FC8120FFF767
:100AB000C2FC641CF1E7B8E000200400E4B2042C9E
:100AC0000DDA052120002830C0B2FFF7E5FC3B48D5
:100AD000E4B20019007FFFF7AEFC641CEEE70020D3
:100AE0000400E4B2042C0ADA052120001430C0B25C
:100AF000FFF7D2FC8120FFF79EFC641CF1E794E035
:100B000000200400E4B2042C0DDA052120003C3062
:100B1000C0B2FFF7C1FC2948E4B20019007FFFF71B
:100B20008AFC641CEEE700200400E4B2042C0ADA1C
:100B3000052120002830C0B2FFF7AEFC8120FFF76E
:100B40007AFC641CF1E770E000200400E4B2042C9D
:100B50000DDA052120005430C0B2FFF79DFC174884
:100B6000E4B20019007FFFF766FC641CEEE700208A
:100B70000400E4B2042C0ADA052120003C30C0B2A3
:100B8000FFF78AFC8120FFF756FC641CF1E74CE07C
:100B900000200400E4B2042C12DA052120006830A1
:100BA000C0B2FFF779FC0548E4B20019007FFFF7F7
:100BB00042FC641CEEE700BF88440000905B00002C
:100BC00000200400E4B2042C0ADA0521200054308D
:100BD000C0B2FFF761FC8120FFF72DFC641CF1E738
:100BE00023E000200400E4B2042C0DDA05212000EB
:100BF0007C30C0B2FFF750FC7648E4B20019007FA9
:100C0000FFF719FC641CEEE700200400E4B2042C9A
:100C10000ADA052120006830C0B2FFF73DFC8120D0
:100C2000FFF709FC641CF1E7FFE731BDF0B50400F4
:100C30000D00062007000020FFB2E855FFB2002F8C
:100C400011D07F1EA4B220000A2100F0AFFA0E00DE
:100C5000A4B220000A2100F0A9FA040030003030CC
:100C6000FFB2E855EAE7F0BDF2B584B00600170020
:100C70000025BFB2002F06D1302069460870002041
:100C8000694648701CE002A9380080B2FFF7CEFF29
:100C900002A8401C04002078302801D1641CFAE727
:100CA000002005002078002806D020786946EDB2A3
:100CB0004855641C6D1CF5E700206946EDB24855A7
:100CC0006A466846017C3000C0B2FFF771FC06003E
:100CD0003000C0B205B0F0BDF6B583B006001F000D
:100CE00000250498002100F0BBFA0CD20498802162
:100CF00009064840049038A26846017B3000C0B223
:100D0000FFF756FCB61D049800F0D2FA0090009848
:100D100000F0EEFA0100049800F031FB04000498A2
:100D20002E4900F085FB0CD800982D4900F041FABF
:100D3000020092B26846017B3000C0B2FFF794FF18
:100D400006000098264900F034FA0A0092B268467C
:100D5000017B3000C0B2FFF787FF060021A2684682
:100D6000017B3000C0B2FFF723FCB61DFFB2002F9D
:100D70002ED07F1E1C48210000F06EFB04002000D6
:100D800000F0C2FB1030694608716846017B3000F4
:100D9000C0B2FFF781FB00200500EDB2062D0BDA93
:100DA000124869460979062251434018EDB2405D68
:100DB000FFF741FB6D1CF0E7B61D6846007910385F
:100DC00000F08AFA0100200000F0D9FA0400CDE713
:100DD00005B0F0BD905B00002D000000013C1C46FA
:100DE000102700002E00000000002041104F0000DE
:100DF00078B50400E4B264096D462C70C406E40EB4
:100E00006D466C70D2B2002A01D001242200C9B212
:100E100000292AD16C4624786E4DE4B2042674432E
:100E20002C59A469230001246D466D78AC40A3437E
:100E3000684C6D462D78042675436459A3616C4651
:100E40002478644DE4B2042674432C596469230069
:100E500001246D466D78AC40A3435E4C6D462D7801
:100E6000042675436459636147E06C462478594D04
:100E7000E4B2042674432C59A46923001D00012305
:100E80006C466478A3402B43524C6D462D78042663
:100E900075436459A3616C4624784E4DE4B2042630
:100EA00074432C59646923001D0001236C46647847
:100EB000A3402B43474C6D462D7804267543645957
:100EC00063616C462478434DE4B2042674432C5984
:100ED0002468230001246D466D78AC40A3431D00B7
:100EE000D2B26B465C781300A3402B43394C6D465D
:100EF0002D78042675436459236071BD18B4010030
:100F00000800C0B240096B465870C806C00E6B4658
:100F10001870684640782F4BC0B2042460431858BC
:100F20000069020068460078C2401000C007C00F88
:100F300012BC704738B50300DBB25B096C466370C6
:100F4000C306DB0E6C462370C9B2002901D0012311
:100F500019006B465B781F4CDBB204256B43E358EA
:100F60001B681A0001236C462478A3409A4314009E
:100F7000C9B26A4613780A009A402243154B6C4660
:100F8000647804256C431B591A6031BD18B4020003
:100F9000D2B252096B461A70C206D20E6B465A7014
:100FA0006A4612780B4BD2B2042462439A58D26834
:100FB00011000B0001216A46527891401943054AFD
:100FC0006B461B7804246343D258D16011BC704730
:100FD00000000000785C0000FFB58DB003A84C490C
:100FE000242200F0AFFA01A84A490CC90CC0083904
:100FF00008380DA8007800280DD1474800688021E6
:10100000C9020143444801604448006840218843C4
:10101000424908600DE0404800688021090301430F
:101020003D4801603E4800688021090101433C4879
:1010300001600FA80078002855D10020C0430600A9
:1010400000200500EDB2092D26DA00200400E4B2EC
:10105000082C1FDA33480068FA218900484301A9A7
:10106000E4B2095D03AAEDB204236B43D2585143A5
:1010700000F09FF81099401A00F07EFA0700B7427E
:1010800006D268464470684605703E00002E01D0C6
:10109000641CDCE76D1CD5E70EA8007841005C20DD
:1010A000084321490DAA127804235A43895808702D
:1010B0000EA8007800011C490DAA127804235A4397
:1010C00089584870684600780107090F68464078DB
:1010D000020170201040084313490DAA127804231E
:1010E0005A43895888700F480068FA21890048439C
:1010F00001A96A465278895C00F05BF803A96A4648
:10110000127804235A43895800F053F811B0F0BD07
:10111000B45B0000985C0000148004400C80044024
:101120001080044088F3FF1F50F0FF1F00B5002817
:101130000ED000210E4A11600E49086000210E4AAF
:10114000116005210A4A116009490968C903FBD5E4
:1011500000BD10B5040000F013FA2000441E002862
:1011600004D006480068FFF7E1FFF6E710BD000075
:1011700010E000E014E000E018E000E084F3FF1F5E
:10118000F446002804D4494200F013F84042604776
:101190004042002905D45FD000F00BF8404249429C
:1011A0006047494200F005F84942604703460B4357
:1011B000E6D40022030A8B420BD203098B4219D2D8
:1011C00043088B422ED2411A00D2014652411046AA
:1011D0007047FF2209023FD012068B4205D312123C
:1011E00009028B4201D31212090203098B4219D35F
:1011F00000E0090AC3098B4201D3CB01C01A524156
:1012000083098B4201D38B01C01A524143098B429F
:1012100001D34B01C01A524103098B4201D30B0188
:10122000C01A5241C3088B4201D3CB00C01A5241AD
:1012300083088B4201D38B00C01A524143088B4272
:1012400001D34B00C01A5241884200D3401A524188
:10125000CFD201461046704708B500F0F3F908BD3B
:101260000CB4012212060318DA4207D84B18DA42EE
:1012700004D802000A43921802D288420CBC70477C
:10128000FCD08142FAE730B4012100220368001D3E
:10129000002B0BD00468001D0C4202D04D466D1E81
:1012A00064192260241D1B1FF0D0FAE730BC704780
:1012B00000180ED2010E7F390BD449421F3105D4DC
:1012C000C0010122D2071043C84070470020401ED1
:1012D000704700207047FEE79D2102000AD5F446C2
:1012E000524200F007F80122D20710436047000085
:1012F0009D2102000AD002D4491E9218FCD5C905CE
:10130000100A1206524100D3012A484170470122B7
:10131000D20703004B402ED4431A01D2C01AC91879
:1013200030B44B180418240E1B0E22D0FF2C20D0F2
:10133000E31A182B1DDC09021143C40D641E0002C0
:10134000104394461925ED1A0A00AA40D9404518C1
:1013500001D36D08A41CE405D209280A2D062A43EE
:101360006546AA41604103181B0EFF2B01D3C00D37
:10137000C00530BC7047514006E05140CCE7012227
:10138000D20703004B40F8D4431A03D2C01AC9183D
:101390005040514030B44B18090211430418240E38
:1013A0001B0E40D0FF2C3AD025009D410BD31ED8F8
:1013B000C50D4002401A0BD3ED050100400AC905D6
:1013C00091416841D5E7C50D40024918401AD0D077
:1013D00001214008491C0018FCD58C4204D36D1A29
:1013E000000AED054019C4E7E8051040C1E7182DD3
:1013F000BFDCAC1C0D00E140E5414D40012D4941F1
:10140000C40D00021043451A01D46D199543641EA2
:10141000E405280A2D069541604130BC7047FF2B3A
:10142000A7D1D843A5E72442A3D10020A1E7FEE736
:101430000CB4012212060318DA4207D84B18DA421C
:1014400004D802000A43921802D281420CBC7047B1
:10145000FCD088420CBC704730B405004D400122DE
:10146000D20715404B180418240E2ED01B0E32D074
:10147000FF2C34D0FF2B3AD0E418000209021043AD
:101480001143000A090A9446C2B24A43000AC3B291
:101490004B43000A4843110A5B181A43D2B2190A97
:1014A000091801D44918641E080A7F3C23DBFE2C6E
:1014B00008DAE4050906114363469941604128436F
:1014C00030BC7047FF20C005F9E728001B0EFF2B3A
:1014D000F6D1D043F4E72800FF2CF1D1F9E7400220
:1014E000F7D1FF2B01D14902F3D1E005E7E7D80599
:1014F0004902E4D0EDE743020020641CDFD15B1217
:101500009B1CDCD9D805DAE70122D2070118090EA5
:101510007F3910D449421F310FD4001805D2C001C1
:101520001043C84000D5D0437047C0011043C840A5
:1015300005D440427047002070470042F3D51000A8
:101540007047FEE770B4103A03D378C9103A78C0F8
:10155000FBD2530701D318C918C001D508C908C068
:10156000D20704D30B880380891C801C002A01D574
:101570000B78037070BC7047002800D5404270475C
:1015800000B587B0684626491822FFF7DBFF2548DB
:1015900025490860244800686946244A1278D2B276
:1015A000D2085207520F02235A4389184989FFF77C
:1015B00000FE1D4908601C48006869461C4A1278F4
:1015C000D2B2520902235A43895AFFF7F2FD164953
:1015D00008601548006817490968090F8907890FCD
:1015E000491CFFF7E6FD14490860134800681149DB
:1015F0000A681100C901C90F491CFFF7DAFD0F493C
:101600000860094800680B490A681100C902C90F3F
:10161000491CFFF7CEFD0A49086007B000BD000075
:10162000445C0000008038017CF3FF1F004006404E
:10163000014006402480044084F3FF1F88F3FF1F0D
:1016400080F3FF1F7047FEE780B5734800680028ED
:1016500017D17248006872494968FFF701FE10D23D
:1016600070480068401C6F4908606F4800686D4909
:101670000968884205DA0120674908600020694945
:10168000086065480068012817D1654840686749C7
:101690000968FFF7E5FD04D265480068401C64490D
:1016A00008606448006862490968884205DA0220D7
:1016B0005949086000205E490860574800680228C0
:1016C00021D1574800695649C968FFF7C9FD04D2BE
:1016D00059480068401C584908605148C068504942
:1016E0000969FFF7BDFD04D254480068401C534906
:1016F00008604B48406852490968FFF7B1FD02D2C3
:1017000003204549086044480068032822D14D4819
:10171000006800281ED14848006848490968884286
:101720000CDA002045490860002043490860012088
:10173000454908600220434908600BE000203F490A
:10174000086000203C4908600120404908600120F1
:101750003C4908603C48006801280BD13C483D49A1
:1017600008603D480068401C3B4908600021322069
:10177000FFF7E0FB3548006801280BD137483549B1
:10178000086037480068401C354908600021312056
:10179000FFF7D0FB334800682F490968884205DB12
:1017A000304800682E49096888421ADA00201D492D
:1017B000086000201E4908600020274908600020BA
:1017C0002749086000201D49086000201A49086068
:1017D00000201D49086000201C49086004200E49B3
:1017E000086018480068012803D0164800680228DD
:1017F00010D11D480068401C1B4908601B48006848
:1018000019490968884205DA00200E49086000205D
:101810001549086001BD000030F4FF1FA4F0FF1F50
:1018200040F3FF1F3CF4FF1F94F0FF1FA8F0FF1FC1
:1018300040F4FF1F98F0FF1F48F4FF1F44F4FF1F00
:10184000ACF0FF1F50F4FF1F34F4FF1F38F4FF1FEC
:1018500000007042FCF3FF1F54F4FF1F000070C231
:1018600058F4FF1FA0F0FF1F4CF4FF1F9CF0FF1F58
:10187000F8B5002500F054FB00F02AFA002004001F
:1018800024B2052C3FDAA74824B204216143405812
:10189000A54924B2095D401AFFF71EFD0700A248C2
:1018A00024B2005DFFF724FD0100A04824B2042209
:1018B00062438058FFF763FD0100380000F0B8FC78
:1018C0009B4924B2042262438850994824B20421DF
:1018D000614340580021FFF7C3FC05D8954894495F
:1018E00024B2042262438850914824B20421614307
:1018F00040589149FFF7B0FD904924B20422624359
:101900008850641CBCE78748406887494978401A7A
:10191000FFF7E2FC07008A480A21405E82494978C5
:10192000401AFFF7D9FC0100380000F081FC0600E6
:1019300030000021FFF794FC01D87E4806007E4865
:101940003100FFF789FD7F4908600020040024B2C0
:10195000032C0FDA79482DB20421694340587749A6
:1019600024B2042262438958FFF77AFC00D2250092
:10197000641CECE771482DB2042169434058724958
:101980000860714800687149FFF76AFC0BD2704823
:101990000021405E050069482DB20421694340588A
:1019A0006949086001E06A4805802DB26948002154
:1019B000405E281A00F02CFC022802DA65480580F7
:1019C00003E064480021405E0500634800786349F5
:1019D00008802DB2002D12D161480068FFF77CFC11
:1019E00056494968FFF724FD09D84E480068FF2191
:1019F000F631884203DB00205749087055E02DB2CC
:101A0000002D08D156480068FFF766FC4B4949682D
:101A1000FFF726FC09D32DB2012D0ED1474880686F
:101A200046490968FFF71CFC07D201204A490870A3
:101A3000424800689349086037E02DB2012D06D175
:101A40003E4800683D498968FFF70AFC0BD32DB278
:101A5000022D10D142484068FFF73EFC37494968E3
:101A6000FFF7FEFB07D202203B490870334880682D
:101A70008549086019E02DB2022D12D1384840681E
:101A8000FFF72AFC2D494968FFF7D2FC09D8254801
:101A90008068FF21F631884203DB03202E4908705D
:101AA00003E02E4800882C4908702B4800782B4909
:101AB0000022895E401A00F0ABFB022804DB2748B5
:101AC00000882549087003E02348007823490880EE
:101AD000724800686D4908601F480078002803D1EB
:101AE0006B486E4908601CE01B480078012803D051
:101AF0001948007802280DD1104880680F490968FC
:101B0000FFF73DFCFFF700FD00B2FFF7E5FB63497F
:101B1000086006E010480078032802D15D485F495C
:101B20000860F1BD2CF3FF1F48F0FF1F00F0FF1FFE
:101B300054F3FF1F6F12833A0000C84240F3FF1FA7
:101B4000A8F2FF1F04F4FF1F08F4FF1F0000A040CD
:101B5000D0F0FF1FD2F0FF1FD8F0FF1FD4F0FF1FFF
:101B600014F0FF1F80B54E4800684B490860002004
:101B700040B263280CDA4B4940B204224243891830
:101B80004968484A40B204234343D150401CEFE720
:101B9000424800684449086000204149086000202C
:101BA00042490860002042490860002252B2642A7B
:101BB00048DA3C4852B20421514340583D49FFF7AE
:101BC00037FC0ED8374852B20421514340583A49A5
:101BD000FFF746FB05D232480068401C30490860D8
:101BE0002EE0304852B20421514340583349FFF7A8
:101BF0001FFC0ED82B4852B20421514340582D49A6
:101C0000FFF72EFB05D22A480068401C28490860CF
:101C100016E0244852B20421514340582649FFF7A8
:101C200007FC0DD81F4852B20421514340582449A3
:101C3000FFF716FB04D21D480068401C1B490860D2
:101C4000521CB3E700201F49086000201E490860AD
:101C500000201E49086012480068502802DB01205D
:101C600018490860114800680A2802DB012016495B
:101C700008600F4800680A2802DB01201349086049
:101C800001BD00000CF4FF1F10F4FF1F00F4FF1F44
:101C9000000070C20000704218F4FF1FFCF3FF1F29
:101CA00014F4FF1FDCF0FF1F68F2FF1F1CF4FF1F7E
:101CB00020F4FF1FFFFF9FC10000A041000096C35A
:101CC0000100964324F4FF1F28F4FF1F2CF4FF1F8C
:101CD00080B58D480068FA214900884247DA8A4871
:101CE0004068FA214900884241DA87488068FA2131
:101CF000490088423BDA8448006883494968401AB1
:101D0000052834DA804800687F498968401A052828
:101D10002DDA7D4840687C498968401A052826DA12
:101D20007948006878494968401A0321C9438842C4
:101D30001DDB7548006874498968401A0321C9434E
:101D4000884214DB704840686F498968401A032153
:101D5000C94388420BDB6C4800686C4908706A48CC
:101D600040686A4948706848806868498870664871
:101D70000068FA21490088427BDA63484068FA210A
:101D80004900884275DA60488068FA214900884233
:101D90006FDA5D48C068FA214900884269DA5A481A
:101DA0000069FA214900884263DA574800685649B9
:101DB0004968401A05285CDA534800685249896826
:101DC000401A052855DA504840684F498968401A3A
:101DD00005284EDA4C4840684B49C968401A052826
:101DE00047DA4948406848490969401A052840DAF5
:101DF0004548006844494968401A0321C94388425C
:101E000037DB4148006840498968401A0321C943CB
:101E100088422EDB3C4840683B498968401A0321D0
:101E2000C943884225DB384840683749C968401AA9
:101E30000321C94388421CDB3348406832490969A1
:101E4000401A0321C943884213DB2F4800682F49F9
:101E500008702D4840682D4948702B4880682B49F0
:101E600088702948C0682949C870274800692749EF
:101E7000087127480068002845D12648406826494F
:101E8000FFF7EEF93FD220480068FFF725FA01007E
:101E900022480068FFF7E4F905D21B480068FFF705
:101EA0001BFA1E49086018488068FFF715FA010000
:101EB0001A488068FFF7D4F905D213488068FFF705
:101EC0000BFA164988601048C068FFF705FA010050
:101ED0001248C068FFF7C4F905D20B48C068FFF785
:101EE000FBF90E49C86008480069FFF7F5F90100E1
:101EF0000A480069FFF7B4F905D203480069FFF703
:101F0000EBF90649086101BD2CF3FF1F48F0FF1FE4
:101F100030F4FF1F40F3FF1F0000B44200F0FF1F2A
:101F2000F0B587B00020040024B2052C32DA02217B
:101F30002D2000F050FAB24924B2022262438852A6
:101F40000221112000F047FAAD4924B20222624377
:101F50008918488102212F2000F03DFAA84924B2B7
:101F600002226243891888820221102000F033FA8D
:101F7000A34924B2022262438918C88302212C207B
:101F800000F029FA9E4924B202226243891808858A
:101F9000641CC9E70020040024B2052C50DA00209C
:101FA000060036B2042E49DA002005002DB20420C6
:101FB00036B2801B85423FDA914824B20A21614340
:101FC00040182DB20221694340180221405E8C491D
:101FD00024B20A22624389182DB202226A43895E22
:101FE000884227DA864824B20A21614340182DB27C
:101FF0000221694340180221405E0700804824B254
:102000000A21614340182DB20221694340187C49DE
:1020100024B20A22624389182DB202226A43895AE5
:102020004180774824B20A21614340182DB2022131
:10203000694347526D1CB9E7761CB2E7641CABE7F5
:102040000020040024B2052C27DA6D4824B20A21AE
:102050006143401840886A4924B20A2262438918C1
:1020600089884018664924B20A2262438918C988BF
:102070004018694624B2022262438852684624B25C
:1020800002216143405E0321FFF790F803A924B2C7
:10209000022262438852641CD4E70020040024B268
:1020A000022C41DA564824B2022161434018022131
:1020B000405E544924B2042262438850504824B2FE
:1020C0000221614340180C21405E4E4924B2042293
:1020D00062438918C8604A4824B20221614340180B
:1020E0001621405E474924B2042262438918886160
:1020F000434824B20221614340182021405E4149F7
:1021000024B204226243891848623D4824B2022165
:10211000614340182A21405E3A4924B204226243B6
:1021200089180863641CBAE70020040024B2052C57
:102130000CDA03A824B202216143405E314924B283
:102140000C22624389188860641CEFE700200400B9
:1021500024B2032C37DA2C4800682A4924B204221E
:102160006243895840182849086027484068254933
:1021700024B2042262438918C96840182249486081
:10218000214880681F4924B2042262438918896962
:1021900040181D4988601C48C0681A4924B20422AE
:1021A00062438918496A40181749C860164800698F
:1021B000144924B2042262438918096B4018124959
:1021C0000861641CC4E70020040024B2052C14DA62
:1021D0000D4824B20421614340580321FEF7E6FF75
:1021E0000A4924B20422624388500020064924B2DE
:1021F000042262438850641CE7E707B0F0BD00008A
:10220000A8F2FF1F6CF2FF1F68F3FF1F2CF3FF1FE4
:1022100000B5002801D54142080080B200BD80B55C
:102220000021FFF71DF802D280210906484002BDB7
:1022300030B405004D400122D20715404B18041858
:10224000240E28D01B0E2FD0FF2C34D0FF2B37D0DC
:10225000E41A000209021043114343084808D10D53
:102260001B1A02D2641EDB181B18DB18834200D332
:102270001B1A4941F9D37F3426DDFE2C08DAE40528
:102280004808C907194391416041284330BC704751
:10229000FF20C005F9E728001B0E03D0FF2BF5D166
:1022A0004902F3D0D043F1E7FF2C01D14002F9D12C
:1022B000FF20C005E9E74002F4D1FF2BF8D1F1E798
:1022C00028004902E2D0EDE70B0200202442DCD1D5
:1022D0005B129B1CD9D9D805D7E7FEE700B50100F2
:1022E0000020C9B20A00002A1ED0012A1FD0062AE7
:1022F00020D0072A21D0082A22D0092A23D00A2A4E
:1023000024D00B2A25D0102A26D0112A27D0122A11
:1023100028D0132A29D02C2A2AD02D2A2BD02E2A95
:102320002CD02F2A2DD02FE0002210002EE00122E9
:1023300010002BE00222100028E00322100025E00C
:102340000422100022E0052210001FE006221000E7
:102350001CE00722100019E00822100016E00922F4
:10236000100013E00A22100010E00B2210000DE014
:102370000C2210000AE00D22100007E00E221000CF
:1023800004E00F22100001E000221000C0B200BDE6
:1023900023480068802189050143214801602148C4
:1023A000006800201F49086030201F490860002095
:1023B0001E490860704738B5040000252000C0B2EF
:1023C000FFF78CFF0500174800680121A940014371
:1023D0001448016031BDF8B504000F00002620004C
:1023E000C0B2FFF77BFF06002000C0B2FFF7E3FF9B
:1023F0000D480068FFB2B9000C220A4002430A48A7
:102400000260F6B2F006C00E09490860084800688C
:102410000006FBD50748006805002805000DF2BD41
:102420001480044018B0034008B0034004B00340D7
:1024300000B0034010B0034080B5002200214120CD
:10244000FEF7D6FC002200213E20FEF7D1FC03213E
:10245000022000F05BFC002200211920FEF7C8FCDE
:10246000002200213D20FEF7C3FC00220021442071
:10247000FEF7BEFC002200212B20FEF7B9FC002253
:1024800000213820FEF7B4FC002200213920FEF79D
:10249000AFFC002200214020FEF7AAFC01BD10B5D0
:1024A00000244120FEF72AFD012818D00A20FEF75B
:1024B00050FE4120FEF722FD012800D182E00121DB
:1024C0001820FEF737FD012004004120FEF716FD1D
:1024D0000128FAD100211820FEF72CFD72E03E20E1
:1024E000FEF70CFD012817D00A20FEF732FE3E2031
:1024F000FEF704FD012865D001211820FEF71AFD22
:10250000022004003E20FEF7F9FC0128FAD1002148
:102510001820FEF70FFD55E01920FEF7EFFC01280B
:1025200017D00A20FEF715FE1920FEF7E7FC012858
:1025300048D001211820FEF7FDFC032004001920DB
:10254000FEF7DCFC0128FAD100211820FEF7F2FC8E
:1025500038E03D20FEF7D2FC012817D00A20FEF714
:10256000F8FD3D20FEF7CAFC01282BD001211820E0
:10257000FEF7E0FC042004003D20FEF7BFFC01282C
:10258000FAD100211820FEF7D5FC1BE04420FEF70D
:10259000B5FC012816D00A20FEF7DBFD4420FEF72B
:1025A000ADFC01280ED001211820FEF7C3FC052048
:1025B00004004420FEF7A2FC0128FAD100211820D3
:1025C000FEF7B8FC2000C0B210BD000080B5FFF7D8
:1025D00066FF01280CD000D2CEE2032800D133E1FF
:1025E00000D29CE0052800D1A3E200D2F2E1C3E2D0
:1025F00099480078002803D101209749087002E02B
:1026000000209549087095480078012814D000D220
:1026100084E0032821D018D305282ED025D30728FD
:102620003CD032D3092849D040D30B285BD04DD3BE
:102630000D2868D05FD371E089480168FE208005CD
:10264000FEF765FE8649086068E0864801688648AE
:10265000FEF75DFE8349086060E0844801688248B7
:10266000FEF755FE8149086058E0814801687E48C0
:10267000FEF74DFE7E49086050E07E4801687A48CA
:10268000FEF745FE7B49086048E07B480168FE2074
:102690008005FEF73CFE784908603FE07748016816
:1026A0007148FEF734FE7549086037E074480168E8
:1026B0006D48FEF72CFE724908602FE071480168F2
:1026C0006948FEF724FE6F49086027E06E480068FD
:1026D00000F028FD00226D4B00F03DFD00F015FEDE
:1026E000694908601AE06A4801685F48FEF70FFE12
:1026F0006749086012E0BB4801685B48FEF707FEC7
:10270000B84908600AE0B8480CC808380020B74942
:1027100000F021FDB44A03C2083AFFE72CE24E481C
:102720000078002803D101204B49087002E0002006
:102730004949087049480078012814D000D282E045
:10274000032820D017D305282DD024D307283AD02A
:1027500031D3092847D03ED30B2859D04BD30D286D
:1027600066D05DD36FE03E480168BE48FEF7CFFDFE
:102770003B49086067E03B480168BB48FEF7C7FD7E
:10278000384908605FE039480168B748FEF7BFFD87
:102790003649086057E036480168B348FEF7B7FD90
:1027A000334908604FE033480168AF48FEF7AFFD9A
:1027B0003049086047E030480168AA48FEF7A7FDA5
:1027C0002D4908603FE02D480168A748FEF79FFDAE
:1027D0002A49086037E02A480168A348FEF797FDB8
:1027E000274908602FE0274801689F48FEF78FFDC2
:1027F0002449086027E02448006800F093FC002288
:10280000B54B00F0A8FC00F080FD1F4908601AE0FD
:102810001F4801689448FEF77AFD1D49086012E0E0
:10282000704801689048FEF772FD6E4908600AE042
:102830006D480CC808380020BC4900F08CFC6A4A7E
:1028400003C2083AFFE797E103480078002821D146
:1028500001200149087020E0B8F4FF1FD6F0FF1FE7
:1028600064F0FF1F6CF0FF1F0000204194F3FF1F76
:1028700098F3FF1FB8F0FF1FBCF0FF1F5CF4FF1FB1
:102880009CF3FF1FA0F3FF1FACF3FF1F0000E03F0E
:10289000B0F0FF1F0020B9490870B948007801283E
:1028A00014D000D295E0032826D01CD3052835D0BB
:1028B0002BD3072848D03AD3092857D04DD30B281B
:1028C0006AD05CD30D2879D06FD382E0B04800681D
:1028D00000F028FCABA20CCA00F03DFC00F015FD96
:1028E000AB49086075E0AB480168FE208005FEF743
:1028F0000EFDA84908606CE0A7480168FE2080052D
:10290000FEF705FDA449086063E0A4480168FE20C5
:102910008005FEF7FCFCA14908605AE0A048016868
:10292000FE208005FEF7F3FC9D49086051E09D48BC
:10293000006800F0F7FB93A20CCA00F00CFC00F05A
:10294000E4FC9849086044E097480168FE2080054F
:10295000FEF7DDFC944908603BE094480168FE20E6
:102960008005FEF7D4FC9149086032E09048016888
:10297000FE208005FEF7CBFC8D49086029E08D48DC
:10298000006800F0CFFB7FA20CCA00F0E4FB00F06F
:10299000BCFC884908601CE087480168FE2080056F
:1029A000FEF7B5FC8449086013E00E480168FE207C
:1029B0008005FEF7ACFC0B4908600AE00A480CC829
:1029C00008380020714900F0C6FB074A03C2083AE4
:1029D000FFE7D1E069480078002809D10120674964
:1029E000087008E0B4F0FF1F30F0FF1F0000244023
:1029F00000206249087062480078012814D000D293
:102A000096E0032825D01CD3052837D02ED30728DD
:102A100049D03BD3092856D04DD30B286BD05DD37A
:102A20000D2878D06FD383E05948006800F07AFB16
:102A3000A4A20CCA00F08FFB00F067FC54490860A8
:102A400076E0544801680748FEF761FC5149086088
:102A50006EE0514801680348FEF759FC4E49086092
:102A600066E000BF000080BF000020C14B48016845
:102A70009648FEF74CFC4949086059E0484801680F
:102A80009248FEF744FC4649086051E0454800681A
:102A900000F048FB8BA20CCA00F05DFB00F035FC97
:102AA0004049086044E0404801688848FEF72FFC30
:102AB0003D4908603CE03D4801688448FEF727FC3A
:102AC0003A49086034E03A4801688048FEF71FFC44
:102AD000374908602CE000BF0000E0BF35480068BF
:102AE00000F020FB77A20CCA00F035FB00F00DFCD3
:102AF000304908601CE0304801687448FEF707FC64
:102B00002D49086014E02D4801687048FEF7FFFB6E
:102B10002A4908600CE02A480CC8083800206C4993
:102B200000F019FB264A03C2083A01E0000024C065
:102B300022E012480078002803D101200F490870D4
:102B400002E000200D49087062480078002803D197
:102B500001206049087002E000205E4908700848C2
:102B60000078401C06490870054800780E2802DBF2
:102B7000012003490870FFE701BD00BFB8F4FF1F43
:102B8000D6F0FF1F9A9999999999B93F0000F03FA3
:102B900064F0FF1F6CF0FF1F94F3FF1F98F3FF1FFB
:102BA000B8F0FF1FBCF0FF1F5CF4FF1F9CF3FF1F7A
:102BB000A0F3FF1FACF3FF1FB0F0FF1FB4F0FF1F27
:102BC00030F0FF1F10B544480078012813D078D3A7
:102BD000032820D017D305282DD024D307283AD096
:102BE00031D3092847D03ED30B284DD04BD30D28E5
:102BF0005AD051D365E002233848026800212320CF
:102C0000FEF76AF85DE001233548026802211420CE
:102C1000FEF762F855E003233248026803211420CE
:102C2000FEF75AF84DE001232F48026804211420D2
:102C3000FEF752F845E001232C4802680221572094
:102C4000FEF74AF83DE00323294802680321572094
:102C5000FEF742F835E00123264802680421572098
:102C6000FEF73AF82DE001232348026806211420DC
:102C7000FEF732F825E001232048026807211420DE
:102C8000FEF72AF81DE01CE002231D480268062119
:102C90005720FEF721F814E002231A4802680721A2
:102CA0005720FEF719F80CE000231C00164803C853
:102CB00000F02BFB0200230008215720FEF70CF840
:102CC000FFE710BD9A9999999999B9BF000080BF03
:102CD0000000F0BFB7F4FF1FD6F0FF1F64F0FF1F26
:102CE0006CF0FF1F94F3FF1F98F3FF1FB8F0FF1F56
:102CF000BCF0FF1F5CF4FF1F9CF3FF1FA0F3FF1F3E
:102D0000B0F0FF1FB4F0FF1F30F0FF1F00B5C0B2DE
:102D1000002803D0022838D01BD387E0AF4A1268BE
:102D200020231343AD4A1360C9B2002902D0012900
:102D300007D00DE0AA4A1268AA4B1340A84A1360B4
:102D400006E0A74A1268A84B1340A54A1360FFE7A4
:102D50006CE0A24A126840231343A04A1360C9B230
:102D6000002902D0012908D00EE09D4A1268802374
:102D7000DB0013439A4A136006E0994A12689B4BA2
:102D80001340974A1360FFE750E0944A126880238B
:102D90001343924A1360C9B2002908D0022920D0F7
:102DA00012D3042933D027D3052937D03DE0CF4AA9
:102DB000126803239A43CD4B1A60CC4A126802234F
:102DC0001343CA4A136030E0C84A12680C239A437E
:102DD000C64B1A60C54A126808231343C34A1360DE
:102DE00023E0C24A126830239A43C04B1A60BF4A9C
:102DF0001268BE4B1A6018E0BC4A1268C0239A439E
:102E0000BA4B1A60B94A1268B84B1A600DE0B74A5B
:102E10001268744B1340B54A136006E0B34A126857
:102E2000714B1340B14A1360FFE7FFE700BDF0B5F7
:102E300083B004000D0017001E002900C9B2200055
:102E4000C0B2FFF763FFAE480068FA21890048432B
:102E5000019001980121FEF7ACF9FFB2FA21890037
:102E60007943FEF7A6F9A7490880A6480088401EC6
:102E7000A4490880E4B2002C03D0022C17D00BD355
:102E800020E0A0480088401C7043FA214901FEF769
:102E900090F96946088015E09A480088401C704304
:102EA000FA214901FEF785F9694608800AE095484C
:102EB0000088401C7043FA214901FEF77AF96946FF
:102EC0000880FFE78F4800888F49E4B204226243FC
:102ED000895888608C48E4B2042161434058EDB2BF
:102EE0000821694340188849E4B2042262438958A2
:102EF000EDB208226A438918C96804229143C1606F
:102F00008148E4B2042161434058EDB2082169438D
:102F100040187D49E4B2042262438958EDB2082288
:102F20006A438918C96828220A43C2600820764982
:102F3000E4B2042262438958086000207249E4B276
:102F4000042262438958C8646F48E4B20421614393
:102F50004058EDB20821694340186946098801616B
:102F600000206949E4B20422624389584860F7BDF1
:102F7000F0B504000D001600E4B2002C03D0022CC2
:102F800015D00AD31DE05F480088401C7043FA2129
:102F90004901FEF70EF9070013E05A480088401C6B
:102FA0007043FA214901FEF704F9070009E055488A
:102FB0000088401C7043FA214901FEF7FAF8070027
:102FC000FFE75148E4B2042161434058EDB20821C3
:102FD00069434018BFB20761F0BD0000148004408F
:102FE0000C800440FFFEFFFFFFFDFFFFFFF7FFFF28
:102FF00010B50400E4B2002C03D0022C2FD017D35C
:1030000043E04248006820210143404801604048B5
:103010000068404901403E480160272000F0A6F9C1
:103020003B480068802189040143394801602CE055
:103030003648006840210143344801603448006844
:103040003549014032480160202000F08FF93048B6
:1030500000688021C90401432D48016015E02B4818
:1030600000688021014329480160294800682B49F4
:10307000014027480160002029490860052000F030
:1030800075F9234800682249086010BD10B5040096
:103090002000C0B2FFF7ACFF1B48E4B2042161433B
:1030A000405800681849E4B2042262438958086015
:1030B0001548E4B2042161434058006818210143D7
:1030C0001148E4B2042262438058016000200E4996
:1030D000E4B2042262438958486010BD0A49C0B274
:1030E000042250430858406880B270471080044062
:1030F0000021054AC0B204234343D25851607047AF
:1031000080F3FF1FA8F4FF1F6C5C000014800440D4
:103110000C800440FFFFFFFCFFFFFFF3FFFFFFCF2A
:103120004CA00340012212060118CA420AD28A4268
:103130000DD83822120609098918C20FD207114387
:103140004007704700D049080909014301E0C10F59
:10315000C90700207047F0B40125ED070F005F405C
:103160004FD48B4200D1824205D98446100062467A
:103170008C4619006346DF184C18640D7F0D3AD059
:10318000661C760537D0E61B352E34DCDB022B437C
:10319000DB0A0C0DC9022943C912202E0DDB1700D2
:1031A000203E06D01F00F741F3405F400026012A71
:1031B0007741C01871410DD217E01700F741F24076
:1031C0005740F3415A40B340F3405A40002680181C
:1031D00059410AD3A21C52050FD0C207012F7241D8
:1031E00017004008CB0718434908641C240542080F
:1031F000AF4170416141F0BC7047641C2105002063
:10320000F9E76B4010E06B40ABE7F742F3D1E943DD
:10321000F1E72442EFD100200021ECE7F0B40125D2
:10322000ED070F005F40EED40C00871A9C4105D2D9
:10323000C01BA141D219634169406B40AE0ADF183F
:103240004C18F442E1D2640D7F0DE2D0E61B362E1D
:10325000D1DCDB022B43DB0AA4460C0DC902294357
:10326000C90A012E28DC04D1D6075208DF073A43E9
:103270005B08EF0A76429041994114D039423BD124
:10328000B61940414941761C394204D1761C0018D8
:1032900049413942FAD0B9436746B74208D9A41B1D
:1032A00024052143A7E70042EAD13642E8D1A2E74C
:1032B000E40AE10700209EE7202E0BDD203E1F00E0
:1032C000F340F7415F40012A002257417E42984176
:1032D00091410BE01700F741F2405740F3415A404B
:1032E000B340F3405A407E42904199410A0303D2D1
:1032F000641EB619404149410027641E2405420856
:10330000AE4178416141F0BC7047012252054B1833
:10331000DA4201D9581570475B0D0722D2019B1A7A
:1033200010D9FF2B1DD2DB050122D2070A4013431F
:103330000903020D1143490AC200524100D9491C38
:10334000C81870470AD1800A0A0302435212921C1D
:1033500004D9D3070B40D00518437047C80FC007E6
:103360007047C80F0002FF30C005704710B503005A
:10337000DBB25B091900C306DB0E1A00C9B20029D3
:1033800003D0022911D008D316E00C4B1B6801248E
:1033900094401C43094B1C600EE0094B1B68012440
:1033A00094401C43064B1C6006E0064B1B6801243E
:1033B00094401C43034B1C6010BD00BF08900440A8
:1033C0000C90044010900440F0B583B0D6480068DB
:1033D00028490968802212065140FDF741FF06D3B3
:1033E00024480068D0490968FDF73AFF48D2CE4822
:1033F000016821480068FEF72FF8204908601F483F
:1034000000680021FEF714F813D21A480168C74873
:103410000068FEF721F8010018480068FDF720FF5A
:1034200007D214480168C1480068FEF715F813492F
:103430000860124800680021FDF712FF28D20D48ED
:103440000168802000064140B8480068FEF704F893
:103450000A490968FDF704FF1AD20648016880206E
:1034600000064140B1480068FDF7F6FF03490860D7
:103470000EE000BF60F0FF1F5CF0FF1FB0F3FF1F06
:10348000A9480168A9480068FDF7E6FFDA49086025
:10349000DA480068012809D1D9480068D94908608C
:1034A0000020D94908700020D8490870D848006821
:1034B00001281AD1D7480068D2490860CE48006870
:1034C000FFF730FE02000B0014001D00D2480CC8AC
:1034D00008380020D149FFF73EFE22002B0000F003
:1034E0005DFB02D20120C8490870CD480068012860
:1034F00019D1C8480068C34908600020C949C64AB4
:103500000CCAFFF78BFE02000B0014001D00BA4826
:103510000068FFF707FE22002B0000F03FFB02D2FD
:103520000120BA490870B8480078012808D1B2488B
:103530000068BD49FDF794FE02D20220B24908702E
:10354000B2480078012808D1AB480068B749FDF7B8
:103550006FFF02D80220AD490870AB4800780228FE
:10356000AA4800780228A4480068FFF7DBFD0200A3
:103570000B00A94803C800F011FB05D2A64803C8F8
:10358000FFF7C3FE9C4908609B480068FFF7CAFD2F
:10359000A14A0CCA80242406634000F0FFFA08D236
:1035A0009D4803C8802212065140FFF7AEFE9249A3
:1035B000086094480068FFF7B5FD009001919C48B1
:1035C0000168FE208005FDF7A2FEFFF7ABFD0600B7
:1035D0000F009848016898480068FDF73DFFFFF725
:1035E000A1FD04000D0084480068FFF79BFD93A235
:1035F0000CCA00F0ECFA00F0ADFB22002B0000F04A
:10360000E6FA04000D008F4801688020C005FDF730
:1036100023FFFFF787FD02000B002000290000F0C8
:10362000F5FC02000B0030003900FFF7F7FD009AAF
:10363000019B00F0CCFAFFF768FE874908607148EB
:103640000068FFF76FFD0090019179480168FE2046
:103650008005FDF75CFEFFF765FD06000F0075486D
:10366000016875480068FDF7F7FEFFF75BFD040091
:103670000D0061480068FFF755FD70A20CCA00F00C
:10368000A6FA00F067FB22002B0000F0A0FA04006D
:103690000D006C4801688020C005FDF7DDFEFFF7D6
:1036A00041FD02000B002000290000F0AFFC3200B9
:1036B0003B00FFF750FD009A019B00F088FAFFF7EE
:1036C00024FE64490860644800680021FDF7B0FEEC
:1036D00022D25D480068FDF7FFFD01005E480068EA
:1036E000FDF7BEFD18D259480068FDF7F5FD010051
:1036F00059480068FDF743FE574908605448006880
:10370000FDF7EAFD54490968FDF7A6FE514909682D
:10371000FDF7FDFD4F4908604E4800680021FDF7A8
:1037200087FE27D2484803E0FCF3FF1F58F0FF1F35
:103730000068FDF7D1FD010046480068FDF790FDE7
:1037400018D242480068FDF7C7FD010041480068F3
:10375000FDF715FE3F4908603D480068FDF7BCFDD8
:103760003C490968FDF778FE3B490968FDF7CFFD44
:1037700039490860384800680021FDF771FD19D209
:1037800032480068FDF7A8FD010033480068FDF7E6
:10379000F6FD314908602E4801684842FDF79CFD5E
:1037A0002D490968FDF758FE2A490968FDF7AFFD64
:1037B00028490860274800680021FDF751FD19D20B
:1037C00022480068FDF788FD010022480068FDF7E7
:1037D000D6FD204908601E4801684842FDF77CFD7F
:1037E0001C490968FDF738FE1B490968FDF78FFD84
:1037F00019490860F7BD00BFB0F3FF1F24F4FF1F95
:10380000B0F0FF1FC0F0FF1FB5F4FF1FB6F4FF1F9D
:1038100028F4FF1FB4F0FF1F30F0FF1F000024C08A
:103820002CF4FF1F000024400000F0C10100F04113
:10383000A8F3FF1F64F0FF1F74F0FF1FCAC342AD5F
:1038400069DE913F78F0FF1F68F0FF1F90F3FF1FC4
:103850008CF3FF1F64F4FF1F60F4FF1F38B5B348FB
:103860000068B3490968FDF78AFDB2490860B248AB
:103870000068B2490968FDF782FDB149086000207F
:10388000B04908600020B04908600020AF490860D6
:103890000020AF4908600024092C14DAAD48042147
:1038A000614340184068AB49042262438850A548F0
:1038B0000068A849042262438958FDF728FDA14900
:1038C0000860641CE8E79A480068A349FDF7C8FC53
:1038D0000DD29A480068A049FDF7C2FC07D295486E
:1038E00000689E49FEF7A4FC9A49486203E09148AB
:1038F000006898494862934801689648406AFDF715
:1039000006FD904908600024092C14DA8648042139
:1039100061434018406884490422624388508A48C1
:1039200000688149042262438958FDF7F0FC86490A
:103930000860641CE8E77E4800688749FDF790FC52
:103940000DD27E4800688449FDF78AFC07D27C4886
:1039500000688249FEF76CFC7349486203E07848CE
:10396000006871494862784801686F48406AFDF70D
:10397000CEFC754908607A4800687A490860794841
:10398000016870480068FDF767FD70490860754878
:1039900001686D480068FDF75FFD6D4908606B4880
:1039A000006871490968802212065140FDF758FCF1
:1039B00006D26D48006880210906484063490860C6
:1039C0006948006861490968FDF74AFC03D2664806
:1039D00000685E4908605E480068634909688022A3
:1039E00012065140FDF73CFC06D25F48006880217A
:1039F00009064840564908605B4800685449096810
:103A0000FDF72EFC03D2584800685149086057481A
:103A10000068FDF761FC56490968FDF721FC04D2F6
:103A2000FE2080055349086002E0002051490860EB
:103A300051480068FEF7F3FB0500504801683D4817
:103A40000068FDF709FD41490968FDF760FC0100C8
:103A50000C00384800684A490968FDF790FC49495C
:103A60000968FDF7F9FC2100FDF751FC01000C008D
:103A7000304801683F480068FDF7EEFC424909689C
:103A8000FDF7EAFC2900FDF7E7FC2100FDF73FFC0C
:103A900004003E48016838480068FDF7DDFC01007D
:103AA0002000FDF76CFC3A49086033480068FEF7D7
:103AB000B6FB05003148016821480068FDF7CCFCE1
:103AC00023490968FDF723FC01000C001C4800682D
:103AD00030490968FDF753FC2A490968FDF7BCFC29
:103AE0002100FDF714FC01000C0015480168214875
:103AF0000068FDF7B1FC24490968FDF7ADFC290019
:103B0000FDF7AAFC2100FDF702FC01000C001F4894
:103B1000016819480068FDF79FFC2100FDF7F7FBDD
:103B20001D49086031BD000004F3FF1F60F4FF1F52
:103B300098F4FF1F68F4FF1F64F4FF1F9CF4FF1F3D
:103B400074F4FF1FB8F3FF1FBCF3FF1FC0F3FF1F88
:103B5000C4F3FF1FDCF2FF1F0000A0410000204162
:103B600094F3FF1FB4F3FF1F7CF0FF1F70F0FF1FE3
:103B7000B0F3FF1FA4F3FF1FD0F3FF1F6CF0FF1F74
:103B80006CF4FF1F98F3FF1F9CF3FF1FA0F3FF1FB0
:103B9000C8F3FF1F78F4FF1FCCF3FF1F30B40124DC
:103BA00064054D00EC420BD85D00EC4208D80C00D7
:103BB0001C4364000443144304D2994200D1904250
:103BC00030BC7047FCD08B42FAD18242F8E7F0B5A6
:103BD0000E005E400125ED072E40B446AE0ADF1808
:103BE0004C18F44208D2F7420ED2640D01D07F0D7A
:103BF00012D100206146F0BD05D1F74201D87F0DFA
:103C000005D10020C143F0BDFBD1640DF9D00020E7
:103C1000C143490549088FE0E419C902DB02294381
:103C20002B43DB0A460DC00231438E4630B487B2C7
:103C300095B27D432E0CADB2140C7C43A419260C16
:103C4000240425439CB27C43A419190C7943270C06
:103C5000C919A4B20F043C43090C000C97B24743A6
:103C60002E0CBE193543ADB2170C4743360CBF19A5
:103C7000A6B2BF193E043543240C3E0C36199FB240
:103C80004743BF19BCB23E0C89191F0C47437F182C
:103C90003E043443390C704680B297B247432E0C31
:103CA000BE193543ADB2170C4743360CBF19A6B247
:103CB000BF193E043543240C3E0C36199FB24743CE
:103CC000BF19BCB23E0C89191F0C47437F183E0434
:103CD0003443390C77463F0C90B278432E0C801950
:103CE0000604ADB22E43050CA0B22D18120C7A4377
:103CF0005019020C80B2240CA4189AB27A431219FB
:103D000014042043120C89181B0C7B43C91830BCC7
:103D1000EF0A394203D1B61940414941641E6F127E
:103D2000BF0DE41B0BDBFF19BC4211DA2405002791
:103D30004208AE417841614166463143F0BD641CA2
:103D400005D1401C6141CF0201D34908F4E750E797
:103D50005DE7FEE7F0B587B004000D008CA003C856
:103D600022002B00FFF733FF06000F00490049082F
:103D700089A20CCAFFF712FF72D239000022002379
:103D800000F0A5F9104601D8854900E085493200C8
:103D90003B00FFF7E0F900F0B3F90090009800282D
:103DA0004DD000F0D5F900227F4BFFF710FF060041
:103DB0000F007EA003C832003B00FFF708FF02009F
:103DC0000B0020002900FFF729FA04000D0079A05C
:103DD00003C832003B00FFF7FAFE02000B00200090
:103DE0002900FFF71BFA04000D0074A003C832007D
:103DF0003B00FFF7ECFE02000B0020002900FFF75C
:103E00000DFA04000D0000206E4932003B00FFF760
:103E1000DEFE02000B0020002900FFF7FFF904007E
:103E20000D0069A003C832003B00FFF7D0FE02007E
:103E30000B0020002900FFF7F1F904000D000098A5
:103E40008607B60F2000290061A20CCA00F03FF9D6
:103E500040D80022F9239B05FFF7A0FE3AD220E0CC
:103E600020006900490D5C4A914227D0002903D106
:103E70002903090B08431ED0684630C0684600F08D
:103E80007FF90600684630C82000290050A20CCAFD
:103E900000F01DF91ED80022F9239B05FFF77EFED6
:103EA00018D2F00707D500204C4922002B0000F063
:103EB000ADF804000D002000290063E02903090B80
:103EC0000843F8D100F016FA212101600020C04318
:103ED000410857E022002B00FFF779FE02AA03C237
:103EE00002A80CC83EA003C8FFF771FE3EA20CCA90
:103EF000FFF731F902AA0CCAFFF769FE3CA20CCA0F
:103F0000FFF729F902AA0CCAFFF761FE00223A4B1B
:103F1000FFF721F904AA03C202A803C822002B005C
:103F2000FFF755FE0090019102A803C833A20CCA06
:103F3000FFF74DFE33A20CCAFFF70DF902000B008C
:103F400002A803C8FFF743FE0FA20CCAFFF703F94C
:103F5000009A019BFFF73BFE22002B00FFF7FBF8C6
:103F600004000B00F00708D504A803C8220000F0E5
:103F70004DF880221206514004E0200004AA0CCA29
:103F800000F044F807B0F0BD6955C388986BC0BF16
:103F900083C8C96D305FE43F0000A0FFFFFFDF4131
:103FA0000000E03F0000E0BF0000303E0000005095
:103FB000FB21B94100000060B41011400000002056
:103FC00026A6513E5C14D33C000000209A833B3B64
:103FD000FEFFFFFFFFFF3FBEFF0700000000F0BF36
:103FE0006C9E741E68522BBFA908265CB9E7973FE8
:103FF000D5FFB699218BDDBF0000F03FDB995594CA
:104000009A63DFBED625F78675FC663FF0B40E00D6
:104010005E400125ED072E40B446AE0ADF184C186D
:10402000F4423BD2F74241D2640D43D07F0D38D0E9
:10403000E41BC902DB0229432B43CF0ADB0A06003B
:10404000B61A9F4104D2641EB6197F41B6185F416B
:104050006812800D24180018844222DAE80C00212E
:10406000B6197F41B61A9F4102D2B6185F413F1C74
:1040700040414941F4D3241C21DD2405B6197F4178
:10408000B61A9F4105D33743C60737430026012F91
:104090007041614166463143F0BC7047FCD1F74244
:1040A00005D20020C14349054908F3E704D00020A8
:1040B000C143F1E77F0DFAD000206146ECE72442CE
:1040C000FAD1401C61410F03F6D30020E2E730B47F
:1040D000012464054D00EC420BD85D00EC4208D889
:1040E0000C001C4364000443144304D28B4200D1EF
:1040F000824230BC7047FCD09942FAD19042F8E736
:10410000F4464A1805D200F00DF801D58017400892
:10411000604700F007F80121C907884200D908006C
:1041200040426047400DC90208430121C9070843C6
:10413000520D40210901521A521C06D452421F321C
:1041400001D4D0407047C017704700207047FEE789
:10415000010007D5F446404200F004F80122D207DE
:104160001143604742221201D21E004207D002D4FE
:10417000521E0018FCD5C10A400512058918704767
:10418000F1B582B030C849A003C822002B00FFF768
:104190001EFD6A4603C2684603C800220023FFF7DB
:1041A00096FF68460CC802D80020424901E0002072
:1041B0004149FEF7D0FF6A4603C20021684600F07D
:1041C000A1F868460CC80020002100F0E1F84AD0B0
:1041D0003A49FFF7FCFC06000F0039A003C8320083
:1041E0003B00FFF7F4FC02000B0020002900FFF762
:1041F00015F804000D0034A003C832003B00FFF79F
:10420000E6FC02000B0020002900FFF707F804007D
:104210000D002FA003C832003B00FFF7D8FC0200BE
:104220000B0020002900FEF7F9FF04000D0000201C
:10423000294932003B00FFF7CAFC02000B002000B6
:104240002900FEF7EBFF04000D0024A003C8320094
:104250003B00FFF7BCFC02000B0020002900FEF72A
:10426000DDFF04000D00029830C0684603C81DA29F
:104270000CCAFFF793FC06D3684603C81B4A1C4BC5
:10428000FFF725FF07D80022074B684603C800F058
:1042900091F86A4603C2684603C8FFF731FF8007FA
:1042A000800F03B0F0BD00BF0000E04183C8C96DBE
:1042B000305FE43F0000E03F0000E0BF0000303E20
:1042C00000000050FB21B94100000060B410114013
:1042D0000000002026A6513E5C14D33C00000020C4
:1042E0009A833B3B0000C0FFFFFFDFC10100C0FF1E
:1042F000FFFFDF4180B5024800F0BFF802BD0000BB
:10430000CCF0FF1F42685200520D1F4B9A4209D158
:104310004168090304D10068002801D101207047D9
:104320000220704743685B0002D10368002B28D04D
:10433000164B9A1A521A012A23DB352A07DB4168E9
:1043400080221206114041600021016016E0012127
:10435000D306DB0E9940491E920608D542680A40F2
:1043600041685140416003681343002103E0036842
:104370000B40016859400160002B02D00020C0436F
:1043800070470020704700BFFF07000033040000A3
:1043900090420ED1A4460C001C430128644107D072
:1043A000994205D14C006415641C644000D30C0391
:1043B00064467047F0B401277F05DB184C18FB42B8
:1043C00059D85D0D50D0FC424DD2BF02A34200D15E
:1043D000824239D2640D0E003E409B023B43DB0A11
:1043E000C9023943C90A641B641C801A994104D26A
:1043F000641E001849418018594101D100420AD079
:10440000641E08D000184941801A9941F5D28018DD
:104410005941641EF6D18902820D8002114303D1F5
:1044200001001DD0203D002003D46D1E001849411D
:10443000FBD5C00A4C05C90A204331432D4207D49D
:104440002D054919F0BC7047FCD139400020F9E72F
:104450006D1C05D1FF0AB943401C69410F03F1D21D
:1044600031000020EEE7EDD10021C943744600F091
:1044700005F8A646E6E71900E4E770471FB5FFF721
:1044800039FF212101601FBD000000000000000075
:10449000000000000000000000000000000C01000F
:1044A000000000000027010000000000F0210100D2
:1044B00000000000002101000000000000E1FF07F3
:1044C000000000000021010600000000002101039F
:1044D0000000000000218101000004000001C10073
:1044E00000020400000040000003040080000001FE
:1044F00000010400800008018001040080008800A1
:10450000C000040080FCC900E0FF070080271F00F6
:1045100000000400E025090000000400B0240900A8
:10452000000004009004080000000400800428003B
:104530000000040080FC6F00000000008000C80143
:104540000000000000000800000000000000000063
:10455000000000000000000000000000000000005B
:10456000000000000000000000000000000000004B
:10457000000000000000000000000000000000003B
:1045800000000000000000000000001E3C000000D1
:104590000000000000000000000000FE3F000000DE
:1045A0000000000000000400000800FE3F000800BA
:1045B0000004000000001100002200F007000200CB
:1045C0000011000E384004008088C001C081000046
:1045D00040443800000701012022060000180002B4
:1045E00010910100006040048848000000808100B4
:1045F00040240000000012012012000000002400EE
:1046000000090000000048008008000000001000C1
:1046100000041C0000002000000436000000200000
:104620000082C10000004000004200010000400084
:10463000002200020018400000110004F00F870063
:1046400000090008008183000005201080C8810057
:104650009504361080E800A995029320C0F800A9BF
:104660009582DF20C0BF01A955C17C40C01803AAB4
:10467000C401EC43000C068AC400A4870006048A27
:10468000C40021800006068A44100180000C038BC0
:10469000443083000198818BD5E0FB0001F080AAB3
:1046A00095000F00026040A995610200020040A938
:1046B00015310200040020A9001104000400A0002C
:1046C00000020400080090000002040008009000AE
:1046D0000002040010004800000404002000440010
:1046E000000400004000420000080000808121001A
:1046F0000008000000662000001200000018900072
:10470000002400000000480080480000000024024F
:1047100000810000000002012002010000808108E9
:104720004000020000604004808004000018220263
:1047300000013900000711010022C201C081880078
:104740000044000E38004400008800F007002200FA
:104750000010000000001000002000FE3F000800D4
:1047600000000000000000000000001E3C000000EF
:1047700000000000000000000000001E3C000000DF
:1047800000000000000000000000000000400000E9
:104790000000000000400000000000000040980001
:1047A00000000000004097000000000000F0D10071
:1047B00000000000004F70000000000000403000CA
:1047C0000000000000401E000000000000F8110082
:1047D000C0071E00004F1000600C3F00004010009A
:1047E000209821000040100010F060000000D00070
:1047F0001060600000404100103060000060610007
:10480000107060000020310010C8600000301900F6
:10481000308C600000F80700E0863000000C0700D4
:1048200080031B0000060D0000000E00008218002F
:104830000000000000803000000000000080200028
:104840000000000000804000000000000080C00068
:1048500000000000008080000000000000800000D8
:104860000000000000000000000000000000000048
:104870000000000000000000000000000000000038
:10488000000000000000000070B50400FA26760069
:10489000BA48E4B2042161434058C07880073BD451
:1048A0006D1CB6B2ADB2AE42F2D20020B349E4B252
:1048B0000422624389588870E4B2002C06D1B048C3
:1048C0000068B0490140AE48016005E0AC480068AE
:1048D000AD490140AA48016000213320FCF72AFBC2
:1048E0000120AA490870E4B2002C07D1A44800684E
:1048F000802149020143A248016006E0A048006807
:104900008021890201439E48016080209B49E4B2D6
:1049100004226243895888709848E4B204216143B4
:104920004058C078022101439448E4B20422624313
:104930008058C17070BDF2B5A2B0070001A89449BB
:104940008022FCF7FFFD0026924DFFB2002F0DD113
:104950008B480068802149020143894801608E48E4
:104960000068202188438C4908600DE08448006875
:1049700080218902014382480160884800688021C3
:10498000C90001438548016085480068FA21890013
:1049900048432299FCF70DFCF0210901FCF709FCC2
:1049A000694648707E480068FA2189004843012121
:1049B0006A4652789140229A5143FCF7FAFB06006E
:1049C00040200400E4B2002C1DD0641EB6B201A841
:1049D000E4B202216143405A301AFCF7CDFD69462A
:1049E000488068464088002802D1684604700AE082
:1049F00068464088ADB2A842E4D268460470684672
:104A000040880500DEE76846407881016846007806
:104A10008006800E08435949FFB204227A43895820
:104A2000487080205549FFB204227A438958887023
:104A30005B480068FA218900484301216A465278A0
:104A4000914001AA94466A46137802225343624673
:104A5000D25A5143FCF7ADFB23B0F0BD80B5962090
:104A60006946088068460088411E6A46118080B207
:104A70000028F7D101BDF8B504000D0017006B4800
:104A8000E4B20421614340588178302008436749EB
:104A9000E4B2042262438958887068006349E4B232
:104AA00004226243895808712000C0B2FFF7ECFE6F
:104AB0005E48E4B204216143405807712000C0B24F
:104AC000FFF7E2FE5948E4B204216143405881787F
:104AD000042008435549E4B204226243895888708F
:104AE0006900012008435149E4B204226243895815
:104AF00008712000C0B2FFF7C7FE4C48E4B20421A1
:104B0000614340588178EF2008404849E4B20422CC
:104B10006243895888704548E4B204216143405893
:104B20008178082008434149E4B20422624389584D
:104B300088703E48E4B20421614340580079060081
:104B40002000C0B2FFF7A0FE3848E4B20421614360
:104B500040588178CF2008403449E4B204226243AF
:104B6000895888703148E4B2042161434058007983
:104B70000600FFF773FF3000C0B2F2BD38F0FF1F30
:104B800014800440FFFFFEFFFFFFFDFFBCF4FF1F8A
:104B9000445A0000FFFF00000C80044010800440D5
:104BA00088F3FF1FF8B504000F0015001E001F4812
:104BB000E4B20421614340588178302008431B4906
:104BC000E4B2042262438958887078001749E4B23D
:104BD00004226243895808712000C0B2FFF754FED6
:104BE0001248E4B204216143405805712000C0B26C
:104BF000FFF74AFE0D48E4B20421614340580671B4
:104C00002000C0B2FFF740FE0848E4B2042161432F
:104C100040588178CF2008400449E4B2042262431E
:104C200089588870FFF71AFFF1BD000038F0FF1FA8
:104C300038B56748006867490968FCF7A0FB664912
:104C400008606648006866490968FCF798FB654992
:104C500008606148006864490968FCF790FB634993
:104C60000968FCF7F9FB62490968FCF750FB010091
:104C70000C006048016858480068FCF7EDFB210013
:104C8000FCF745FB01000C00534801685A480068D6
:104C9000FCF73DFB0500544801688020C005FCF787
:104CA000DBFB01002800FCF76AFB54490968FCF7AC
:104CB000D3FB2100FCF72BFBFCF7FAFAFCF718FBFF
:104CC0004F4908604748006880490968FCF757FB6E
:104CD00046490968FCF7C0FB7D490968FCF717FBEA
:104CE00001000C00434801683E480068FCF7B4FB33
:104CF0002100FCF70CFB01000C003A4801687548E4
:104D00000068FCF704FB0500704801688020C005BE
:104D1000FCF7A2FB01002800FCF731FB37490968CA
:104D2000FCF79AFB2100FCF7F2FAFCF7C1FAFCF75A
:104D3000DFFA694908606948006831490968FCF789
:104D40008FFA03D2654800682D4908602C48006836
:104D500063490968FCF784FA03D26148006828496E
:104D600008605E4800685C490968FCF779FA03D27C
:104D70005A48006858490860574800685849096807
:104D8000FCF76EFA03D256480068534908601C4885
:104D900000681749086014480068174908600E4801
:104DA0000068114908600B4800684E4908604A488D
:104DB0000068474908604548006846490860094856
:104DC000006842490860064800684749086031BDEC
:104DD00060F4FF1F98F4FF1F68F4FF1F64F4FF1FC7
:104DE0009CF4FF1F74F4FF1F6CF4FF1FB8F0FF1F4B
:104DF00088F4FF1FBCF0FF1F70F4FF1F5CF4FF1F5F
:104E000080F4FF1F80B539480078002803D10120C5
:104E10003649087002E000203449087033480078B1
:104E200000281BD00020FEF759F9FCF761FA304941
:104E300008602320FCF762F8012804D12C480068A0
:104E40002C49086006E02A4801682B48FCF704FB5F
:104E5000284908600120FEF74BF91AE00120FEF70F
:104E60003DF9FCF745FA254908602120FCF746F892
:104E7000012807D1214801681F48FCF7EDFA2049B5
:104E8000086003E01D4800681D4908600020FEF727
:104E90002FF9184800681B49FCF7CAFA14D81848BB
:104EA00000681849FCF7C4FA0ED812480068164981
:104EB000FCF7D6F908D2124800681349FCF7D0F97C
:104EC00002D201201149087001BD000078F4FF1FD3
:104ED0008CF4FF1F7CF4FF1F84F4FF1FC4F0FF1F3E
:104EE000C8F0FF1FA0F4FF1FA4F4FF1FBDF4FF1FB5
:104EF00090F4FF1F98F4FF1F000080BF94F4FF1F81
:104F00009CF4FF1F01001643000016C3BCF4FF1FF2
:104F10000000000000000000002F0000000007005B
:104F2000070000147F147F1400242A7F2A120062D5
:104F30006408132300364955225000000503000081
:104F400000001C224100000041221C000014083E09
:104F500008140008083E0808000000A060000008CF
:104F60000808080800006060000000201008040223
:104F7000003E5149453E0000427F400000426151E1
:104F80004946002141454B31001814127F1000277B
:104F900045454539003C4A4949300001710905033E
:104FA00000364949493600064949291E000036366F
:104FB00000000000563600000008142241000014D2
:104FC00014141414000041221408000201510906AF
:104FD00000324959513E007C1211127C007F494930
:104FE0004936003E41414122007F4141221C007F61
:104FF00049494941007F09090901003E4149497A6F
:10500000007F0808087F0000417F410000204041E8
:105010003F01007F08142241007F40404040007F54
:10502000020C027F007F0408107F003E4141413E98
:10503000007F09090906003E4151215E007F0919E0
:1050400029460046494949310001017F0101003FDD
:105050004040403F001F2040201F003F4038403F5D
:1050600000631408146300070870080700615149C1
:10507000454300007F41410000552A552A55000054
:1050800041417F00000402010204004040404040D2
:10509000000001020400002054545478007F48446A
:1050A000443800384444442000384444487F0038A1
:1050B0005454541800087E0901020018A4A4A47CCA
:1050C000007F080404780000447D40000040808494
:1050D0007D00007F102844000000417F4000007CDC
:1050E00004180478007C08040478003844444438E8
:1050F00000FC242424180018242418FC007C080434
:10510000040800485454542000043F444020003C0C
:105110004040207C001C2040201C003C4030403C93
:10512000004428102844001CA0A0A07C0044645423
:105130004C4414141414141480B5FCF721FA72B6FC
:10514000FDF726F9E1214902022000F0E5F800F020
:1051500059F900230A2200210220FDF768FE0023EE
:105160000A2201210220FDF762FE0020FDF78EFFDA
:105170000120FDF78BFFFBF7A4F9FDF75DF900F0C7
:10518000C1F94149002000F0FEF9FBF751FB00F0A6
:105190003BFA62B6FDF71AFAFCE780B53B480068B7
:1051A000012101433948016001203949087039481B
:1051B0000088401C3749088036480088C82805DB2D
:1051C0000020344908803020FBF7E0FEFCF750FB5C
:1051D000FCF7C8FCFCF738FA00F036FAFEF7F4F8F2
:1051E0002D480078401C2C4908702B480078022874
:1051F00012DB002028490870FFF704FE27480068EA
:10520000401C2649086025480068142804DBFFF785
:105210000FFD002021490860FEF720FB00F0BAFADC
:105220001F4800680100491C1D4A1160342807DB33
:1052300000201B49086001211A48006800F09EFB0D
:105240001948007800281DD01848007800280CD094
:10525000FBF7EEFA15480078002803D10120134926
:10526000087002E0002011490870FDF7ABFC0E4801
:105270000078002803D101200B49087002E00020CB
:105280000949087001BD0000C40900000C71034009
:10529000B4F4FF1FB2F4FF1FD7F0FF1FF0F3FF1F9E
:1052A000ECF3FF1FD0F3FF1FB8F4FF1FB7F4FF1F8D
:1052B00000B5C0B2002803D002281ED00ED32AE0C9
:1052C0004A490968802252030A4348490A6048490A
:1052D000096880229143464A11601CE043490968ED
:1052E000802292030A4341490A60424909688022A8
:1052F00052010A433F490A600DE03C490968802297
:10530000D2030A4339490A603A4909683A4A0A40CD
:1053100038490A60FFE700BD70B582B004000E0096
:105320002000C0B2FFF7C4FF3448E4B20421614357
:105330004058C078F32101403048E4B2042262436F
:105340008058C1702D48E4B20421614340588078F0
:105350002A49E4B2042262438958887028480068C8
:10536000FA21890048430090009810217143FBF70F
:1053700020FF05006D1C2148E4B204216143405820
:105380000078E02101401D48E4B2042262438058C5
:1053900001701A48E4B204216143405800782900A2
:1053A000090AC906C90E01431448E4B20422624343
:1053B0008058017028001149E4B2042262438958E0
:1053C00048700E48E4B2042161434058C0780C2173
:1053D00001430A48E4B2042262438058C170009835
:1053E00000092900FBF7E5FE76BD000014800440AB
:1053F0000C80044010800440FFDFFFFF24F0FF1FFB
:1054000088F3FF1F80B537490120FFF794FAFB238B
:10541000202269210120FFF7C5FB002321226921F9
:105420000120FFF7BFFB0823222269210120FFF79B
:10543000B9FB8023232269210120FFF7B3FB02235C
:10544000242269210120FFF7ADFB262269210120DA
:10545000FFF711FB2449087001BD80B5272269219F
:105460000120FFF708FB000639D529226921012018
:10547000FFF701FB1D490880282269210120FFF761
:10548000FAFA1B490870194800880002184909787F
:1054900040181849088017480021405E00B2C0102B
:1054A000144908802D2269210120FFF7E4FA1249EE
:1054B00008802C2269210120FFF7DDFA0F490870CE
:1054C0000D48008800020D49097840180C490880F1
:1054D0000B480021405E00B2C0100949088001BDA0
:1054E00000000000801A0600BBF4FF1FAAF4FF1F93
:1054F000B9F4FF1FAEF4FF1FACF4FF1FBAF4FF1F97
:10550000B0F4FF1F80B5012201213020FBF770FCB1
:10551000012201213120FBF76BFC01220121322005
:10552000FBF766FC012201213320FBF761FC00221E
:1055300001211820FBF75CFC002201211C20FBF755
:1055400057FC002201212420FBF752FC00220121FC
:105550002A20FBF74DFC002201211A20FBF748FC12
:10556000002200212320FBF743FC00220021212000
:10557000FBF73EFC01BDFEE70121C206D20E9140C1
:105580002A4A1160704770B504000D000026ADB2C4
:1055900027480068FA218900FBF70BFE6843401E8C
:1055A0000600244800680221014322480160224885
:1055B000006802218843204908601F4800680121D3
:1055C00001431D4801601D48E4B21021614346506B
:1055D0001B48006801210143194801601748E4B2E3
:1055E0001021614340188068012188431349E4B2C7
:1055F000102262438918886001201049E4B2102209
:1056000062438918886070BD80B50D48006801212B
:1056100001430B4801600B4800680221014309481F
:1056200001601620FFF7A8FF01BD000000E100E0C7
:1056300088F3FF1F14800440007003400071034092
:105640000C7103400871034038B5FFF706FF42486C
:105650000021405EFBF740FE40490968FBF78FFEE2
:10566000FDF760FD3FA20CCAFEF7B1FAFDF74DFE53
:105670003F49086044480021405EFBF72DFE384951
:105680000968FBF77CFEFDF74DFD36A20CCAFEF75C
:105690009EFAFDF73AFE38490860354800683349FC
:1056A0000968FBF7DDFD0CD230480068802109064F
:1056B00048402F490968FBF7D3FD02D200202C494E
:1056C00008602C480068FDF72DFD04000D002848F7
:1056D0000068FDF727FD29A20CCAFEF778FA220020
:1056E0002B00FDF738FDFDF710FE22490860254824
:1056F0000068FDF717FD04000D001F480068FDF766
:1057000011FD1EA20CCAFEF762FA22002B00FDF763
:1057100022FDFDF7FAFD1B4908601C480068401C8B
:105720001A49086018480021405EFBF7D5FD18496A
:105730000968FBF7ECFD1649086014480068FBF7A0
:10574000CBFD010012480068FCF772FD01490860BA
:1057500031BD00BFE8F3FF1FB0F4FF1F88F0FF1F4B
:1057600084F0FF1F37894160E5D0A2BF80F0FF1FA2
:10577000D0F3FF1FD8F3FF1FD4F3FF1F7B14AE47F6
:10578000E17A743FDCF3FF1FAEF4FF1FE0F3FF1F6D
:10579000E4F3FF1F80B54548016845480068FBF702
:1057A000B6FD444908604448016844480068FBF776
:1057B000AEFD43490860434800683E490968FBF76D
:1057C0004FFD03D23F4800683A4908603D480068F1
:1057D0003B490968FBF744FD03D23A480068384961
:1057E00008603448006838490968FBF739FD03D27E
:1057F000354800682F490860314800683249096817
:10580000FBF72EFD03D2304800682D490860294877
:1058100000680021FBF70CFE08D201212A20FBF7CB
:1058200089FB00211A20FBF785FB0EE02148006868
:105830008021090648401F49086000212A20FBF703
:1058400079FB01211A20FBF775FB1D480068002138
:10585000FBF7EEFD08D201212420FBF76BFB0021B2
:105860001C20FBF767FB0EE0154800688021090645
:1058700048401349086000212420FBF75BFB01210D
:105880001C20FBF757FB0B480068FBF711FD0200DB
:1058900001210220FDF76CFB09480068FBF708FDB9
:1058A000020000210220FDF763FB01BDC8F3FF1FCA
:1058B00080F4FF1FF4F3FF1FCCF3FF1F84F4FF1FDE
:1058C000F8F3FF1F8CF0FF1F90F0FF1F00B5594940
:1058D000896809790906FAD556498968C87100BDF1
:1058E00080B50D20FFF7F2FF0A20FFF7EFFF01BDA3
:1058F00000B5017800290AD04E498968097909065E
:10590000FAD501784B4A9268D171401CF1E700BD8D
:10591000F0B585B006000F000025B6B2002E06D106
:105920003020694608700020694648701CE002A9D2
:10593000300080B2FBF77AF902A8401C04002078FE
:10594000302801D1641CFAE70020050020780028E7
:1059500006D020786946EDB24855641C6D1CF5E709
:1059600000206946EDB248556846FFF7C1FFFFB217
:10597000002F01D0FFF7B4FF05B0F0BDF2B582B043
:105980000600032530000021FBF76AFC05D28020C9
:10599000000646402D20FFF799FF3000FBF788FCFA
:1059A00001900198FBF7A4FC01003000FBF7E7FC35
:1059B000040030002049FBF73BFD09D8002100918D
:1059C00001981E49FBF7F5FB009980B2FFF7A0FF95
:1059D0000021009101981949FBF7EBFB08000099A1
:1059E00080B2FFF795FF2E20FFF770FFEDB2002D7C
:1059F00019D06D1E12482100FBF72EFD0400200077
:105A0000FBF782FD303007003800C0B2FFF75EFFC1
:105A1000FFB238003038FBF75FFC01002000FBF7D5
:105A2000AEFC0400E2E76846007A002801D0FFF7E8
:105A300057FFF7BD24F0FF1F013C1C461027000054
:105A4000000020411400160018001A001C001E005F
:105A5000220028001C002000240028002C00300018
:105A60003800440030003800400048005000580022
:105A70006800800050006000700080009000A0006E
:105A8000C000F000A000C000E000000120014001C3
:105A90008001E00140018001C0010002400280025B
:105AA0000003C0038002000380030004800400059B
:105AB0000006800700050006000700080009000A2C
:105AC000000C000F13481449088001201349087086
:105AD000232013490870704780B5FFF7F3FF80203B
:105AE00040041049086010200F49087096200F49A3
:105AF00008701A200E4908700E480078C006FBD4C2
:105B00000C4800784006FBD50A4800780C21084272
:105B1000FAD101BD03E80000042005400120054042
:105B2000002005402480044001400640005006400B
:105B3000004006400440064030B401210268001DC8
:105B4000002A0FD00368C318446808300C4202D002
:105B50004D466D1E64191D6825601B1D241D121FF6
:105B6000ECD0F8E730BC704710B5074979441831DC
:105B7000064C7C44163404E0081D0A6889188847DE
:105B80000100A142F8D110BD5000000070000000DB
:105B9000C1C5C3FFC1C1C181C5E3D3D3CFC1C3DB7D
:105BA000DBDBDBFFFFB1A9A5A3FFA1A1FFFDB9913D
:105BB00000000000020000000400000008000000D7
:105BC00010000000200000004000000080000000E5
:105BD0000001000000020000AFB6FFFFE403000078
:105BE000DCF0FF1F0000000051FFFFFFDC000000A1
:105BF000E0A4FFFF00F0FF1F0000000000F00BF822
:105C0000002801D0FFF7B0FF0020C046C046FFF7D4
:105C100093FA00F002F80120704780B500F002F816
:105C200001BDFEE70746384600F002F8FBE7FEE755
:105C300080B5C046C046024A11001820ABBEFBE743
:105C400026000200010002000400080010002000ED
:105C5000400080000001000200040000014880476D
:105C600001480047D95A0000855C000000800340CD
:105C70000090034000A00340000000F8400000F83E
:105C8000800000F8C046C046C046C046FFF7B6FFD9
:105C900043686162693A00000102030405060708CF
:105CA000FEE7FEE7FEE7FEE7FEE7FEE7FEE7FEE7CC
:105CB000FEE7FEE7FEE7FEE7FEE7FEE7FEE7FEE7BC
:105CC000FEE7FEE7FEE7FEE7FEE7FEE7FEE7FEE7AC
:045CD000FEE7FEE706
:0400000500005C8516
:00000001FF
